:020000040800F2
:10000000F814012011260008E9230008EB2300085A
:10001000EF230008F3230008F72300080000000086
:10002000000000000000000000000000FB230008AA
:10003000FD230008000000009980000851260008F8
:100040002B2600082B2600082B2600082B2600084C
:100050002B2600082B2600082B2600082B2600083C
:100060002B2600082B2600082B2600082B2600082C
:100070002B2600082B2600082B2600082B2600081C
:100080002B2600082B2600082B2600082B2600080C
:100090002B2600082B2600082B2600082B260008FC
:1000A0002B2600082B2600082B2600082B260008EC
:1000B0002B260008CF1200082B2600082B2600084C
:1000C0002B2600082B2600082B2600082B260008CC
:1000D0002B260008B73E010877CF00080359010816
:1000E0008BA201082B2600082B2600082B260008CF
:1000F0002B2600082B2600082B2600082B2600089C
:100100002B2600082B2600082B2600082B2600088B
:10011000994D0108D92601082B26000899A6000848
:100120002B2600082B2600082B2600082B2600086B
:100130002B2600082B2600082B2600082B2600085B
:100140002B2600082B2600082B2600082B2600084B
:100150002B2600082B2600082B2600080B40010840
:100160002B2600082B2600082B2600082B2600082B
:100170002B2600082B2600082B2600082B2600081B
:100180002B2600082B26000800F002F800F05CF88F
:100190000AA090E8000C82448344AAF10107DA45E2
:1001A00001D100F051F8AFF2090EBAE80F0013F0D8
:1001B000010F18BFFB1A43F001031847F49A02001D
:1001C000149B02000A444FF0000C10F8013B13F09E
:1001D000070408BF10F8014B1D1108BF10F8015BA0
:1001E000641E05D010F8016B641E01F8016BF9D193
:1001F00013F0080F1EBF10F8014BAD1C0C1B09D1EA
:100200006D1E58BF01F801CBFAD505E014F8016B5B
:1002100001F8016B6D1EF9D59142D6D370470000ED
:100220000023002400250026103A28BF78C1FBD8FF
:10023000520728BF30C148BF0B6070471FB528F078
:10024000BCF91FBD10B510BD24F0A4FC1146FFF78A
:10025000F5FF01F07AFE24F0C2FC03B4FFF7F2FFD1
:1002600003BC24F0C5FC00002DED028BAEE006209F
:100270000AF07DF9FE4880ED000AFE48008880B94A
:10028000FD4801880088401CFB4A1080022902DDDD
:100290000120F84908809FEDF90AF54880ED000A31
:1002A00091E0F348006828F017F941EC180B9FED36
:1002B000F40B53EC102B27F0DDFD05D2F24800883B
:1002C000401CF149088004E0EF484088401CEE499A
:1002D0004880E748006828F0FFF841EC180B9FEDD4
:1002E000EB0B53EC102B27F0C5FD04D29FEDE30A76
:1002F000DF4880ED000A002016F03FFD002016F0D8
:10030000A0FCE44801780078401CE24A1070032900
:1003100006DB00201146087016F006FD1AF023FDDA
:10032000D34890ED000A18F0BEFADB4890ED070ABA
:10033000DA4880ED040AD84890ED080AD74880EDE5
:10034000050AD54890ED090AD44880ED060AD2483E
:1003500090ED0D0AD14880ED070ACF4890ED0E0AC6
:10036000CE4880ED080ACC4890ED0F0ACB4880EDCE
:10037000090AC94890ED130AC84880ED0A0AC64820
:1003800090ED140AC54880ED0B0AC34890ED150A9C
:10039000C24880ED0C0AC04890ED4B0ABF4880ED82
:1003A000240ABD4890ED4C0ABC4880ED250ABA48A5
:1003B00090ED4D0AB94880ED260AB74890ED580AED
:1003C000B64880ED2E0A052002F09BF94FE72DED8F
:1003D000088BEFE000200AF0CAF8B14880ED000A6F
:1003E000B048007880B9B04801780078401CAE4A27
:1003F0001070022902DD0120AA4908709FEDAB0AA6
:10040000A74880ED000AC6E0A548006828F064F817
:1004100041EC180B9FEDA60B53EC102B27F02AFD97
:1004200004D89FEDA20A9E4880ED000A9B48D0EDBB
:100430000C0AB0EE600AF6EE000A1CF0E9FE10EEBF
:10044000104A204628F048F841EC1B0B9FED9A0B10
:1004500053EC102B27F04AFD41EC1A0B27F02EFA33
:1004600008EE100A8D48D0ED0B0AB0EE600AF6EEE9
:10047000000A1CF0CDFEF0EE408A8848D0ED0A0A52
:10048000B0EE600AF6EE000A1CF0C2FEB0EE409A32
:100490008248D0ED060AB0EE603AD0ED050AF0EEE3
:1004A000602AD0ED040AB0EE602A7D48D0ED000A43
:1004B000B6EE001A60EE810AB0EE600A804A814909
:1004C0008148F0EE481AB0EE681AF0EE490A1DF0C5
:1004D0001DFE7E4890F84800012838D17B4890F8EE
:1004E0004900012833D1794890ED020AB5EEC00ADF
:1004F000F1EE10FA2BD090ED020A7148D0ED000A0F
:1005000030EE600A10EE101A084627F0E5FF41ECC5
:10051000190BB0EE490AF0EE690A25F029FCB0EE9D
:10052000408AF0EE608A9FED6A0B53EC102B51EC81
:10053000180B27F0D9FD0AD2644890ED020A6048F2
:10054000D0ED000A30EE600A634880ED000A5C4896
:10055000D0ED000A604890ED001A70EE810AB0EE0E
:10056000600A1CF08FFE5D4880ED000A5C4880ED5B
:10057000000A544890ED000A5A4880ED000A5A4893
:1005800080ED000A504890ED000A584880ED000ABE
:10059000574880ED000A57480078012805D1564891
:1005A0000078012801D10AF051F922F096F80520CF
:1005B00002F0A7F80EE72DED028BD2E0052009F03E
:1005C000D6FF4E4880ED000A4D4801780078401C67
:1005D0004B4A1070022909DD4A48007830B965207D
:1005E00011460870012047490870BAE04348006886
:1005F00027F072FF41EC180B9FED240B53EC102BEE
:1006000027F038FC04D29FED400A3C4880ED000AF8
:10061000214890F8500148BB3C4890ED010AF8EEA3
:10062000080AB4EEE00AF1EE10FA02D2B8EE080AB7
:100630000FE0364890ED010AF0EE080AB4EEE00A49
:10064000F1EE10FA02DDB0EE080A02E02F4890ED5C
:10065000010AB0EE403A2D4890ED000AF8EE080A83
:10066000B4EEE00AF1EE10FA55D251E076E0000067
:100670000400002024040020260400200AD7A33B05
:10068000FA7E6ABC7493783F0C0000208DEDB5A013
:10069000F7C6C03E22040020C0DF0020BCEA0020D4
:1006A000280000202B0400202C0400200AD7233C23
:1006B000F168E388B5F8F43E9A9999999999F13FD0
:1006C000100000201400002018000020A8D60020F0
:1006D000000000000000244030040020CC10002066
:1006E000D8100020C8100020D4100020C410002012
:1006F000D0100020A1050020A20500203C0300200E
:1007000038040020370400200AD7A33CC4950020F9
:10071000B8EE080A0FE0F94890ED000AF0EE080A7A
:10072000B4EEE00AF1EE10FA02DDB0EE080A02E0E3
:10073000F24890ED000AF0EE402AF04890ED032ACE
:10074000D0ED021AEE48D0ED003AEE4890ED001AD6
:10075000DFEDED0A9FEDEC0A20F0D6F80A2001F05B
:10076000D0FF2BE706E01FED180A21F070FC1420E3
:1007700001F0C7FFF7E70AE0E448007810B9E44861
:10078000007808B119F0E2FA462001F0BAFFF3E769
:1007900010B52DED048B0D2009F0E9FEDFEDDD0A2B
:1007A00020EE200ABCEEC00AB0EE408ADA4890ED96
:1007B0000B0AF0EE408A90ED0A0AB0EE409A90EDF6
:1007C0000C0AB1EE400AF0EE409AB8EE480AD3485F
:1007D000D0ED000A20EE200ABCEEC00AD04880ED21
:1007E000000AD04890ED060ACF48D0ED000A80EE0E
:1007F000201AB7EE000A61EE000ACC4890ED001A0C
:10080000CB4890ED000A10EE810ACA4880ED000A3C
:10081000C448D0ED070AC44890ED001A80EE810A62
:10082000F7EE000A60EE200AC04890ED011AC048B9
:1008300090ED010A10EE810ABF4880ED000ABF4822
:1008400090ED000A20EE280ABD48D0ED000A20EE07
:10085000200AD0ED000AB7EE001A71EE600AB9481E
:1008600090ED001A01EE200A80ED000AB34890EDE9
:10087000010A20EE090AB248D0ED000A20EE200A53
:10088000D0ED000AB7EE001A71EE600AAE4890EDA6
:10089000001A01EE200A80ED000AA84890ED020A35
:1008A00020EE290AA648D0ED000A20EE200AD0ED5D
:1008B000000AB7EE001A71EE600AA44890ED001A23
:1008C00001EE200A80ED000ABDEC048B10BD2DED79
:1008D0000C8B84B0FEE39E48007820B99FED9D0A02
:1008E000B0EE408A13E09C4890ED000AF1EE000A59
:1008F000B4EEE00AF1EE10FA04DDB1EE000AB0EE5B
:10090000408A04E0944890ED000AB0EE408AFFF778
:100910003FFF844890F8250028BB904880689049A4
:10092000886000218E4A03C28C4890ED050A8C48ED
:1009300080ED050A894890ED060A894880ED060A8F
:10094000864890ED070A864880ED070A834890EDB7
:10095000030A834880ED030A804890ED040A80482A
:1009600080ED040A21E06E4800687D498860754882
:1009700090ED000A084680ED050A734890ED000AE4
:10098000084680ED060A714890ED000A084680EDA1
:10099000070A684890ED000A084680ED030A664899
:1009A00090ED000A084680ED040A082009F0DFFDFA
:1009B0006C4880ED000A006827F08EFD41EC190BB1
:1009C0009FED690B53EC102B27F054FA04D21FED66
:1009D000C90A644880ED000AB0EE480A60481AF07F
:1009E0001FFC63480078A0B36148007A88BB604868
:1009F000407A70BB5F4890ED150A5F48D0ED000A61
:100A000020EE200A5D4880ED000A5A4890ED140A55
:100A1000B1EE400A5848D0ED000A20EE200A5748AF
:100A200080ED010A534890ED150A5348D0ED000AB5
:100A300020EE200A8DED020A4E4890ED140AB1EE28
:100A4000400A4D48D0ED000A20EE200A8DED030A41
:100A500030E1FFE74A4890ED000A484880ED000A7F
:100A6000474890ED010A454880ED010A4448D0ED21
:100A7000020A444890ED001A60EE810ABFEE001AA7
:100A8000F4EEC10AF1EE10FA02D2FFEE000A19E00C
:100A90003B48D0ED020A3B4890ED001A60EE810A17
:100AA000B7EE001AF4EEC10AF1EE10FA02DDF7EE2D
:100AB000000A07E03248D0ED020A324890ED001AF1
:100AC00060EE810AB0EE600A2648D0ED000A2E489A
:100AD00018F0D6FF8DED020A2948D0ED030A294807
:100AE00090ED001A60EE810ABFEE001AF4EEC10A22
:100AF000F1EE10FA4AD2FFEE000A61E0C495002040
:100B00003C030020CC10002000000000000000206A
:100B10008A07002000247449BCEA002080030020DA
:100B20005C030020F0C3002040030020600300208D
:100B300074030020440300204803002068030020C1
:100B40007C0300204C0300205003002054030020AD
:100B50007E0B0020FA7E2A3F7414002078DD0020EE
:100B6000D895002000040020FCA9F1D24D62503F2E
:100B7000609C0020E8D7002004040020B4950020E9
:100B80002CFA0020600C0020CCF70020FE48D0EDAD
:100B9000030AFE4890ED001A60EE810AB7EE001AD3
:100BA000F4EEC10AF1EE10FA02DDF7EE000A07E0FA
:100BB000F548D0ED030AF54890ED001A60EE810A81
:100BC000B0EE600AF248D0ED000AF24818F058FF83
:100BD0008DED030A9FEDF00B25F08AFFB0EE40CAC1
:100BE000F0EE60CA9DED030A10EE101A084627F0D9
:100BF00073FC41EC1D0B53EC1C2B27F077F941ECF7
:100C00001A0B9FEDE50B24F0A7FFB0EE40CAF0EE03
:100C100060CA9DED020A10EE101A084627F05CFC2F
:100C200041EC1D0B53EC1C2B27F060F941EC1B0B26
:100C300053EC1A2B26F074FE41EC190B26F03EFE05
:100C4000D74988609FEDD40B25F052FFB0EE40CA23
:100C5000F0EE60CA9DED020A10EE101A084627F069
:100C60003BFC41EC1D0B53EC1C2B27F03FF941ECF6
:100C7000190B9FEDC90B24F06FFFB0EE40CAF0EEE8
:100C800060CA9DED030A10EE101A084627F024FCF6
:100C900041EC1D0B53EC1C2B27F028F941EC1B0BEE
:100CA00053EC192B27F02EFB41EC1A0B26F006FE15
:100CB000BB49C860BB4890ED040A10EE101A084604
:100CC00027F00AFC41EC1A0B9FEDB70B53EC102BED
:100CD00026F0E2FE41EC190B26F0F0FDB449086065
:100CE000B04890ED050A10EE101A084627F0F4FB04
:100CF00041EC1A0B9FEDAC0B53EC102B26F0CCFE05
:100D000041EC190B26F0DAFDA9494860A54890EDA1
:100D1000060A10EE101A084627F0DEFB41EC1A0B0B
:100D20009FEDA10B53EC102B26F0B6FE41EC190BF6
:100D300026F0C4FD9E498860084690ED000A10EE3A
:100D4000101A084627F0C8FB41EC1A0BB0EE4A0A0D
:100D5000F0EE6A0A25F00CF8B0EE409AF0EE609AD8
:100D60009FED940B53EC102B51EC190B27F082F8EC
:100D70007DD28F4890ED010A10EE101A084627F038
:100D8000ABFB41EC1A0BB0EE4A0AF0EE6A0A24F013
:100D9000EFFFB0EE409AF0EE609A9FED860B53ECB9
:100DA000102B51EC190B27F065F8E1D2804890ED3B
:100DB000010A8248D0ED020A20EE200A7C48D0EDDC
:100DC000020A7E4890ED011A00EEC10A7C4880EDCF
:100DD000000A774890ED020A7848D0ED000A20EE2C
:100DE000200A7348D0ED000A744890ED021A00EE14
:100DF000C10A734880ED010A704890ED020A6C4800
:100E0000D0ED020A20EE200A6C48D0ED000A6848B6
:100E100090ED001A00EE810A6848D0ED010A64489E
:100E200090ED011A00EE810A654880ED020A90ED0E
:100E3000000A10EE101A084627F04EFB41EC1A0B80
:100E4000B0EE4A0AF0EE6A0A24F092FFB0EE409A41
:100E5000F0EE609A9FED5B0B53EC102B51EC190BED
:100E600027F008F884D2564890ED010A00E0DFE14F
:100E700010EE101A084627F02FFB41EC1A0BB0EECB
:100E80004A0AF0EE6A0A24F073FFB0EE409AF0EEE0
:100E9000609A9FED4C0B53EC102B51EC190B26F084
:100EA000E9FFDFD2464890ED000AB1EE400A10EEAD
:100EB000101A084627F010FB41EC1A0B9FED430B6C
:100EC00053EC102B27F012F841EC190B26F0F6FC2E
:100ED000404908603A4890ED010AB1EE400A10EE30
:100EE000101A084627F0F8FA41EC1A0B9FED370B61
:100EF00053EC102B26F0FAFF41EC190B26F0DEFC28
:100F0000344948602E4890ED020AF7EE000A30EEB0
:100F1000600A10EE101A084627F0DEFA41EC1A0BB0
:100F20009FED2A0B53EC102B26F0E0FF41EC190B40
:100F300026F0C4FC274988602748007800287CD127
:100F400026480078002878D125480078002874D1F8
:100F5000084690ED000A2348D0ED000A30EE600A02
:100F600010EE101A084627F0B7FA41EC1C0B9FED63
:100F70001E0B53EC102B26F0B9FF41EC1A0B19484D
:100F800090ED000A34E000002CFA0020600C0020F4
:100F900000040020E0F70020B6F3FDD478E9084013
:100FA000C4950020BCEA0020000000000000B04012
:100FB000249700200000000000000C4008FC0020E6
:100FC00030970020000000000000F83F3D0AD7A342
:100FD00070BD23403C9700208A0700208403002036
:100FE0000000002018970020669DBD2B30B6CB3F37
:100FF00010EE101A084627F06FFA41EC1B0B53EC69
:101000001A2B26F08DFC41EC190B26F057FCFE49FB
:101010000860FE4890ED010A0846D0ED010A30EE66
:10102000600A10EE101A084627F056FA41EC1C0B25
:101030001FED130B53EC102B00E042E026F056FF9F
:1010400041EC1A0BF04890ED010A10EE101A084618
:1010500027F042FA41EC1B0B53EC1A2B26F060FCF4
:1010600041EC190B26F02AFCE7494860E74890ED6F
:10107000020A0846D0ED020A30EE600A10EE101A9D
:10108000084627F029FA41EC1C0B1FED290B53EC05
:10109000102B26F02BFF41EC1A0BDB4890ED020AD7
:1010A00010EE101A084627F017FA41EC1B0B53EC10
:1010B0001A2B26F035FC41EC190B26F0FFFBD24928
:1010C0008860D248D0ED000ACF4890ED001A70EE4B
:1010D000C10A00E0F9E0B0EE600A0521084618F008
:1010E00079FACB4880ED000AC848D0ED010AC6481D
:1010F00090ED011A70EEC10AB0EE600A05210620DB
:1011000018F068FAC24880ED010AC048D0ED020A22
:10111000BD4890ED021A70EEC10AB0EE600A0521DA
:10112000072018F057FABA4880ED020AD0ED000AFD
:10113000B0EE600AB748D0ED000AB74818F0A0FC3E
:10114000B64880ED000AB248D0ED010AB0EE600A60
:10115000B048D0ED000AB048143018F091FCAF4808
:1011600080ED010AAA48D0ED020AB0EE600AA94853
:10117000D0ED000AA848283018F082FCA74880ED7E
:10118000020AA24890ED000A10EE101A084627F055
:10119000A3F941EC1A0BB0EE4A0AF0EE6A0A24F009
:1011A000E7FDB0EE409AF0EE609A9FED9D0B53EC98
:1011B000102B51EC190B26F05DFE39D2934890EDBF
:1011C000010A10EE101A084627F086F941EC1A0BB6
:1011D000B0EE4A0AF0EE6A0A24F0CAFDB0EE409A78
:1011E000F0EE609A9FED8E0B53EC102B51EC190B27
:1011F00026F040FE1CD2894890ED000A8A4880ED16
:10120000000A864890ED010A874880ED010A83486C
:1012100090ED020A844880ED020A90ED000A8348AE
:1012200080ED000A804890ED010A804880ED010AB7
:101230007F484068D0ED010AB0EE600A7D48017831
:10124000102018F0C7F98DED000A7B484068D0EDFA
:10125000010AB0EE600A77480178112018F0BAF957
:101260008DED010A754890ED020A7548D0ED000A2F
:10127000B7EE001A71EE600A20EE200ADDED000ADA
:1012800090ED001A01EE200A6C4880ED020A90ED04
:10129000030A6B48D0ED000AB7EE001A71EE600A3F
:1012A00020EE200ADDED010A90ED001A01EE200A81
:1012B000624880ED030A0A200AF099FA0A200AF02F
:1012C00047FB0A2001F01DFA00BFFFF704BB2DE920
:1012D000F0412DED068B86B004F033F90121594819
:1012E00002F0FBFE01287CD10E2009F040F956489F
:1012F00080ED000A5548008880B95548018800886B
:10130000401C534A1080022902DD01204F49088009
:101310009FED500A4C4880ED000AFDE34E4890F8DE
:101320006000A0B14C4991F8640091ED1D2AF0EEE7
:10133000421A91ED1C2AB0EE421A91ED1B2AF0EEF2
:10134000420A91ED1A2AB0EE420A15F02AFA3E48F6
:10135000006827F0C1F841EC180B9FED400B53ECEF
:10136000102B26F087FD04D29FED3E0A364880ED13
:10137000000A3D493D4803F0E8FE98B13A493B4830
:1013800003F0FFFE10F03AFD10F0F9FC012280217D
:10139000374802F0AFF837480088801C81B23348E4
:1013A00009F02AFA00203449086001203349087006
:1013B0003148006808B10120087031480188008870
:1013C000401C2F4A10800129A7DD0020114608800B
:1013D0002A4800780028A0D02A48007807287DD223
:1013E00000E0B7E3DFE800F00499FDFCFBFAF90048
:1013F000254890ED000ABDEEC00A10EE100A01B2B9
:10140000214890ED010A41E0189700203C97002008
:10141000489700200004002018F70020549700206F
:101420003333333333332140A8950020C495002053
:1014300008140020850300201014002014C600208A
:1014400088030020000400400C0400204804002011
:10145000460400200AD7233BA8D600208DEDB5A076
:10146000F7C6C03E0AD7A33B00002020A060024080
:1014700000440040B005002098D700208A070020D3
:101480003E04002008040020580D0120BDEEC00AD3
:1014900010EE100A00B20023FE4A92ED010ADFEDC1
:1014A000FE0A20EE200ABDEEC00A10EE102A12B28B
:1014B000CDE90123CDE90301F848406890ED010A28
:1014C000B1EE400ADFEDF40A20EE200ABDEEC00ABC
:1014D00010EE100A00B20090EE4800E034E390ED08
:1014E000000ADFEDEF0A20EE200ABDEEC00A10EE82
:1014F000100A02B2E948406890ED000ADFEDE80A00
:1015000020EE200ABDEEC00A10EE100A01B2E54836
:10151000008800B20CF08BFD17E3E34890ED030A5E
:10152000DFEDDD0A20EE200ABDEEC00A10EE100A43
:1015300001B2DD4890ED020ADFEDD70A20EE200A65
:10154000BDEEC00A10EE100A00B20023D74A92ED99
:10155000060ADFEDD30A20EE200ABDEEC00A10EE27
:10156000102A12B2CDE90123CDE90301CF4890ED55
:10157000050ADFEDCB0A20EE200ABDEEC00A10EE10
:10158000100A00B20090C94890ED040AD0ED060A96
:1015900030EE600ADFEDC20A20EE200ABDEEC00A7E
:1015A00010EE100A03B2C14890ED040ADFEDBC0A48
:1015B00020EE200ABDEEC00A10EE100A02B2BB48AF
:1015C00090ED030ADFEDB60A20EE200ABDEEC00A58
:1015D00010EE100A01B2002004E04AE2C5E11CE16D
:1015E00098E002E00CF023FDAFE2B14890ED021B61
:1015F000B0EE410AF0EE610A9FEDAE1B53EC112BE9
:1016000051EC100B26F072FC41EC180B26F0D8FBC5
:1016100004B2AA4890ED021BB0EE410AF0EE610A56
:101620009FEDA41B53EC112B51EC100B26F05EFC2C
:1016300041EC180B26F0C4FB05B2A04890ED081B46
:10164000B0EE410AF0EE610A9FED9A1B53EC112BAC
:1016500051EC100B26F04AFC41EC180B26F0B0FBC5
:1016600006B2964890ED001BB0EE410AF0EE610A1A
:101670009FED901B53EC112B51EC100B26F036FC18
:1016800041EC180B26F09CFB07B28C4890ED061B32
:10169000B0EE410AF0EE610A9FED861B53EC112B70
:1016A00051EC100B26F022FC41EC180B26F088FBC5
:1016B0000FFA80F8824890ED000ADFED770A20EEFD
:1016C000200ABDEEC00A10EE100A00B200227149D5
:1016D00091ED010ADFED700A20EE200ABDEEC00A8E
:1016E00010EE101A09B2CDE90051CDE903040292BF
:1016F000744890ED000ADFED680A20EE200ABDEE86
:10170000C00A10EE100A01B233463A4640460CF0C9
:101710008EFC1AE26C4890ED001BB0EE410AF0EE30
:10172000610A9FED641B53EC112B51EC100B26F05A
:10173000DDFB41EC180B26F043FB04B2624890ED50
:10174000021BB0EE410AF0EE610A9FED5A1B53EC0A
:10175000112B51EC100B26F0C9FB41EC180B26F0B5
:101760002FFB05B2594890ED001BB0EE410AF0EE98
:10177000610A9FED501B53EC112B51EC100B26F01E
:10178000B5FB41EC180B26F01BFB06B24F4890ED61
:10179000021BB0EE410AF0EE610A9FED461B53ECCE
:1017A000112B51EC100B26F0A1FB41EC180B26F08D
:1017B00007FB07B2464890ED090ADFED390A20EE33
:1017C000200ABDEEC00A10EE100A00B2CDE9016099
:1017D000CDE903543E4890ED080ADFED2F0A20EED4
:1017E000200ABDEEC00A10EE100A00B2009039487F
:1017F000D0F8A90000EE100ADFED270A20EE200A3B
:10180000BDEEC00A10EE100A01B23348008803B2E0
:101810003A4600200CF00BFC97E13048006826F0B7
:101820005BFE41EC1A0B9FED2E0B53EC102B26F0B8
:1018300033F941EC190B9FED1F0B53EC102B26F0E5
:1018400055FB41EC180B26F0BBFA04B21348406874
:1018500090ED010AB1EE400ADFED0F0A20EE200AFA
:10186000BDEEC00A10EE100A00B20C49496891EDB5
:10187000000ADFED090A20EE200ABDEEC00A10EED4
:10188000101A09B20022CDE90304CDE9012116485E
:101890002CE00000581500200000C8420014002071
:1018A00000007A44DC070020C4950020D895002071
:1018B000A00C0120000000000000594010FD002095
:1018C000C0150020F8030020980D0120700C0120A5
:1018D000A8D60020C0D10020E40B002094050020F1
:1018E0000000000000408F403812002090ED010AF7
:1018F0005FED170A20EE200ABDEEC00A10EE100AB6
:1019000000B2FE4D009095ED000A5FED1D0A20EE3D
:10191000200ABDEEC00A10EE105A2BB2F84D95ED1C
:10192000020A5FED230A20EE200ABDEEC00A10EE87
:10193000105A2AB2F34D95ED020A5FED290A20EE06
:10194000200ABDEEC00A10EE105A29B2ED4D95EDF9
:10195000010A5FED2F0A20EE200ABDEEC00A10EE4C
:10196000105A28B20CF063FBEFE0E74890ED081B3B
:10197000B0EE410AF0EE610A1FED321B53EC112B61
:1019800051EC100B26F0B2FA41EC180B26F018FAC5
:1019900005B2DD4890ED021BB0EE410AF0EE610A9F
:1019A0001FED3C1B53EC112B51EC100B26F09EFA53
:1019B00041EC180B26F004FA04B2D04890ED010A6D
:1019C0005FED4B0A20EE200ABDEEC00A10EE100AB1
:1019D00002B2CE4890ED070A5FED510A20EE200AD0
:1019E000BDEEC00A10EE100A01B2C84890ED060A1A
:1019F0005FED570A20EE200ABDEEC00A10EE100A75
:101A000000B2C24B93ED080A5FED5D0A20EE200A9A
:101A1000BDEEC00A10EE103A1BB2CDE9005302AB86
:101A200007C3B64B93ED000A5FED650A20EE200A6E
:101A3000BDEEC00A10EE103A1AB2B44B93ED1E0A76
:101A40005FED6B0A20EE200ABDEEC00A10EE103AE0
:101A500019B2AE4B93ED1D0A5FED710A20EE200A1C
:101A6000BDEEC00A10EE103A18B223460CF0DFFAB1
:101A70006BE0A74890ED020AF2EE040A20EE200A7D
:101A8000BDEEC00A10EE100A00B2A14991ED010AA4
:101A9000F2EE040A20EE200ABDEEC00A10EE101A83
:101AA00009B29B4A92ED000AF2EE040A20EE200AE7
:101AB000BDEEC00A10EE102A12B2964B93ED120A38
:101AC0005FED8B0A20EE200ABDEEC00A10EE103A40
:101AD0001BB2CDE90132CDE903108E4890ED170A13
:101AE0005FED930A20EE200ABDEEC00A10EE100A48
:101AF00000B2884A009092ED160A5FED990A20EE36
:101B0000200ABDEEC00A10EE102A13B27B4A92EDF5
:101B1000000A5FED9F0A00E018E020EE200ABDEE0B
:101B2000C00A10EE102A11B27A4A92ED130A5FED44
:101B3000A60A20EE200ABDEEC00A10EE102A10B24E
:101B400000220CF074FA00E000BF00BF01217248CF
:101B500002F0D4FA03F010FD06B0BDEC068BBDE830
:101B6000F0812DED028B3AE16C4908880988491C07
:101B70006A4B198026F06AF941EC180B9FED680B4F
:101B800053EC102B26F0B0FA02D200206649087000
:101B90006649888D898D491C644B998526F056F9D4
:101BA00041EC180B9FED620B53EC102B26F09CFAC6
:101BB00003D200205D4981F831005C49B1F87C0016
:101BC000B1F87C10491C8BB25849A1F87C3026F042
:101BD0003DF941EC180B9FED560B53EC102B26F002
:101BE00083FA03D20021514880F85E1052490888D8
:101BF0000988491C504B198026F028F941EC180B34
:101C00009FED4E0B53EC102B26F06EFA02D2002003
:101C10004C4908704C49B1F84C00B1F84C10491CC3
:101C2000494BA3F84C1026F011F941EC180B9FED2D
:101C3000430B53EC102B26F057FA03D200204249F5
:101C400081F849004049B1F84A00B1F84A10491CEE
:101C50003D4BA3F84A1026F0F9F841EC180B9FED24
:101C6000370B53EC102B26F03FFA03D200203649F5
:101C700081F848003449B1F86200B1F86210491C9B
:101C8000314BA3F8621026F0E1F841EC180B9FED00
:101C90002B0B53EC102B26F027FA03D200202A49F5
:101CA00081F860002949B1F84400B1F84410491C9A
:101CB000264BA3F8441026F0C9F841EC180B9FED11
:101CC0001F0B53EC102B26F00FFA03D200201F49F4
:101CD00081F826001E49B1F80100B1F80110491C35
:101CE0001B4BA3F8011026F0B1F841EC180B9FED47
:101CF000130B53EC102B26F0F7F92BE038120020D1
:101D0000B4DF0020DCD9002090FC0020ACC700200C
:101D1000A895002068C10020000400405207002060
:101D2000000000000000394050070020E8D70020E4
:101D30000000000000001440A40500200000000086
:101D400000002E40A2050020A8D60020F0C30020ED
:101D500096DF002002D200202F4908702F494888C2
:101D60004988491C2D4B598026F070F841EC180B1E
:101D70009FED2B0B53EC102B26F0B6F902D200206E
:101D800026490870284890ED020AB8EE400A80ED16
:101D9000030A002024498860244908880988491CCE
:101DA000224B198026F052F841EC180B1FED240B42
:101DB00053EC102B26F098F905D21D48007810B985
:101DC00001201B4908701A48007828B900201949D9
:101DD0008870487081F85001C82000F092FCC3E67A
:101DE000154A1278052A04D10022144B1A80124B8E
:101DF0001A70124A1288124B1B781A440F4B1A8021
:101E00000D4A1278521C0C4B1A70704770B504467C
:101E10000D4606F070FD70BD96DF002068C1002001
:101E2000000000000000344008DD00204C040020C9
:101E30004A040020C0DF00204E0400201C040020C3
:101E4000D004002084480088704783481238006816
:101E50008249086080480E38006848607E480A3829
:101E60000068886070477FB50446002500BF0020E9
:101E700004F089FA7A4908604FF48071794804F0D7
:101E800081FC7949086003A9002003F0E1FE77494D
:101E9000086003F07DFC03A875A10022764BCDE914
:101EA0000021029002220A21084605F0CCFD734968
:101EB000086003A97148006805F057FF03A870A1E6
:101EC0000022714BCDE900210290022205210A2057
:101ED00005F0B9FD6D49086003A96C48006805F07C
:101EE00044FF06F0B1F805460323694A002169481A
:101EF00005F070F90223684A0021684805F06AF984
:101F00000423674A0021674805F064F90523664AFF
:101F10000021664805F05EF90F23654A00216548F7
:101F200005F058F91023644A0021644805F052F97D
:101F30001323634A0021634805F04CF9142005F08F
:101F4000C9FB284606F084F87FBD1CB54FF4A0609D
:101F500000F002FCA82000F083FB08F04EFB06F026
:101F60007AFC642008F0F7FA08F003F906F0EEFFB7
:101F70004FF47A6008F0EFFA06F0D4F914F087FE17
:101F80000A2008F0E8FA09F0CDFD4FF4FA7008F0E5
:101F9000E2FA09F059F94C480AF07AF801204FF4B6
:101FA000C1714A4B4A4ACDE90010C106494808F0C0
:101FB000C7FB454812F04AF84FF4165013F0CDFB1A
:101FC00041480FF029FF002043490870434981F838
:101FD00025009FED430A434880ED0D0A0120414949
:101FE00081F83000012280213948001F01F082FA77
:101FF0004FF4C171374808F0FFFB42F2CF013120A6
:1020000008F01EFB142008F0A6FA18F024FF40F296
:10201000DC51042008F008FC03F07BFA1423324A58
:102020000021AFF2BD1005F0D5F803F099FB0020B8
:102030001CBD1CB50FE001A8002303221F21009046
:102040000A48006803F06AFF01AB00221F2107481D
:10205000006804F0A3F8EEE7227AFF1F6C9C0020D2
:1020600050040020609800205404002058040020F0
:10207000746D723100000000E11D000810040020A2
:10208000746D7232000000000D1E00081404002060
:1020900074340020CF030008741C0020690200087B
:1020A00068870020B705000868940020CF08000862
:1020B000688F0020650700086891002077070008F6
:1020C00014970020631B000800CA080025DB0020CD
:1020D00004440040A0600240000000207CC60020B4
:1020E0003D0AD73F24D300205C98002010B5044659
:1020F00000F094F8374880ED000B00F077F8364890
:1021000080ED000A00F0DDF8344880ED000B00F0AF
:10211000D1F8334880ED000A00F01AF9314880ED1B
:10212000000B00F00FF9304880ED000A10BD10B52B
:102130002DED028BB0EE408AF0EE608A274890EDDC
:10214000000B53EC102B51EC180B25F0FDFD09D0C2
:10215000244890ED000B53EC102B51EC180B25F09C
:10216000F3FD03D10120BDEC028B10BD0020FAE786
:102170001B48D0ED000AB4EE600AF1EE10FA07D069
:102180001948D0ED000AB4EE600AF1EE10FA01D160
:10219000012070470020FCE710B52DED028BB0EE5A
:1021A000408AF0EE608A53EC182B51EC180B25F0A6
:1021B000CBFD03D00120BDEC028B10BD0020FAE75F
:1021C000B4EE400AF1EE10FA01D001207047002071
:1021D000FCE7000088040020980400207804002018
:1021E00090040020800400209404002008B5002200
:1021F0000092012008B9012200E00022114611B12D
:10220000012907D102E0274A009203E06FF0004263
:10221000009200BF00BF9DED000A08BD30B52DED56
:10222000028B83B080249FED200BB0EE408AF0EE4D
:10223000608A202C09D1FFF7D9FF10EE105A2846EA
:1022400026F04AF941EC180B23E0012008B90122DD
:1022500000E00022114611B1012918D10AE0144A08
:102260000192002200929DED000BB0EE408AF0EE4C
:10227000608A0CE06FF0004200924FF0FF32019252
:102280009DED000BB0EE408AF0EE608A00BF00BF0B
:1022900000BFB0EE480AF0EE680A03B0BDEC028B56
:1022A00030BD00000000C0FF000000000000000082
:1022B0000000F8FF08B54FF0FF4000909DED000AC8
:1022C00008BD30B52DED028B83B080249FED410B0E
:1022D000B0EE408AF0EE608A202C09D1FFF7EAFFC9
:1022E00010EE105A284626F0F7F841EC180B21E0C2
:1022F000012008B9012200E00022114611B1012994
:1023000016D10AE0354A0192002200929DED000BA1
:10231000B0EE408AF0EE608A0AE0304A0092002275
:1023200001929DED000BB0EE408AF0EE608A00BF96
:1023300000BF00BFB0EE480AF0EE680A03B0BDEC83
:10234000028B30BD08B5264800909DED000A08BDFF
:1023500030B52DED028B83B080249FED1E0BB0EEC7
:10236000408AF0EE608A202C09D1FFF7EBFF10EED7
:10237000105A284626F0B0F841EC180B21E0012055
:1023800008B9012200E00022114611B1012916D13D
:102390000AE0144A0192002200929DED000BB0EE7B
:1023A000408AF0EE608A0AE00E4A00920022019212
:1023B0009DED000BB0EE408AF0EE608A00BF00BFDA
:1023C00000BFB0EE480AF0EE680A03B0BDEC028B25
:1023D00030BD000000000000000000000000F07FA1
:1023E000000080FF0000F0FF704700BFFEE700BF65
:1023F000FEE700BFFEE700BFFEE770477047000042
:102400000CB50020019000907648006840F48030C0
:102410007449086000BF7348006800F40030009001
:102420000198401C0190009818B90198B0F5A04F90
:10243000F1D16C48006800F4003010B10120009028
:1024400001E0002000900098012846D16548403006
:10245000006840F08050634940310860624800687D
:1024600040F44040604908605E48083000685D49BB
:10247000083108600846006840F4004008600846DB
:10248000006840F4A05008605848091F0860081F01
:10249000006840F08070091F086000BF5148006864
:1024A00000F000700028F9D040F205705049086033
:1024B0004C480830006820F003004A4908310860A1
:1024C0000846006840F00200086000BF4548083038
:1024D000006800F00C000828F8D10CBD10B5454884
:1024E000006840F47000434908603E48006840F0CE
:1024F00001003C49086000203A4908310860394829
:1025000000683D490840374908603C48091D08609B
:10251000081F006820F48020091F0860002031494E
:102520000C310860FFF76CFF4FF0006031498039D3
:10253000086010BD70B50020002202230024022193
:10254000284D08352D6805F00C0020B1042806D070
:10255000082834D107E02A4D2A4E356033E02A4D51
:10256000284E35602FE01F4D2D1D2D68C5F380547A
:102570001C4D2D1D2D6805F03F0154B1224DB5FBBA
:10258000F1F5184E361D3668C6F3881605FB06F2BF
:1025900009E01B4DB5FBF1F5124E361D3668C6F34A
:1025A000881605FB06F20F4D2D1D2D68C5F301455C
:1025B0006D1C6B00B2FBF3F5124E356003E0104D5D
:1025C000104E356000BF00BF064D08352D68C5F3BD
:1025D00003150E4E705D0B4D2D68C540094E3560DC
:1025E00070BD0000003802400070004008544007F1
:1025F000003C024088ED00E0FFFFF6FE10300024B2
:102600000024F4009C04002000127A00A0040020A2
:102610000948804709480047FEE7FEE7FEE7FEE776
:10262000FEE7FEE7FEE7FEE7FEE7FEE704480549B2
:10263000054A064B70470000DD24000889010008A8
:10264000F80E0120F8140120F8100120F8100120E4
:1026500010B502F076FF03F0BAF802F08DFF10BD5E
:1026600070B504466FF0040000F0C8F8E11704EB01
:102670005171C1F3C701344A1170E11704EB517174
:10268000CD1041F2883045430520304908804FF095
:10269000E020006940F002004FF0E02108610846A8
:1026A0004561006940F00100086170BD2DE9F04707
:1026B000074600264FF0E020D0F81490224800781A
:1026C00007FB00F800BF02F08FFF4FF0E0208569A4
:1026D00011E04FF0E0208469AC420CD0AC4202D251
:1026E000281B064403E0A9EB0400284406442546C1
:1026F000464500D300E0ECE700BF02F0BAFFBDE8BA
:10270000F08770B5044612480078012814D11148AA
:10271000007888B90D480088844206DB0B480088A1
:1027200094FBF0F5284605F09DF80848008894FBD6
:10273000F0F100FB114084B24FF47A7104FB01F018
:10274000FFF7B4FF70BD0000B0040020B204002009
:10275000EA040020DE04002032490143324A1160BD
:10276000704770B5002100230F22C4781CB32E4C93
:10277000246804F4E064C4F5E064C4F30721C1F103
:102780000404E3B20A4144789C40E1B284781440E6
:1027900021430C07210E254C05786155047804F07F
:1027A0001F050124AC4005786D11AD0005F1E02551
:1027B000C5F8004109E0047804F01F050124AC408D
:1027C0001B4D0678761145F8264070BD194A0A401F
:1027D0000243154B1B1F1A60704739B1124A121D74
:1027E00012680243104B1B1D1A6006E00E4A121DB0
:1027F000126882430C4B1B1D1A607047042808D1D5
:102800004FF0E021096941F004014FF0E02211612D
:1028100007E04FF0E021096921F004014FF0E022C8
:10282000116170470000FA050CED00E000E400E0E3
:1028300080E100E080FFFF1F10B504469848844205
:1028400008D10121084600F086FB0021012000F09C
:1028500082FB76E09348844208D10121022000F0F7
:102860007AFB0021022000F076FB6AE08E48844269
:1028700008D10121042000F06EFB0021042000F0AB
:102880006AFB5EE08948844208D10121082000F0FB
:1028900062FB0021082000F05EFB52E08448844285
:1028A00008D10121102000F056FB0021102000F07B
:1028B00052FB46E07F48844208D10121202000F0ED
:1028C0004AFB0021202000F046FB3AE07A4884428F
:1028D00008D10121402000F03EFB0021402000F003
:1028E0003AFB2EE07548844208D10121802000F097
:1028F00032FB0021802000F02EFB22E07048844251
:1029000008D10121801500F026FB0021A01500F060
:1029100022FB16E06B48844208D10121401500F0EB
:102920001AFB0021601500F016FB0AE0664884429D
:1029300007D10121001500F00EFB0021201500F049
:102940000AFB10BDF0B50A4600210023002400BF99
:102950003DE0012505FA01F3156805EA03049C42F0
:1029600034D105684F000326BE40B5430560157994
:102970004E00B5400668354305601579012D02D03B
:102980001579022D16D185684F000326BE40B54348
:10299000856055794E00B540866835438560456849
:1029A00001268E40B5434560456896798E40B6B2A3
:1029B00035434560C5684F000326BE40B543C5603A
:1029C000D5794E00B540C6683543C560491C10290D
:1029D000BFD3F0BD4FF6FF7101600021017141715D
:1029E0008171C171704708B54FF480320092009A2E
:1029F0000A430092009AC261C161009AC261C26931
:102A00000092C269009208BD0246002013690B4083
:102A10000BB1012000E0002070470146086980B238
:102A200070470246002053690B400BB1012000E0C3
:102A3000002070470146486980B2704701837047A3
:102A4000418370470AB1018300E0418370474161CF
:102A5000704742694A4042617047F0B50023002444
:102A60004D07ED0E02FA05F3CE1000F1200555F8E2
:102A700026504E07F70E0F26BE40B543CF1000F18B
:102A8000200646F82750CE1000F1200555F82650B4
:102A900045EA0304CE1000F1200545F82640F0BDBC
:102AA000000002400004024000080240000C024006
:102AB000001002400014024000180240001C0240B6
:102AC000002002400024024000280240F94800682B
:102AD00040F00100F74908600020F649083108601D
:102AE000F4480068F4490840F2490860F348091DB9
:102AF0000860F348EF4984310860F0481038091D38
:102B00000860EC48006820F48020EA490860002052
:102B1000E8490C310860E7498C31086070470021B2
:102B2000E44A921C117011460870704710B50146B6
:102B30000022002300204A11012A02D1DD4C236823
:102B400008E0022A03D1DB4C7034236802E0D94C40
:102B50007434236801F01F02012494401C400CB11E
:102B6000012000E0002010BD38B5002000900024B6
:102B7000002500BF3120FFF7D9FF05460098401C13
:102B800000900098B0F5A04F01D0002DF2D0312078
:102B9000FFF7CCFF08B1012400E00024204638BD37
:102BA00001460020C34A106820F0F80040EAC10046
:102BB00010607047C349086070470021BD4A7032F9
:102BC00011701170012802D004280AD104E00121FB
:102BD000B84A7032117005E00521B64A70321170A2
:102BE00000E000BF00BF7047B7490860704770B58C
:102BF000049C41EA82150126C6EB530645EA0645C8
:102C0000054345EA0465AB4E361D356070BDAD49E0
:102C100008667047820142EA0172A64B84331A604B
:102C20007047A8498866704710B5830143EA01637D
:102C300043EA02739F4C8834236010BDA1490867A2
:102C40007047A049C864704702460020994B08337A
:102C5000186820F0EC6042EA01031843954B0833F2
:102C60001860704702460020924B0833186820F025
:102C7000784042EA010318438E4B083318607047CE
:102C8000014600208B4A0832106820F003000843F8
:102C90001060704787480830006800F00C007047EB
:102CA00001460020834A0832106820F0F0000843F3
:102CB00010607047014600207E4A0832106820F4F8
:102CC000E05008431060704701460020794A0832FE
:102CD000106820F4604040EAC10010607047F0B511
:102CE000002100220024022500260223714F08370C
:102CF0003F6807F00C0121B1042905D0082937D11C
:102D000005E0724F076036E0714F076033E0694FAE
:102D10003F1D3F68C7F38056664F3F1D3F6807F071
:102D20003F036EB16A4FB7FBF3F7DFF888C10CF1D0
:102D3000040CDCF800C0CCF3881C07FB0CF40CE09E
:102D4000624FB7FBF3F7DFF86CC10CF1040CDCF851
:102D500000C0CCF3881C07FB0CF4564F3F1D3F68A6
:102D6000C7F301477F1C7D00B4FBF5F7076002E065
:102D7000564F076000BF00BF4E4F08373F6807F04F
:102D8000F0010909534F7A5C0768D7404760494F03
:102D900008373F6807F4E051890A4E4F7A5C47686C
:102DA000D7408760434F08373F6807F46041490BBD
:102DB000484F7A5C4768D740C760F0BD002100F4F7
:102DC0004072B2F5407F0AD13A4A0832116821F4C4
:102DD000F811414A02401143364A08321160354A1F
:102DE00070321268C0F30B031A43324B70331A600F
:102DF00070473549443908607047334940390860A5
:102E0000704736490860704701460020294A8C32D5
:102E1000106820F01F004A1E1043264A8C321060B2
:102E2000704701460020234A8C32106820F4F85085
:102E30004A1E40EA02201F4A8C3210607047014649
:102E400000201C4A8C32106820F4401008431060A7
:102E5000704701460020174A8C32106820F4400069
:102E600008431060704701460020124A8C321068F7
:102E700020F44030084310607047194908607047DB
:102E800039B10C4A3032126802430A4B30331A60AF
:102E900006E0084A303212688243064B30331A602B
:102EA0007047F9B1034A343212680243014B34339C
:102EB0001A601CE000380240FFFFF6EA10300024E0
:102EC0000030002000004742800E47420024F400FA
:102ED00000127A00B4040020FFFCFF0F5C0147429F
:102EE000E01147428F4A126882438E4B1A60704746
:102EF00039B18C4A121D126802438A4B1B1D1A609D
:102F000006E0884A121D12688243864B1B1D1A6018
:102F1000704739B1834A0C3212680243814B0C333B
:102F20001A6006E07F4A0C32126882437D4B0C33F4
:102F30001A60704739B17B4A103212680243794BEC
:102F400010331A6006E0774A103212688243754BDC
:102F500010331A60704739B1724A243A126802433A
:102F6000704B243B1A6006E06E4A243A1268824392
:102F70006C4B243B1A60704739B16A4A203A126898
:102F80000243684B203B1A6006E0664A203A12680A
:102F90008243644B203B1A60704739B1614A1C3A46
:102FA000126802435F4B1C3B1A6006E05D4A1C3A04
:102FB000126882435B4B1C3B1A60704739B1594A17
:102FC000143A12680243574B143B1A6006E0554A04
:102FD000143A12688243534B143B1A60704739B15C
:102FE000504A103A126802434E4B103B1A6006E0FA
:102FF0004C4A103A126882434A4B103B1A607047A1
:1030000039B1484A1C3212680243464B1C331A60DD
:1030100006E0444A1C3212688243424B1C331A6059
:10302000704739B13F4A2032126802433D4B20338A
:103030001A6006E03B4A203212688243394B203343
:103040001A60704739B1374A243212680243354B4F
:1030500024331A6006E0334A243212688243314B2B
:1030600024331A60704739B12E4A2C321268024359
:103070002C4B2C331A6006E02A4A2C321268824309
:10308000284B2C331A60704739B1264A3032126807
:103090000243244B30331A6006E0224A3032126871
:1030A0008243204B30331A607047012808D11D49F4
:1030B0003C31096841F008011A4A3C32116007E0CE
:1030C00018493C31096821F00801164A3C32116068
:1030D000704739B1134A273A12780243114B273B04
:1030E0001A7006E00F4A273A127882430D4B273BAD
:1030F0001A7070470B484030006840F080700949F2
:1031000040310860704701460020064A283A12689C
:103110000A400AB1012000E0002070470149263929
:10312000087070473438024010B501218803FFF75A
:1031300056FF00214FF48040FFF751FF10BD1C499E
:10314000086070471B490862704730B500228B0742
:103150001C0F0F2303FA04F2154B08338C1053F89D
:1031600024309343124C08348D1044F82530234604
:103170008C1053F824308C07240F00FA04F42343F6
:103180000B4C08348D1044F8253030BD0949DC3132
:1031900008607047084908607047002004492031E2
:1031A000096801F4807109B1012000E00020704736
:1031B00000380140000027420004274210B50446B1
:1031C000FA48844208D101211020FFF708FF0021AE
:1031D0001020FFF704FF57E0F548844209D1012190
:1031E0004804FFF7EBFE00214FF40030FFF7E6FE46
:1031F0004AE0F048844209D101218804FFF7DEFE4D
:1032000000214FF48020FFF7D9FE3DE0EA488442D8
:1032100009D10121C804FFF7D1FE00214FF400209D
:10322000FFF7CCFE30E0E548844209D101210805D2
:10323000FFF7C4FE00214FF48010FFF7BFFE23E02C
:10324000DF48844208D101212020FFF7C8FE002179
:103250002020FFF7C4FE17E0DA48844209D101219B
:103260008807FFF7ABFE00214FF08040FFF7A6FE76
:103270000AE0D548844207D101214005FFF79EFEB0
:1032800000216005FFF79AFE10BD2DE9FF470546B6
:103290000E460024A14600BFA046B08900B100BF81
:1032A0002C8A24F44054F08804432C82AC8941F2E7
:1032B0000C608443B0883189084371890843044312
:1032C000AC81AC8A24F44074B0890443AC82684673
:1032D000FFF705FDB548854202D0B948854202D1C5
:1032E000DDF80C9001E0DDF80890A88900F40040BA
:1032F00040B109EBC90000EB091031684900B0FB8F
:10330000F1F707E009EBC90000EB0910316889000B
:10331000B0FBF1F76420B7FBF0F004012009642151
:1033200001FB1078A88900F4004040B1322000EB86
:10333000C800B0FBF1F000F00700044308E03220C1
:1033400000EB08106421B0FBF1F000F00F00044323
:103350002C81BDE8FF874FF4165101600021818068
:10336000C18001810C21418100218181704710B50C
:1033700002460020108A20F470600B884C8823439A
:103380008C882343CC8823431843108210BD00212E
:10339000018041808180C180704721B1828942F4DF
:1033A0000052828104E082894DF6FF731A408281C7
:1033B0007047028B02F47F420283028B0A4302832E
:1033C000704721B1828942F40042828103E0828900
:1033D000C2F30E028281704721B1828A42F40062F8
:1033E000828204E0828A4FF2FF731A408282704721
:1033F000C1F308028280704701468888C0F3080044
:103400007047028A4FF6F0731A400282028A0A431A
:103410000282704721B1828942F00202828104E077
:1034200082894FF6FD731A408281704782894FF27C
:10343000FF731A40828182890A4382817047028A1F
:103440004FF6DF731A400282028A0A4302827047F3
:1034500021B1028A42F48042028204E0028A4BF6E1
:10346000FF731A4002827047818941F00101818116
:10347000704721B1828A42F00802828204E0828A87
:103480004FF6F7731A4082827047028BD2B20283E2
:10349000028B42EA01220283704721B1828A42F004
:1034A0002002828204E0828A4FF6DF731A40828211
:1034B000704721B1828A42F01002828204E0828A3F
:1034C0004FF6EF731A4082827047828A4FF6FB7381
:1034D0001A408282828A0A438282704721B1828A9C
:1034E00042F00202828204E0828A4FF6FD731A40A3
:1034F000828270471AB1838A0B43838202E0838AF7
:103500008B4383827047F0B50346002400260025D4
:10351000002040F66A17B94200D100BF1846C1F337
:10352000421401F01F06012707FA06F5012C01D10C
:103530000C3004E0022C01D1103000E014301AB13C
:1035400007682F43076002E00768AF430760F0BDDC
:1035500002460020B1F5007F00D100BF13880B4068
:103560000BB1012000E00020704701F40072B2F5B9
:10357000007F00D100BFCA430280704770B5024689
:10358000002400230025002040F66A16B14200D135
:1035900000BFC1F3421501F01F03012606FA03F331
:1035A000012D13D19689334017E00000001001402F
:1035B0000044004000480040004C004000500040E3
:1035C0000014014000780040007C0040022D02D130
:1035D000168A334001E0968A33400C12012606FA1F
:1035E00004F41688344013B10CB1012000E000202F
:1035F00070BD10B50022002340F66A14A14200D12C
:1036000000BF0A1201249440A3B2DC43048010BD21
:1036100010B50446FE48844208D101210846FFF750
:10362000DEFC00210120FFF7DAFC9DE0B4F1804FC1
:1036300008D101210846FFF7C1FC00210120FFF756
:10364000BDFC91E0F348844208D101210220FFF73C
:10365000B5FC00210220FFF7B1FC85E0EE48844272
:1036600008D101210420FFF7A9FC00210420FFF765
:10367000A5FC79E0E948844208D101210820FFF740
:103680009DFC00210820FFF799FC6DE0E44884428E
:1036900008D101211020FFF791FC00211020FFF735
:1036A0008DFC61E0DF48844208D101212020FFF732
:1036B00085FC00212020FFF781FC55E0DA48844298
:1036C00008D101210220FFF78AFC00210220FFF728
:1036D00086FC49E0D548844209D101210804FFF75E
:1036E0007EFC00214FF48030FFF779FC3CE0D048AD
:1036F000844209D101214804FFF771FC00214FF4F5
:103700000030FFF76CFC2FE0CA48844209D1012148
:103710008804FFF764FC00214FF48020FFF75FFC72
:1037200022E0C548844208D101214020FFF746FC31
:1037300000214020FFF742FC16E0C048844208D137
:1037400001218020FFF73AFC00218020FFF736FCA2
:103750000AE0BB48844207D101218015FFF72EFC07
:103760000021A015FFF72AFC10BD00220288A84BFB
:1037700098420ED0AC4B98420BD0B0F1804F08D09D
:10378000A44B984205D0A44B984202D0A34B984238
:1037900004D14FF68F731A404B881A43A04B9842BE
:1037A00007D0A04B984204D04FF6FF431A400B8934
:1037B0001A4302804B68C3620B880385944B98427E
:1037C00002D0994B984201D18B7A038601238382E0
:1037D00070474FF0FF31416000210180018141803D
:1037E000817270470185828270470A4600210188F4
:1037F0004FF68F7319401143018070474162704743
:10380000C16270470146486A70470146088D70479B
:1038100021B1028842F00202028004E002884FF6E1
:10382000FD731A400280704721B1028842F0040201
:10383000028004E002884FF6FB731A400280704752
:1038400021B1028842F08002028004E002884FF633
:103850007F731A400280704702884FF6F7731A4050
:10386000028002880A430280704702884FF6FF43B5
:103870001A40028002880A430280704721B1028800
:1038800042F00102028004E002884FF6FE731A4003
:103890000280704770B5002400220023058C4FF68B
:1038A000FE7635400584028C8388048B4FF68F7535
:1038B0002C40B51E2C400D882C43751E2A408D8946
:1038C0002A434D882A43524DA84202D0564DA84261
:1038D00013D14FF6F7752A40CD892A434FF6FB7571
:1038E0002A408D882A434FF6FF652B404FF6FF553F
:1038F0002B400D8A2B434D8A2B43838004838D6894
:103900004563028470BD70B5002400220023058C3D
:103910004FF6EF7635400584028C8388048B48F699
:10392000FF752C404FF6FF452C400D884FF6FF7673
:1039300006EA05252C434FF6DF752A408D8906EAF5
:1039400005152A434D8806EA05152A43304DA8423D
:1039500002D0354DA8421DD14FF67F752A40CD8942
:103960004FF6FF7606EA05152A434FF6BF752A4043
:103970008D8806EA05152A434FF6FF352B404FF296
:10398000FF752B400D8A06EA85052B434D8A06EA12
:1039900085052B43838004838D688563028470BD15
:1039A00070B5002400220023058C4FF6FF663540D9
:1039B0000584028C8388848B4FF68F752C404FF6DC
:1039C000FC752C400D882C434FF6FF552A408D89FD
:1039D0004FF6FF7606EA05252A434D8806EA0525B7
:1039E0002A430B4DA84202D00F4DA84238D14FF2C6
:1039F000FF752A40CD894FF6FF7606EA05252A4352
:103A00004FF6FF352A408D8806EA05252A4319E03E
:103A1000000001400004004000080040000C00408D
:103A2000001000400014004000040140004001402C
:103A3000004401400048014000180040001C0040C4
:103A4000002000404EF6FF752B404DF6FF752B40D1
:103A50000D8A06EA05152B434D8A06EA05152B4308
:103A6000838084838D68C563028470BD70B5002235
:103A700000230024058C4EF6FF7635400584038C28
:103A80008488828B48F6FF752A404FF6FF452A400E
:103A90000D884FF6FF7606EA05252A434DF6FF7599
:103AA0002B408D8906EA05352B434D8806EA0535FE
:103AB0002B43FE4DA84202D0FD4DA84208D14BF643
:103AC000FF752C400D8A4FF6FF7606EA85152C43CC
:103AD000848082838D680564038470BD0021018029
:103AE0004180818081608181C181018241827047F2
:103AF00070B50346002000241846183001258D407B
:103B0000ACB21D8CA5431D8409B108290AD100EB74
:103B1000610005684FF68F763540056005681543EE
:103B200005600FE00D1FC5F34E052844056848F6F3
:103B3000FF763540056005684FF6FF7606EA0226F7
:103B40003543056070BD4163704781637047C16351
:103B50007047016470470A460021018B4FF68F734E
:103B600019401143018370470A460021018B48F632
:103B7000FF7319404FF6FF7303EA022319430183D1
:103B800070470A460021818B4FF68F73194011430D
:103B9000818370470A460021818B48F6FF731940E4
:103BA0004FF6FF7303EA02231943818370470A46E5
:103BB0000021018B4FF6F7731940114301837047C1
:103BC0000A460021018B4FF2FF7319404FF6FF7335
:103BD00003EA02231943018370470A460021818BBF
:103BE0004FF6F77319401143818370470A4600214D
:103BF000818B4FF2FF7319404FF6FF7303EA0223E4
:103C00001943818370470A460021018B4FF6FB73ED
:103C100019401143018370470A460021018B4FF67A
:103C2000FF3319404FF6FF7303EA02231943018360
:103C300070470A460021818B4FF6FB7319401143F0
:103C4000818370470A460021818B4FF6FF3319406C
:103C50004FF6FF7303EA02231943818370470A4634
:103C60000021018B4FF67F73194011430183704788
:103C70000A460021018BC1F30E014FF6FF7303EAE0
:103C800002231943018370470A460021818B4FF6B6
:103C90007F7319401143818370470A460021818B4D
:103CA000C1F30E014FF6FF7303EA02231943818328
:103CB00070470A460021018C4FF6FD7319401143ED
:103CC000018470470A460021018C4FF6F7731940B2
:103CD0001143018470470A460021018C4FF6DF73BF
:103CE00019404FF6FF7303EA02131943018470472A
:103CF0000A460021018C4FF67F7319404FF6FF737F
:103D000003EA02131943018470470A460021018C1B
:103D10004FF6FF5319404FF6FF7303EA022319438E
:103D2000018470470A460021018C4FF2FF7319404D
:103D30004FF6FF7303EA02231943018470470A46D2
:103D40000021018C4DF6FF7319404FF6FF7303EA13
:103D5000023319430184704730B5002301248C409D
:103D6000A3B2048C9C430484048C02FA01F5ADB226
:103D70002C43048430BD30B5002304248C40A3B20E
:103D8000048C9C430484048C02FA01F5ADB22C43EC
:103D9000048430BD828B4FF2FF331A408283828BC2
:103DA0004FF6FF7303EA01231A4382837047F0B58D
:103DB0000C461546002100220026078C4EF6FF7C9B
:103DC00007EA0C070784818B028C4FF6FF7707EA1E
:103DD000043640F6FF4739404FF6FF7707EA0527DC
:103DE00039434FF6FF7707EA0337394345F6FF7744
:103DF0003A4046F480573A4381830284F0BD828B77
:103E00004FF6F3731A408283828B0A438283704792
:103E1000F0B50C461546002100220026078C4FF60F
:103E2000FF6C07EA0C070784818B028C4FF6FF7743
:103E300007EA04264FF60C7739404FF6FF7707EA7A
:103E400003172F4339434FF2FF573A4046F4807728
:103E50003A4381830284F0BD028B4FF2FF331A4054
:103E60000283028B4FF6FF7303EA01231A43028396
:103E70007047F0B50C461546002100220026078C3D
:103E80004FF6EF7C07EA0C070784018B028C4FF694
:103E9000FF7707EA041640F6FF4739404FF6FF77F1
:103EA00007EA033739434FF6FF7703E0000001408C
:103EB0000004014007EA052739434FF65F773A408F
:103EC00046F010073A4301830284F0BD028B4FF69F
:103ED000F3731A400283028B0A4302837047F0B5E2
:103EE0000C46154600210022068C4FF6FE773E4018
:103EF0000684018B028C4FF60C7631407E1C06EA5C
:103F000003162E4331434FF6F576324044F0010656
:103F1000324301830284F0BD70B505460C4620880B
:103F200050B92389A28861882846FFF7D8FFE18825
:103F30002846FFF7CBFF25E0208804280AD12389F3
:103F4000A28861882846FFF794FFE1882846FFF79A
:103F500083FF17E0208808280AD12389A288618876
:103F60002846FFF755FFE1882846FFF748FF09E09C
:103F70002389A28861882846FFF719FFE18828462F
:103F8000FFF708FF70BD0021018041800121818081
:103F90000021C180018170472DE9F04105460C46A2
:103FA00000260127608808B9022600E00026A088C4
:103FB000012801D1022700E001272088A0B9238928
:103FC000A28861882846FFF78AFFE1882846FFF724
:103FD0007DFF23893A4631462846FFF74AFFE188AC
:103FE0002846FFF739FF13E02389A2886188284615
:103FF000FFF73FFFE1882846FFF72EFF23893A4667
:1040000031462846FFF76BFFE1882846FFF75EFF41
:10401000BDE8F0810146486B70470146886B7047E8
:104020000146C86B70470146086C70470A884B8888
:104030001A438B881A43CB881A430B891A434B893E
:104040001A438B891A43A0F844207047002101804D
:1040500041808180C180018141818181704731B17E
:10406000B0F8442042F40042A0F8442005E0B0F843
:104070004420C2F30E02A0F84420704721B1828888
:1040800042F00402828004E082884FF6FB731A40FB
:104090008280704721B1828842F00102828004E070
:1040A00082884FF6FE731A40828070471AB1838966
:1040B0000B43838102E083898B4383817047818234
:1040C000704702460020138A0B400BB1012000E02C
:1040D00000207047CA430282704730B50246002074
:1040E00000230024158A05EA0103958905EA0104E5
:1040F00013B10CB1012000E0002030BDCA430282A0
:10410000704741EA0203A0F8483070471AB183892A
:104110000B43838102E083898B438381704721B104
:10412000828842F00802828004E082884FF6F773AA
:104130001A408280704701894FF6F8721140018160
:1041400070470A46002101894FF68F7319401143C9
:104150000181704730B504460D4629462046FFF7D9
:10416000F0FF208940F00700208130BD2DE9F041AB
:1041700004460D4616461F46602D06D13B460122D9
:1041800031462046FFF775FE05E03B4601223146E9
:104190002046FFF7A4FE29462046FFF7D2FF2089DC
:1041A00040F007002081BDE8F08130B50C460021C9
:1041B0000189C9B24FF6FF7505EA0325154325436A
:1041C0002943018130BD2DE9F04105460E461746D1
:1041D0009846002443463A4631462846FFF7E5FF15
:1041E0002C894FF6F870044044F007044FF68F70A6
:1041F000044044F070042C81BDE8F081F0B5044621
:104200000D4616461F463B46324629462046FFF7D6
:10421000CCFF208940F480402081F0BD82884FF699
:104220008F731A40828082880A4382807047028995
:104230004FF6F8731A40028102890A4302817047DF
:1042400002894FF67F731A40028102890A43028174
:104250007047F0B50C4615461E460021002200238B
:104260000189028B038C4FF6F877394021434FF6D2
:10427000FC473A4040F201173A434FF6DD773B40A6
:104280004FF6FF7707EA06172F433B43018102836E
:104290000384F0BD21B1828842F08002828004E074
:1042A00082884FF67F731A4082807047A0F85010C2
:1042B00070470000FE4A1070704730B1FC49096831
:1042C00041F48071FA4A116005E0F949096821F466
:1042D0008071F74A1160704730B1F549096841F4BF
:1042E0000071F34A116005E0F149096821F4007199
:1042F000EF4A1160704730B1ED49096841F48061BF
:10430000EB4A116005E0EA49096821F48061E84A56
:1043100011607047E648006840F40060E4490860B6
:104320007047E348006840F48050E14908607047F6
:10433000DF481030006800F0004028B1DD48DC495B
:10434000091D0860DC4808607047D94810300068D3
:1043500040F00040D6491031086070470920D44928
:104360000C31096801F48031B1F5803F01D10120A1
:1043700020E0CF490C31096801F0100109B1062095
:1043800018E0CB490C31096801F4807109B10220B1
:1043900010E0C7490C31096801F0EF0109B10720AD
:1043A00008E0C3490C31096801F0020109B1082095
:1043B00000E00920704708B509200090FFF7CEFF04
:1043C000009002E0FFF7CAFF00909DF8000001286E
:1043D000F8D09DF8000008BD70B504460A460026D6
:1043E000092502B909E0012A01D1160205E0022AD5
:1043F00001D1160201E04FF44076FFF7DCFF0546DD
:10440000092D2DD1AA481030006820F44070A84929
:1044100010310860084600683043086008460068AC
:1044200020F0F80008600846006844F002010843E4
:104430009F49103108600846006840F480300860E9
:10444000FFF7B9FF05469A481030006820F00200D7
:104450009749103108600846006820F0F8000860AD
:10446000284670BD30B5024600250924FFF7A3FF9A
:10447000044602B909E0012A01D1150205E0022A29
:1044800001D1150201E04FF44075092C20D1884874
:104490001030006820F440708549103108600846EB
:1044A0000068284308600846006840F0040008607F
:1044B0000846006840F480300860FFF77CFF04463F
:1044C0007B481030006820F0040079491031086002
:1044D000204630BD30B5024600250924FFF76BFFAA
:1044E000044602B909E0012A01D1150205E0022AB9
:1044F00001D1150201E04FF44075092C20D16C4820
:104500001030006820F44070694910310860084696
:104510000068284308600846006840F0040008600E
:104520000846006840F480300860FFF744FF044606
:104530005F481030006820F004005D4910310860C9
:10454000204630BD30B5024600250924FFF733FF71
:10455000044602B909E0012A01D1150205E0022A48
:1045600001D1150201E04FF44075092C20D15048CB
:104570001030006820F440704D4910310860084642
:104580000068284308600846006840F4004008605E
:104590000846006840F480300860FFF70CFF0446CE
:1045A00043481030006820F4004041491031086051
:1045B000204630BD70B5064614461D460922FFF759
:1045C000FAFE0246092A1ED139481030006820F44C
:1045D00040703749103108600846006840F4407068
:1045E00008600846006840F00100086034607560AB
:1045F000FFF7E1FE02462E481030006820F001006F
:104600002B4910310860104670BD30B502460C468B
:104610000925FFF7D0FE0546092D1DD1244810308D
:10462000006820F440702249103108600846006894
:1046300040F4007008600846006840F0010008601F
:104640001460FFF7B8FE054619481030006820F0E6
:104650000100174910310860284630BD30B50246C8
:104660000C460925FFF7A7FE0546092D1DD1104868
:104670001030006820F440700D4910310860084681
:10468000006840F4807008600846006840F001004F
:1046900008601480FFF78FFE05460548103000685B
:1046A00020F00100024910310860284630BD0000AA
:1046B000003C024023016745AB89EFCD30B502468F
:1046C0000C460925FFF777FE0546092D17D19B48B3
:1046D000006820F440709949086008460068086046
:1046E0000846006840F0010008601470FFF763FEA0
:1046F00005469248006820F001009049086028466D
:1047000030BD8E48001D006800F0010028B18C48C3
:104710008A49083908608B48086070478748001D3F
:10472000006840F001008549091D0860704730B5F8
:1047300002460C460925FFF73EFE0546092D10D11D
:104740003CB17E48801D008890437C49891D0880CB
:1047500007E07A48801D008891B208437749891D97
:10476000088030BD30B502460C460925FFF723FE10
:104770000546092D10D13CB170480A30008890439D
:104780006E490A31088007E06C480A30008891B20F
:1047900008436A490A31088030BDFF21674AD21DAB
:1047A000127802F07F0140EA0102644BDB1D1A70AF
:1047B000704730B502460C460925FFF7FCFD05465B
:1047C000092D10D144B15D48801D008891B2084385
:1047D0005A49891D088006E05848801D008890438A
:1047E0005649891D088030BD30B502460C46092562
:1047F000FFF7E1FD0546092D10D144B14F480A30BD
:10480000008891B208434D490A31088006E04B48C0
:104810000A300088904349490A31088030BD10B5FC
:1048200002460924FFF7C7FD0446092C02D143487C
:10483000401D027010BDF0B504460D46FF26092745
:10484000FFF7B9FD0746092F0BD13C48001D007842
:1048500000F00F0645EA0600104320433749091DC2
:104860000870F0BD3549091D097821F01001334A5F
:10487000121D1170114609780143117070472F49BC
:10488000091D097821F00C012C4A121D11701146E6
:10489000097801431170704700B509222748001DAF
:1048A000007840F002002549091D0870FFF783FDDC
:1048B0000246104600BD2148001D0068C0F34710A5
:1048C00070471E48801D008870471C480A300088C9
:1048D00070471A48801D0088704718480A300088C1
:1048E000704700201549491D0978AA2901D00120E7
:1048F00000E0002070471148001D007800F00C0017
:10490000704729B10D4A126802430C4B1A6004E04B
:104910000A4A12688243094B1A6070470146002018
:10492000064A121F12680A400AB1012000E0002066
:1049300070470249091F086070470000103C0240A0
:104940003B2A19087F6E5D4C002041490860091D13
:104950000860091D0860091D08603E483C49143183
:104960000860704700213A498279002A3AD00A4605
:10497000126803689A430B461A600A1D126803689E
:104980009A430B1D1A60027911440A6803681A439E
:104990000A602F4A0832126803689A432C4B083386
:1049A0001A601A1D126803689A43294B0C331A6067
:1049B0004279102A0ED11A1F126803681A43244B39
:1049C00008331A601A1D126803681A43204B0C330F
:1049D0001A600DE01E49427911440A6803681A43BF
:1049E0000A6005E0027911440A6803689A430A6084
:1049F00070470021016001710C214171002181711A
:104A000070471349103109680143114A103211608F
:104A10007047014600200E4A143212680A400AB15B
:104A2000012000E0002070470949143108607047F8
:104A300001460020064A143212680A400AB10120D9
:104A400000E0002070470249143108607047000000
:104A5000003C0140FFFF7F0010B50446FB48844244
:104A600008D101218014FEF7BAFA0021A014FEF744
:104A7000B6FA3CE0F648844208D101210014FEF762
:104A80009DFA00212014FEF799FA30E0F1488442A3
:104A900008D10121C013FEF791FA0021E013FEF7BF
:104AA0008DFA24E0EC48844208D101214014FEF73D
:104AB00096FA00216014FEF792FA18E0E748844263
:104AC00009D101210805FEF78AFA00214FF4801070
:104AD000FEF785FA0BE0E248844208D1012148053F
:104AE000FEF77DFA00214FF40010FEF778FA10BDB2
:104AF00010B50022028802F441520B884C882343EF
:104B00008C882343CC8823430C8923434C8923433B
:104B10008C892343CC8923431A430280838B4FF231
:104B2000FF74234083830B8A038210BD2DE9F04F6D
:104B30000025022300244FF001090022002600274F
:104B400094469046B0F81CA04FF2400B0AEA0B0ABC
:104B5000A0F81CA04FF0020AA0F820A0858BD1F885
:104B600008A0BAF1020F01D100BF82E0B1F804A0A1
:104B7000BAF1000F02D14FF0010901E04FF0020934
:104B8000DFF8E0A2DAF800A00AF4000ABAF1000F98
:104B900009D0DFF8D0A2DAF800A02AF4000ADFF882
:104BA000C4B2CBF800A0DFF8BCA20AF17C0ADAF8A4
:104BB00000A0CAF3881CDFF8ACA20AF17C0ADAF87C
:104BC00000A0CAF30278DFF89CA2AAF1040ADAF87E
:104BD00000A00AF03F07DFF88CA2AAF1040ADAF875
:104BE00000A00AF4800ABAF5800F08D1DFF878A295
:104BF000BAFBF7FA0AFB0CFABAFBF8F607E0DFF8A3
:104C00006CA2BAFBF7FA0AFB0CFABAFBF8F6B1F899
:104C100006A0BAF5007F0ED14FEA162A0AEB8A0ADF
:104C20004FEA4A0AD1F808B0BAFBFBFA0AF1050AC2
:104C30001FFA8AF20FE04FEA491AB6FBFAFA0AEBBA
:104C40008A0A4FEA4A0AD1F808B0BAFBFBFA0AF11D
:104C5000050A1FFA8AF24FF00A0AB2FBFAF202F0D2
:104C60000104A2EB040ACAF34F034FF6FF7A0AEAE3
:104C70000424022B01DBFF2B01DD02230024B1F809
:104C800006A04AEA040A4AEA030AA0F820A0B1F8FA
:104C900004A0B1F80CB04AEA0B0AB1F802B04AEA33
:104CA0000B0AB1F800B04AEA0B0A4AF4006A4AEA71
:104CB00005058583BDE8F08F00210180418081805A
:104CC000C180018141818181C181072101827047B9
:104CD0000021018041808180C1800221816000210A
:104CE0008181704721B1028842F04002028004E0D5
:104CF00002884FF6BF731A400280704721B1828B41
:104D000042F48062828304E0828B4FF6FF331A40C4
:104D10008283704702884FF2FF731A400280028834
:104D20000A4302807047B1F5804F04D1028842F4F3
:104D30008042028004E002884BF6FF731A40028032
:104D400070474FF6FF62914204D0028842F48072AD
:104D5000028004E002884FF6FF631A400280704729
:104D600021B1828842F00402828004E082884FF6FA
:104D7000FB731A408280704721B1828842F0100292
:104D8000828004E082884FF6EF731A408280704779
:104D900030B500220023848B4FF240052C408483E1
:104DA00002240484828B0C88B4F5007F01D00C8827
:104DB00014B94FF4807308E00C88B4F5407F03D039
:104DC0000C88B4F5807F00D100238C888D892C431A
:104DD0004D882C431C4344F400642243828330BD3D
:104DE0000146888970478181704721B1028842F469
:104DF0000052028004E002884DF6FF731A400280E0
:104E00007047018841F480510180704702460020BC
:104E1000012901D0108B00E0908A70470146088A72
:104E200070471AB183880B43838002E083888B43E9
:104E30008380704730B5002400230C110125A54064
:104E4000ABB2AAB185881D43858014E000300140D3
:104E500000380040003C0040003401400050014058
:104E6000005401400838024000127A000024F40087
:104E700085889D43858030BD0246002013890B4004
:104E80000BB1012000E000207047CA430281704747
:104E9000F0B50246002000240023002501F00F0792
:104EA0000126BE40B4B20B1101269E40B3B29688D3
:104EB00006EA03051689264016B10DB1012000E06F
:104EC0000020F0BD10B5002201F00F040123A34023
:104ED0009AB2D343038110BD016821F00101016042
:104EE0000021016041608160C16001612121416157
:104EF000DB49884204D13D21D94A103A91608CE0C7
:104F0000D7491831884205D14FF47461D44A103A18
:104F1000916082E0D2493031884205D14FF474115A
:104F2000CF4A103A916078E0CD494831884205D1A6
:104F30004FF07461CA4A103A91606EE0C84960311E
:104F4000884204D1C749C64A103AD16065E0C449D5
:104F50007831884204D1C449C14A103AD1605CE03A
:104F6000BF499031884204D1C049BD4A103AD1604E
:104F700053E0BB49A831884205D14FF03D51B84AB2
:104F8000103AD16049E0BA49884204D13D21B84A7B
:104F9000083A116041E0B6491831884205D14FF412
:104FA0007461B34A083A116037E0B1493031884240
:104FB00005D14FF47411AE4A083A11602DE0AC49A6
:104FC0004831884205D14FF07461A94A083A11600E
:104FD00023E0A7496031884204D1A249A44A121FA4
:104FE00011601AE0A2497831884204D19E49A04A52
:104FF000121F116011E09E499031884204D19B49F3
:105000009B4A121F116008E09949A831884204D1D7
:105010004FF03D51964A121F1160704710B50022A3
:105020000268944B1A40CC680B6823434C692343B5
:105030008C692343CC6923430C6A23434C6A234382
:105040008C6A23434C6B23438C6B23431A430260CB
:10505000426922F00702D1E90B3423431A4342612B
:105060000B6943604B6883608B68C36010BD00218F
:10507000016041608160C160016141618161C16124
:10508000016241628162C162016341638163704771
:1050900021B1026842F00102026003E0026822F0DE
:1050A00001020260704721B1026842F400420260CE
:1050B00003E0026822F400420260704721B10268F6
:1050C00042F02002026003E0026822F02002026047
:1050D0007047416070470146486880B2704722B10E
:1050E000036843F40023036003E0036823F4002310
:1050F00003600161704721B1026842F480220260BE
:1051000003E0026822F48022026070470AB1016164
:1051100000E0C1607047014600200A6802F40022E6
:105120000AB1012000E000207047014600200A6813
:1051300002F001020AB1012000E0002070470146A0
:1051400000204A6902F03800704730B503460A462D
:1051500000200024464DAB4202D24149103901E003
:105160004349103902F000550DB14C6800E00C685D
:10517000414D2C4004EA02050DB1012000E0002061
:1051800030BD02463A4B9A4202D23548103801E00F
:105190003748103801F000531BB1374B0B40C36048
:1051A00002E0354B0B408360704710B501F080037F
:1051B0004BB122B1436943F08003436103E043698B
:1051C00023F08003436180290BD02AB1036801F0EA
:1051D0001E042343036004E0036801F01E04A3439C
:1051E000036010BD70B50246002000240025204E4B
:1051F000B24202D21A4B103B01E01D4B103B1F4E36
:105200000E4036B11E2606EAD124166806EA0405C9
:1052100002E0566906F0800501F000560EB15C68A8
:1052200000E01C68144E344004EA010616B10DB1CA
:10523000012000E0002070BD02460D4B9A4202D2D0
:105240000748103801E00A48103801F000531BB13C
:10525000094B0B40C36002E0074B0B408360704773
:10526000106002403D000020400F002000003D2063
:10527000106402403F801CF07D0F7D0F3C0F3C0FFF
:105280000E49086070470D49486070470B498860B7
:1052900070474AF6AA200949086070474CF6CC408E
:1052A00006490860704701460020044AD2680A4057
:1052B0000AB1012000E000207047000000300040EB
:1052C0007CB5002514E06946284602F0C1F906467F
:1052D00066B9F84850F8254044B1012C06D0D4E90D
:1052E000020100EB810060640198A064681CC5B2F3
:1052F0003F2DE8D97CBD002400BF02E0282002F049
:10530000B1FAED4800780028F8D0EC480068642134
:10531000B0FBF1F0E94908600846006828B90020B0
:10532000E7490870FF2002F0D5F900BF02F08CFEBB
:105330000446E4480068E44908600020E149086048
:10534000204602F085FEE0480068DC490968B0FBB1
:10535000F1F0C0F16400DA49087002F0E1FEFFF7F5
:10536000AFFF142002F07EFAE0E700B587B003201B
:1053700000218022D54BCDE90132CDE903104FF653
:10538000FE703E23D24A0090AFF2950001F079FF03
:1053900006AAD0A13E2002F0DDF807B000BD00242F
:1053A00000BF00BF02F050FE0446C6480068401C23
:1053B000C4490860204602F04BFE02F0B0FEF1E75F
:1053C00000B587B0032000218022C64BCDE9013211
:1053D000CDE903104FF6FF703F23C34A0090AFF2B0
:1053E000410001F04EFF06AAC0A13F2002F0B2F832
:1053F00007B000BD04E0002200F8012B4A1E91B264
:105400000029F8D1704770B5C821BC48FFF7F2FFFA
:1054100000230FE0581C85B203EB8300B74901EB72
:10542000800405EB850001EB80060020207066609B
:10543000581C83B2092BEDD303EB8300AF4901EB7A
:1054400080040020207060600846AD49086070BD8F
:1054500070B54FF4E761AB48FFF7CCFF4FF48071B4
:105460009448FFF7C7FF002413E0601CC5B2C4EBEB
:10547000C40000EB4000A34901EB8003C5EBC5006D
:1054800000EB400001EB80065E619FA0D864601CC9
:10549000C4B2152CE9D3C4EBC40000EB4000994919
:1054A00001EB80030020586197A0D8640020974941
:1054B000086094489649086070BD0021954A1170B3
:1054C000002004E00021944A1154411CC8B208286D
:1054D000F8D30021914A1170914A1170914A1160DC
:1054E000914A116070470020904908609049087007
:1054F0009049087090490870904908709049086078
:1055000070490860704908606C4908606A49087011
:10551000704710B502F0FCFDFFF7E5FFFFF7CDFF88
:10552000FFF796FFFFF76FFF00F0ECFE01F0C9FBFD
:10553000FFF746FFFFF719FF02F01AFD02F0ECFD3E
:1055400010BD7E480078012808D179480078FF28EE
:1055500004D277480078401C754908707047794933
:105560006C4A1278885C6C49095C764A515C01EBA4
:10557000C0016B4A1170704710B500246F48007865
:10558000012830D102F060FD04466948007820B15E
:1055900067480078401E6649087065480078F8B989
:1055A00064480078E0B9FFF7DAFF42485C490978BF
:1055B00050F821005B49086059480078574909783C
:1055C00088420DD057480068806B401C55490968D7
:1055D00088635B480068401C5949086002F054FD2C
:1055E000204602F035FD10BD10B500245348007868
:1055F000012811D102F028FD04464D48007840B939
:105600004C480078FF2804D24A480078401C494999
:105610000870204602F01CFD10BD10B5002402F0F9
:1056200013FD044642480078F8B942480078E0B9D2
:10563000FFF795FF1F483A49097850F8210039498A
:105640000860374800783549097888420DD03548D8
:105650000068806B401C33490968886338480068DB
:10566000401C3749086002F008FD204602F0F0FCBB
:1056700010BD10B500243148007801286FD102F028
:10568000E3FC04462B48007880B12A480078401E8D
:10569000284908700846007848B92548007838B984
:1056A000204602F0D5FCFFF7B8FF58E054E04FE089
:1056B0004AE0000090A10020DC040020D404002077
:1056C000D0040020EC040020D8040020909D00208D
:1056D0008C9F002075432F4F532D494920537461EF
:1056E00074000000909F00208CA1002075432F4F74
:1056F000532D49492049646C65000000789C0020C6
:10570000C804002090A200203F000000FC040020FC
:10571000F4040020E1040020E2040020DF04002063
:10572000E0040020F8040020F00400200805002018
:10573000DD040020DE040020EB040020EA04002049
:10574000C4040020BE860208204602F081FC06E068
:10575000204602F07DFC02E0204602F079FC10BDFC
:1057600010B5EB48007890B9FFF7F9FEE9480078EA
:10577000E9490870E948E749097850F82100E84903
:10578000086008460068E749086002F064FC10BD44
:1057900010B50024022002F065F802F055FC044622
:1057A0000020E1490860204602F052FC142002F07B
:1057B00059F802F049FC0446DB480068DB49086000
:1057C0000120DB490870204602F042FC10BD70B594
:1057D000002602F07DFD02F037FC0646D548006841
:1057E000401CD4490860304602F032FCC8480078BA
:1057F000012853D1D048007820B1012804D00228D4
:1058000009D103E001250BE0002509E00125012075
:10581000C949087004E001250020C749087000BF8D
:1058200000BF05B970BDC548046833E002F00CFC48
:105830000646E06A50B3E06A401EE062E06A28BBB8
:1058400094F8300000F0370040B114F8300F00F049
:10585000C800207001206070303C02E0002084F815
:10586000310094F8300000F0080078B93434A078A2
:10587000B34909780843B24908702078B149085CF7
:105880006178084314F83419AE4A505464693046BC
:1058900002F0DEFB94F832003F28C7D100BFC1E719
:1058A00040F223107047704710B590F8342001F192
:1058B0000B039B5C90F83540A34301F10B04A35408
:1058C00023469B5C23B98B7A90F83640A3438B72B6
:1058D00010BD2DE9F04F05460F4690469946A87A2F
:1058E00099490E5C05F10B00805D11F800B00BEBDF
:1058F000C60000F0FF0A894850F82A4000202034F2
:10590000E0602760207C20EA0800207484F8119071
:10591000207C203C00F0080068B994F836008849E3
:1059200009780843864908708648805D94F83510E8
:1059300008438449885529462046FFF7B5FF50465D
:10594000BDE8F08F10B5774A1268D061754A1268C9
:1059500092F8343000F10B02D25C724B1B6893F862
:1059600035301A436F4B1B6893F8344000F10B033A
:105970001A55827A6B4B1B6893F836301A43827241
:10598000684A126892F834106E4A525C654B1B6884
:1059900093F835309A436B4B5A541A46525C42B9CD
:1059A000604A126892F83630654A12789A43644B1E
:1059B0001A7010BD014600228A72002005E0002303
:1059C00001F10B021354421CD0B20828F7D37047E0
:1059D00005E011F8013B00F8013B531E9AB2002A82
:1059E000F7D170470146002002E0491C421CD0B2AA
:1059F0000A78002AF9D170472DE9F84F05460F467D
:105A000090469946DDE90AAB0020009002F01CFBAD
:105A100000904E480468002C75D0183454F8040CDB
:105A20004A490860009802F013FB44F8187CA576F8
:105A3000002020766076606144F814BC44F80CAC19
:105A400044F8108C0C9824F8080C24F8069C0020CC
:105A5000E077E810207705F00700E076217F01204D
:105A60008840A077E17E0120884060770020606058
:105A7000E060A0602062A0626062E0622063AFF23A
:105A800078306063183C002606E0002104F15000E5
:105A900040F82610701CC6B2002EF6D0204602F048
:105AA00016FC204602F039FB02F0CEFA00901B48AB
:105AB00040F825402148006860610020A0611F482F
:105AC000006810B11D48006884611C4804603434CB
:105AD000A0781B49097808431949087020781949AA
:105AE000085C6178084314F83419164A5054184871
:105AF0000078401C16490870009802F0A9FA0020AE
:105B0000BDE8F88FFFE7009802F0A2FA4220F7E71D
:105B1000EA040020E0040020DF04002090A100201F
:105B2000F8040020F0040020EC040020D40400203D
:105B3000DC0400200805002000050020FC040020F3
:105B4000E1040020E2040020BE860208F4040020E4
:105B5000EB0400202DE9F05F04460F4691461E46F7
:105B60004FF0000B2078052804D001203070002071
:105B7000BDE8F09F09F0800ABAF1000F04D029F0C7
:105B800080094FF0010801E04FF00008002030705C
:105B900002F05AFA8346B9F1000F2CD0B9F1010F87
:105BA0003BD0B9F1020F03D0B9F1030F46D111E098
:105BB000208900EA0705BD4206D1B8F1010F05D1E1
:105BC0002089A843208101E070203070584602F0FF
:105BD0003FFA3AE0208900EA070535B1B8F1010F34
:105BE00005D12089A843208101E0702030705846FB
:105BF00002F02EFA29E0208927EA0005BD4206D1ED
:105C0000B8F1010F05D120892843208101E07020DF
:105C10003070584602F01CFA17E0208927EA000588
:105C200035B1B8F1010F05D120892843208101E069
:105C300070203070584602F00BFA06E0584602F029
:105C400007FA00256F20307000BF00BF28468FE79D
:105C50002DE9F04106460D460027FA48007820B1AC
:105C6000102028700020BDE8F08102F0EDF9074611
:105C7000F548046884B100684068F349086005206D
:105C80002070268100206060F0A0E060384602F0BD
:105C9000DFF90020287004E0384602F0D9F97220BC
:105CA00028702046DFE730B501464A6808682AB9FF
:105CB000CC68606028B10025456002E0106000B14A
:105CC00042608B6800255D6230BDF0B506460F4628
:105CD000B4680020283460602780207A00F0DF005C
:105CE000207200206072207A283C88B93434A07871
:105CF000D74909780843D64908702078D549085C07
:105D00006178084314F83419D24A5054012500E050
:105D100000253046FFF7C7FF2846F0BD2DE9F047C4
:105D20000446894615464FF0000AC648007820B15F
:105D30000F2028702046BDE8F0872078052803D082
:105D4000012028702046F6E702F07EF9824660685E
:105D500008B1012700E00027B9F1000F03D0B9F125
:105D6000010F3CD119E08FB9B8A0E060002020708D
:105D7000B5480068606000202081B3480460504648
:105D800002F066F900202870002605E0504602F077
:105D90005FF949202870264628E0D4F8048005E001
:105DA00000214046FFF791FFD8F80080B8F1000FBE
:105DB000F6D1A6A0E06000202070A34800686060D3
:105DC00000202081A0480460504602F041F9012FD4
:105DD00001D1FFF722FC00202870002606E0504683
:105DE00002F036F907202870264600BF00BF304673
:105DF000A1E72DE9F04105460E46144600279148DB
:105E0000007820B1112020700020BDE8F08102F060
:105E10001BF907462878052806D0384602F018F9FD
:105E2000012020700020F0E7E86830603068FFF75C
:105E3000D9FD8046384602F00BF90020207040461C
:105E4000E3E72DE9F04105460E46144600277D485C
:105E5000007818B112202070BDE8F08102F0F4F84B
:105E600007462878052805D0384602F0F1F80120C9
:105E70002070F1E7EE60384602F0EAF8002020706A
:105E800000BFE9E7F0B51446059E734F3F6897F8E9
:105E9000307047F02007DFF8C0C1DCF800C08CF894
:105EA00030700027DFF8B0C1DCF800C08CF831702A
:105EB000694F3F68FE62684F3F6879620C828B745D
:105EC000654F3F688F6047680F6000274F60C8606C
:105ED000456805B1696041605F4F3F6897F83420BD
:105EE0005C4FBF5CDFF870C1DCF800C09CF835C0C7
:105EF00027EA0C07DFF85CC10CF802706746BF5C4C
:105F00005FB9554F3F6897F836C0514F3F7827EA41
:105F10000C07DFF83CC18CF80070F0BD2DE9F04FA4
:105F200089B005460F4691469A46129E002002907F
:105F30004448007828B102203070002009B0BDE844
:105F4000F08F4648007818B10D2030700020F5E73A
:105F50002878052803D0012030700020EEE709F0F2
:105F6000800BBBF1000F04D009F07F094FF001084E
:105F700001E04FF0000802F067F80290B9F1000F5D
:105F80004AD0B9F1010F78D0B9F1020F03D0B9F1BD
:105F9000030F71D120E0288900EA0704BC420FD129
:105FA000B8F1010F02D12889A04328812A4800684E
:105FB0000485029802F04CF8002030702046BDE7BE
:105FC0004B463A4604A92846CDF800A0FFF75AFFF1
:105FD000029802F03DF878E0288900EA07047CB1D5
:105FE000B8F1010F02D12889A04328811A4800681E
:105FF0000485029802F02CF80020307020469DE7BE
:106000004B463A4604A92846CDF800A0FFF73AFFD0
:10601000029802F01DF858E0288927EA0004BC42E3
:106020001ED1B8F1010F02D12889204328810A48E6
:1060300000680485029802F00BF8002030702046BA
:106040007CE71AE0DD040020CC0400203F000000C3
:10605000E1040020E2040020F0040020DE0400201F
:106060004B463A4604A92846CDF800A0FFF70AFFA0
:10607000029801F0EDFF28E01FE0288927EA0004DC
:106080007CB1B8F1010F02D1288920432881B148A1
:1060900000680485029801F0DBFF00203070204684
:1060A0004CE74B463A4604A92846CDF800A0FFF736
:1060B000E9FE029801F0CCFF07E0029801F0C8FF6A
:1060C00000246F203070204638E700BFFFF7A5FAA4
:1060D00001F0BAFF02909F48006890F8310020B3A9
:1060E0009C48006890F831000390002099490968A5
:1060F00081F8310004A8FFF7D6FD00209549096812
:1061000081F83000029801F0A3FF002403980128D1
:1061100005D0022802D10E20307003E000BF0A2013
:10612000307000BF00BF204608E78A480068048D31
:10613000B8F1010F1ED1B9F1000F0ED0B9F1010F66
:106140000CD0B9F1020F03D0B9F1030F0AD100E06E
:1061500000BF2889A04328810BE000BF2889204385
:10616000288106E0029801F073FF6F203070002054
:10617000E4E600BF029801F06BFF0020307020467B
:10618000DCE670B5002501F05FFF05467148006848
:10619000048D284601F05CFF204670BD2DE9FC5FB0
:1061A0000446894692461E46002000902078052825
:1061B00004D0012030700020BDE8FC9F01F044FFB6
:1061C0000090BAF1000F03D0BAF1010F0AD104E038
:1061D000208920EA090020810BE0208940EA09009B
:1061E000208106E0009801F033FF7120307000201C
:1061F000E2E700BF4FF0000B656855E0A87C40B3B4
:10620000012838D0022802D0032844D111E0208987
:10621000298A00EA0107288AB84209D13946284666
:10622000FFF753FD8046B8F1010F01D14FF0010B8C
:1062300038E02089298A00EA01074FB1394628460B
:10624000FFF743FD8046B8F1010F01D14FF0010B7C
:1062500028E0288A218920EA0107288AB84209D142
:1062600039462846FFF731FD8046B8F1010F01D1CC
:106270004FF0010B16E0288A218920EA01074FB16F
:1062800039462846FFF721FD8046B8F1010F01D1BC
:106290004FF0010B06E0009801F0DAFE6F2030703D
:1062A000002089E700BF2D68002DA7D1009801F0DC
:1062B000CFFEBBF1010F01D1FFF7AFF901F0C4FE32
:1062C000009020890190009801F0C2FE00203070FB
:1062D000019871E72DE9F04104460D46002720782A
:1062E000052804D0012028700020BDE8F08101F0CD
:1062F000ABFE07462689384601F0AAFE002028702A
:106300003046F2E72DE9F04150211348FFF772F8CB
:1063100000250EE0681C86B20F4800EB051400EB68
:106320000617002020706760AFF2E020E060681C74
:1063300085B2042DEED3084800EB05140020207030
:106340006060AFF2F820E060034804490860BDE8EF
:10635000F0810000F0040020409D0020CC040020CB
:1063600070B5044600262078012801D0002070BDB9
:1063700001F06AFE0646656800206060304601F064
:1063800067FE2846F3E770B505460026E348007827
:1063900008B1002070BD01F057FE0646E0480468D1
:1063A000006820B1DE4800684068DD49086030467A
:1063B00001F04EFE3CB1012020700020208165607C
:1063C0002046FFF7F7FA2046E4E72DE9F0470446B8
:1063D000884615464FF000092078012804D0012096
:1063E00028702046BDE8F087CC48007818B10F200F
:1063F00028702046F6E701F027FE8146A07A08B112
:10640000012700E00027B8F1000F03D0B8F1010F19
:1064100035D117E07FB900202070C1480068606066
:1064200000202081BE480460484601F011FE002093
:106430002870002605E0484601F00AFE4920287031
:10644000264623E005E00023022219462046FFF7F6
:1064500040FAA07A0028F6D12070B1480068606048
:1064600000202081AE480460484601F0F1FD012F74
:1064700001D1FFF7D2F800202870002606E0484638
:1064800001F0E6FD07202870264600BF00BF304619
:10649000A8E72DE9F04105460F4614464FF00008E5
:1064A0002878012804D0012020700020BDE8F08168
:1064B0009A48007818B1022020700020F6E7994829
:1064C000007818B10D2020700020EFE701F0BCFD2E
:1064D00080466E6846B100206860404601F0B8FD15
:1064E000002020703046E1E78F48006890F83000C7
:1064F00040F002008C49096881F8300000208A4988
:10650000096881F8310088480068C7622846FFF7AB
:1065100019FA404601F09CFDFFF77FF801F094FD69
:1065200080468148006890F8310020B101280DD0E4
:1065300002280AD105E07C480068066A0020207025
:106540000DE000260E20207009E000BF29467648A5
:106550000068FFF7A9F900260A20207000BF00BFDD
:1065600000207149096881F830006F49096881F895
:1065700031006D490968C8616B4909680862404685
:1065800001F066FD304691E72DE9F04104460F46E3
:1065900015464FF000082078012804D0012028700B
:1065A0000020BDE8F08101F04FFD8046A07A20B3C5
:1065B00000267FB1012F0CD107E002231A460021EB
:1065C0002046FFF786F9701CC6B2A07A0028F4D1E5
:1065D00009E000BF02231A4600212046FFF779F99F
:1065E000701CC6B200BF00BF404601F031FDFFF78E
:1065F00014F80E2028703046D3E7404601F028FDFD
:106600000020287000BFCCE770B504460D46002678
:106610002078012801D0012070BD01F015FD06464B
:10662000A07A60B10023022229462046FFF751F9E3
:10663000304601F00DFDFEF7F0FF0020ECE760684A
:1066400020B1304601F004FD1420E5E765603046D6
:1066500001F0FEFC0020DFE72DE9F04104460E4684
:10666000154600272078012802D00120BDE8F081DE
:1066700001F0EAFC0746A07AE8B105F0010050B14C
:1066800005E00023022231462046FFF722F9A07AD6
:106690000028F6D105E00023022231462046FFF70C
:1066A00018F9384601F0D4FC05F0040008B9FEF7EB
:1066B000B4FF0020DAE7606820B1384601F0C8FC7A
:1066C0001420D3E76660384601F0C2FC0020CDE715
:1066D0002DE9F04704460D464FF0000920780128C7
:1066E00002D00120BDE8F08701F0AEFC8146A07A1F
:1066F000287304F10B0705F10408002605E017F8DC
:10670000010B08F8010B701CC6B2082EF7D36068A5
:106710002860484601F09CFC0020E3E7DD040020EF
:10672000C8040020DE040020F00400202DE9F04120
:1067300006460D464FF000083078022804D00120AC
:1067400028700020BDE8F08101F07EFC804674686E
:10675000E08A78B12169081D20610F68E08A401E37
:10676000E082A1682069884201D160682061002030
:10677000287002E01F2028700027404601F068FCC6
:106780003846DFE72DE9F04106460F464FF0000896
:10679000F748007810B10020BDE8F08101F054FC0A
:1067A0008046F4480568006820B1F24800684068F7
:1067B000F0490860404601F04BFC3DB301F044FC59
:1067C0008046ED480468C4B100680068EA49086082
:1067D000404601F03DFC666006EB8700A060E66085
:1067E0002661A7820020E0820220287000202881F4
:1067F0006C602846FFF7DEF808E0DE480068686055
:10680000DC480560404601F023FC00252846C3E72C
:106810002DE9F0470446894615464FF0000A2078D6
:10682000022804D0012028702046BDE8F087D04817
:10683000007818B10F2028702046F6E701F004FC1C
:106840008246A07A10B14FF0010801E04FF0000835
:10685000B9F1000F03D0B9F1010F45D11FE0B8F134
:10686000000F15D16668C44800683060C2480660F1
:1068700000202070BF480068606000202081BD4873
:106880000460504601F0E4FB00202870002705E07A
:10689000504601F0DDFB4920287027462BE005E03B
:1068A0000023042219462046FFF713F8A07A002897
:1068B000F6D16668B04800683060AF4806600020D6
:1068C0002070AC480068606000202081A948046006
:1068D000504601F0BDFBB8F1010F01D1FEF79DFE5E
:1068E00000202870002706E0504601F0B1FB072089
:1068F0002870274600BF00BF384696E770B50546AA
:10690000002601F0A1FB06466C686068E0606068E4
:1069100020610020E082304601F09AFB002070BD2B
:106920002DE9F0470746884615464FF000093878AC
:10693000022804D0012028700020BDE8F0878C4890
:10694000007818B1022028700020F6E78B48007804
:1069500018B10D2028700020EFE701F075FB81468B
:106960007C68E08A98B12169081D20610E68E08A80
:10697000401EE082A1682069884201D160682061E0
:10698000484601F065FB002028703046D5E77C487A
:10699000006890F8300040F004007949096881F8F7
:1069A000300000207649096881F831007448006899
:1069B000C0F82C803846FEF7C5FF484601F048FB7A
:1069C000FEF72BFE01F040FB81466D48006890F811
:1069D000310020B101280DD002280AD105E0684815
:1069E0000068066A002028700DE000260E2028703E
:1069F00009E000BF394662480068FEF755FF0026EF
:106A00000A20287000BF00BF00205D49096881F896
:106A100030005B49096881F8310059490968C8614B
:106A2000574909680862484601F012FB304684E77E
:106A30002DE9F04104460F4615464FF00008207836
:106A4000022804D0012028700020BDE8F08101F068
:106A5000FBFA8046A07A20B300267FB1012F0CD12B
:106A600007E00223042200212046FEF732FF701CBB
:106A7000C6B2A07A0028F4D109E000BF02230422A4
:106A800000212046FEF725FF701CC6B200BF00BFE4
:106A9000404601F0DDFAFEF7C0FD0E2028703046BA
:106AA000D3E7404601F0D4FA0020287000BFCCE7BD
:106AB0002DE9F04105460E4600272878022802D02D
:106AC0000120BDE8F08101F0BFFA0746A87A60B165
:106AD0000023042231462846FEF7FBFE384601F02B
:106AE000B7FAFEF79AFD0020EBE76C68E08AA18A0E
:106AF000884204DB384601F0ABFA1E20E1E7E1688A
:106B0000081DE0600E60E08A401CE082D4E90210BB
:106B1000884201D16068E060384601F099FA0020AF
:106B2000CFE72DE9F04105460E46002728780228D8
:106B300002D00120BDE8F08101F086FA0746A87A6C
:106B400060B10023042231462846FEF7C2FE3846D3
:106B500001F07EFAFEF761FD0020EBE76C68E08A49
:106B6000A18A88420EDB384601F072FA1E20E1E766
:106B7000DD040020C804002004050020DE040020FD
:106B8000F004002061682069884201D1A06820617A
:106B90002069001F206120690660E08A401CE082B5
:106BA000384601F055FA0020C4E72DE9F0410546CA
:106BB0000F4616464FF000082878022802D0012020
:106BC000BDE8F08101F040FA8046A87AE8B106F00D
:106BD000010050B105E00023042239462846FEF7A3
:106BE00078FEA87A0028F6D105E000230422394671
:106BF0002846FEF76EFE404601F02AFA06F0040031
:106C000008B9FEF70AFD0020DAE76C68E08AA18A7D
:106C1000884204DB404601F01BFA1E20D0E706F054
:106C2000020058B161682069884201D1A0682061E2
:106C30002069001F20612069076009E0E168081DE4
:106C4000E0600F60D4E90210884201D16068E06022
:106C5000E08A401CE082404601F0FAF90020AFE7EC
:106C60002DE9F04705460C464FF0000A2878022827
:106C700002D00120BDE8F08701F0E6F98246A87A4B
:106C8000207405F10B0804F10809002705E018F845
:106C9000010B09F8010B781CC7B2082FF7D36E68F7
:106CA000F08A18B130690068206001E0002020609F
:106CB000F08AA080B08AE080504601F0C9F9002037
:106CC000D8E72DE9F04178211048FEF793FB002426
:106CD0000DE0601C86B204EB44000C4901EBC005DA
:106CE00006EB460001EBC0072F60601C84B2042C49
:106CF000EFD304EB4400054901EBC00500202860F8
:106D0000084603490860BDE8F0810000C8A90020DA
:106D10000405002070B5044600262078032801D021
:106D2000002070BD01F090F90646258915B1208933
:106D3000401E2081304601F08BF92846F1E770B5FE
:106D400005460026D248007808B1002070BD01F049
:106D50007BF90646CF480468006820B1CD4800683A
:106D60004068CC490860304601F072F93CB103201C
:106D700020702581002060602046FEF71BFE204623
:106D8000E4E72DE9F0470446884615464FF0000930
:106D90002078032804D0012028702046BDE8F08721
:106DA000BB48007818B10F2028702046F6E701F0A4
:106DB0004BF98146A07A08B1012700E00027B8F11D
:106DC000000F03D0B8F1010F35D117E07FB90020D3
:106DD0002070B0480068606000202081AD480460E9
:106DE000484601F035F900202870002605E04846A5
:106DF00001F02EF949202870264623E005E0002303
:106E0000012219462046FEF764FDA07A0028F6D13B
:106E10002070A04800686060002020819D480460C8
:106E2000484601F015F9012F01D1FEF7F6FB0020CD
:106E30002870002606E0484601F00AF9072028706D
:106E4000264600BF00BF3046A8E72DE9F0410546C1
:106E50000E46144600272878032803D0012020700E
:106E6000BDE8F0818A48007810B102202070F7E771
:106E70008948007810B10D202070F1E701F0E4F8A6
:106E80000746288940B12889401E2881384601F0EC
:106E9000DFF800202070E3E78048006890F83000B9
:106EA00040F001007D49096881F8300000207B49ED
:106EB000096881F8310079480068C6622846FEF703
:106EC00041FD384601F0C4F8FEF7A7FB01F0BCF81D
:106ED00007467248006890F8310020B1012809D0B7
:106EE000022806D102E0002020700BE00E20207066
:106EF00008E000BF294669480068FEF7D5FC0A2073
:106F0000207000BF00BF00206449096881F830008C
:106F10006249096881F8310060490968C8613846EA
:106F200001F096F800BF9BE72DE9F04104460F46BB
:106F300015464FF000082078032804D0012028705F
:106F40000020BDE8F08101F07FF88046A07A20B3F0
:106F500000267FB1012F0CD107E00223012200217E
:106F60002046FEF7B6FC701CC6B2A07A0028F4D109
:106F700009E000BF0223012200212046FEF7A9FC00
:106F8000701CC6B200BF00BF404601F061F8FEF7BA
:106F900044FB0E2028703046D3E7404601F058F8F5
:106FA0000020287000BFCCE770B50446002520788B
:106FB000032801D0012070BD01F046F80546A07AF3
:106FC00060B10023012219462046FEF782FC2846C4
:106FD00001F03EF8FEF721FB0020ECE720894FF698
:106FE000FF71884207D22089401C2081284601F089
:106FF0002FF80020DFE7284601F02AF83320DAE7EF
:107000002DE9F04704460D464FF00009207803288B
:1070100002D00120BDE8F08701F016F88146A07A81
:10702000A87204F10B0705F10208002605E017F825
:10703000010B08F8010B701CC6B2082EF7D320898B
:107040002880484601F004F80020E3E72DE9F041EC
:1070500004460E46154600272078032803D0012059
:107060002870BDE8F08100F0EFFF0746002028708F
:10707000208908B1268105E0A07A08B9268101E0BF
:1070800049202870384600F0E3FF00BFE9E7000020
:10709000DD040020C8040020DE040020F0040020ED
:1070A0002DE9FF5F814688460020009000F0CCFF6C
:1070B0000090F94850F8280030B1009800F0C8FF5F
:1070C000282004B0BDE8F09FB9F1FF0F03D1F348C9
:1070D000006890F83290F04850F8294024B90098A0
:1070E00000F0B6FF2920ECE7012C04D1009800F055
:1070F000AFFF4320E5E74FEAE80708F007000390F9
:107100000120B84000F0FF0A01210398814001F0FE
:10711000FF0B0020E04941F82900084640F82840CC
:1071200014F8346FA07802906078343C0190DC4809
:10713000815D01980140D1B1D948805D01998843B2
:10714000D74988550846805D28B9D6480078029905
:107150008843D4490870D348007840EA0A00D149EE
:107160000870CF48C05D40EA0B00CD49C855E569BD
:10717000D5B105F10B00805D0199884305F10B0144
:1071800088550846805D18B9A87A02998843A87284
:10719000A87A40EA0A00A87205F10B00C05D40EA37
:1071A0000B0005F10B01C85584F8328084F8347067
:1071B000039884F8330084F836A084F835B000983A
:1071C00000F046FFB8480078012801D1FEF725FA03
:1071D000002076E72DE9FE4F06460F4690461C46F6
:1071E0004FF0000900F030FF8146B048007828B128
:1071F000484600F02DFF3C20BDE8FE8FA64850F821
:10720000240060BB0120A44941F82400484600F056
:107210001FFF002342463946304600F082FF824677
:1072200000200090019003460246514602902046FD
:10723000FEF7E2FB054635B99B48007801280CD1E2
:10724000FEF7EBF909E000F0FFFE814600209249CD
:1072500041F82400484600F0FBFE2846CCE74846AB
:1072600000F0F6FE2820C7E702F0010343B102F068
:1072700002032BB102E0491E002308C00029FAD105
:1072800070472DE9F04F85B081468A4693461C46EB
:10729000DDE90F78129D0020039000F0D5FE0390E9
:1072A0008248007830B1039800F0D2FE3C2005B04F
:1072B000BDE8F08F784850F8240088BB012076495B
:1072C00041F82400039800F0C3FE2A4641463846A0
:1072D000FFF7CAFF2B465A465146484600F021FFA9
:1072E00004901198CDE9008002953A4620460E9B05
:1072F0000499FEF781FB064636B96B4800780128F1
:107300000CD1FEF78AF909E000F09EFE0390002000
:10731000614941F82400039800F09AFE3046C6E720
:10732000FFE7039800F094FE2820C0E72DE9F04124
:10733000054600275D48007810B14020BDE8F08187
:107340003F2D01D13E20F9E700F07EFE0746FF2DDC
:1073500003D15248006890F832504F4850F8254009
:1073600024B9384600F074FE4320E7E7012C04D12D
:10737000384600F06DFE3D20E0E714F8340F484930
:10738000085C617888432178454A505414F83409E0
:107390001146085C30B994F83610424800788843AA
:1073A00040490870E06918B12046E169FEF77CFAAF
:1073B000666A16B13046FEF776FC0020E06284F87B
:1073C000300084F831003A480078FF2804D2384869
:1073D0000078401C36490870384600F039FEFEF748
:1073E00062FA00F031FE07463148007820B130489B
:1073F0000078401E2E490870204600F08FFE2D4870
:107400000078401E2B4908700020234941F82500D0
:10741000A06930B900206169886127496069086006
:1074200005E0D4E905014861D4E9051088612348E5
:10743000006860612148046021A0E064384600F0E3
:1074400007FE19480078012801D1FEF7E6F8002070
:1074500074E72DE9F041044600273F2C02D13E207D
:10746000BDE8F081FF2C0BD100F0EEFD07460B4884
:10747000006890F83760384600F0EAFD3046EFE7E4
:1074800000F0E2FD0746044850F82450D5B93846CC
:1074900000F0DEFD4320E3E790A10020F00400208F
:1074A000E2040020E1040020EA040020DD040020C2
:1074B000DE040020EB040020FC040020F404002083
:1074C0003F000000012D04D1384600F0C1FD3D20F1
:1074D000C6E73F2085F83700384600F0B9FD0020A8
:1074E000BEE72DE9F04706460F4614464FF0000868
:1074F000D648007820B1112020700020BDE8F08728
:1075000000F0A2FD8046FF2E03D1D148006890F81C
:107510003260D04850F8265035B9404600F098FD0A
:10752000432020700020E9E7012D06D1404600F0FD
:107530008FFD432020700020E0E7E86C3860386859
:10754000FEF750FA8146404600F082FD0020207090
:107550004846D3E72DE9F04106460F4614464FF062
:107560000008BA48007818B112202070BDE8F081F8
:1075700000F06AFD8046FF2E03D1B548006890F800
:107580003260B44850F826502DB9404600F060FDF6
:1075900043202070EAE7012D05D1404600F058FD58
:1075A00043202070E2E7EF64404600F051FD0020E8
:1075B000207000BFDAE770B50546002600F044FDF4
:1075C0000646A44850F8254024B9304600F040FD56
:1075D000462070BD012C04D1304600F039FD432017
:1075E000F7E794F8300000F0080060B314F8300FAB
:1075F00000F0F700207014F83009F8B9E06AC8B953
:107600003434A07894490978084393490870207865
:107610009249085C6178084314F834198F4A505431
:10762000304600F015FD8E480078012809D1FDF79D
:10763000F4FF06E0304600F00BFD02E0304600F0BB
:1076400007FD0020C5E7304600F002FD4420C0E7FA
:107650002DE9F04707460D464FF0000A002028604C
:10766000686000F0F1FC8246FF2F03D17848006883
:1076700090F83270774850F827402CB9504600F007
:10768000E7FC4320BDE8F087012C04D1504600F010
:10769000DFFC4320F6E7207C00F0010020B95046D3
:1076A00000F0D6FC4520EDE70026D4F80C90D4F885
:1076B0000880504600F0CCFC00E0761C58F8041B13
:1076C0000029FAD0B0002860A9EB060080006860AD
:1076D0000020D7E72DE9F04105464FF0000800F003
:1076E000B3FC8046FF2D05D15948006890F8325010
:1076F000012608E05648006890F83200A84201D1FF
:10770000012600E00026534850F825402CB9404699
:1077100000F09EFC4820BDE8F081012C04D14046D9
:1077200000F096FC4320F6E794F834704B48C05DB7
:1077300094F8351088434949C8550846C05D30B9AA
:1077400094F836104448007888434349087094F808
:10775000300040F0080084F83000404600F078FC2B
:10776000012E01D1FDF759FF0020D4E72DE9F041AA
:1077700005460E46002700F067FC0746FF2D03D1A3
:107780003348006890F83250324850F825402CB900
:10779000384600F05DFC2920BDE8F081012C04D1C1
:1077A000384600F055FC4320F6E754222146304687
:1077B000FEF70EF9384600F04BFC0020ECE72DE90F
:1077C000F04704460E4617464FF0000900F03CFC17
:1077D0008146FF2C02D11E48056802E01D4850F882
:1077E000245005F1500050F82680484600F030FC47
:1077F000002038704046BDE8F0872DE9F047044688
:107800000E46174698464FF0000900F01DFC8146D1
:10781000FF2C02D10E48056802E00E4850F82450B3
:1078200005F1500040F82670484600F011FC002099
:1078300088F80000BDE8F08710B50548006800F042
:1078400056FDFF20FFF772FD10BD0000DD04002093
:10785000F004002090A10020E1040020E2040020B8
:10786000EA04002070B5054600266348007800B1A0
:1078700070BD6248007800B1FAE71DB300F0E4FB88
:1078800006465F48006890F834405E48005D5C49F9
:10789000096891F8351088435A4908550846005D33
:1078A00040B95748006890F8361057480078884328
:1078B0005549087052480068C562304600F0C8FB60
:1078C000FDF7ABFE00BFD3E72DE9F04104460D46BE
:1078D00016461F464848007810B15520BDE8F08193
:1078E0004648007808B13220F8E7B81CC821484360
:1078F0004FF47A71B0FBF1F14FF461606043C5EB76
:10790000051200EB8200304400EBC00202EB0010D5
:1079100001EBC0084046FFF7A5FF0020DEE770B589
:10792000054600263F2D01D32A2070BD00F08CFBB8
:107930000646364850F8254024B9304600F088FB0A
:107940004320F2E7012C04D1304600F081FB4320B4
:10795000EBE7E06A20B9304600F07AFB5020E4E71C
:107960000020E06294F8300000F0370040B114F8D5
:10797000300F20F03700207001206070303C02E0B2
:10798000002084F8310094F8300000F00800A8B915
:107990003434A0781C49097808431B4908702078C2
:1079A0001849085C6178084314F83419154A505492
:1079B000304600F04DFBFDF730FE02E0304600F0AF
:1079C00047FB0020B1E770B5002500F03DFB054600
:1079D0000F480468284600F03BFB204670BD70B598
:1079E0000446002500F030FB05460948046028469F
:1079F00000F02EFB70BD0000DD040020DE0400203E
:107A0000F0040020E2040020E104002090A1002006
:107A100008050020FC48006808B900207047FA48B3
:107A20000168F94AC86810600020C8600861F7481A
:107A30000088401CF54A1080F5480088401EF44A32
:107A400010800846EAE72DE9F05F06460F469046AB
:107A50009946DDE90AAB0C9DEE48007820B18B20F9
:107A600028700020BDE8F09FFDF7BEFDFFF7D2FFB4
:107A700004462CB9FDF7FDFD862028700020F1E7B3
:107A8000012084F82500A661E76184F82480C4F809
:107A90000490C4F808A0C4F820B0FDF7EAFD002067
:107AA00028702046DEE7002180F8251080F8241099
:107AB000C161416141608160D7A101620021016122
:107AC000D1490968C160D0490860D0490988491E78
:107AD000CE4A1180CE490988491CCD4A1180704791
:107AE00030B5057D05F00704CC4D05EBC4031D68DA
:107AF000854205D1C168196039B100250D6104E0E6
:107B00000169C268CA6002B11161012580F825507F
:107B10000025C56005619D886D1E9D8030BD70B5D6
:107B200005460C462878642803D089202070002060
:107B300070BDB848007818B18B2020700020F7E79E
:107B4000FDF752FD95F82500D8B101280FD0022885
:107B50000ED003281BD12846FFF7C2FF2846FFF7A7
:107B6000A2FFFDF786FD002020700120E0E700BFA6
:107B70002846FFF798FFFDF77CFD002020700120CC
:107B8000D6E7FDF776FD872020700020D0E7FDF7CF
:107B900070FD8D2020700020CAE72DE9F0410546D8
:107BA0000E4614462878642804D0892020700020CE
:107BB000BDE8F0819748007818B1112020700020AE
:107BC000F6E7FDF711FD95F8250098B1012804D0DE
:107BD000022803D0032813D100BF00BF286A3060F9
:107BE0003068FDF7FFFE0746FDF743FD00202070DB
:107BF0003846DDE7FDF73DFD872020700020D7E700
:107C0000FDF737FD8D2020700020D1E770B50446C8
:107C10000D462078642803D089202870002070BD8C
:107C20007C48007818B18B2028700020F7E7FDF71A
:107C3000DBFC94F8250070B301280DD0022825D074
:107C400003282FD1764960690968461AFDF711FDAE
:107C5000002028703046E2E794F8240001280CD078
:107C6000022809D1A06908B9E66900E0A669FDF714
:107C700000FD0020287006E000BFA669FDF7F9FCB2
:107C80000020287000BF00BF3046C8E7FDF7F1FCB8
:107C900000202870C3E7FFE7FDF7EBFC8720287082
:107CA0000020BCE7FDF7E5FC8D2028700020B6E73A
:107CB00070B505460C462878642803D089202070CA
:107CC000002070BD5348007818B18B202070002030
:107CD000F7E7FDF789FC95F8256036B1012E05D050
:107CE000022E04D0032E06D102E000BF00BF00BF69
:107CF0000020207002E08D20207000BF00BFFDF743
:107D0000B8FC3046DDE770B50B46032580F82550FA
:107D1000012B05D1424EC5693668354445610CE0FA
:107D200085692DB93E4EC56936683544456104E024
:107D30003B4E8569366835444561057D05F007048D
:107D4000364D05EBC4010D682DB908600025C560EE
:107D500001258D8006E00A680860C26010618D8888
:107D60006D1C8D800025056170BD70B505460C4603
:107D70002878642803D089202070002070BD254811
:107D8000007818B18B2020700020F7E7FDF72CFC5D
:107D900095F82500E8B1012810D002280FD003285B
:107DA0001DD12846FFF79CFE00212846FFF7ABFFB8
:107DB000FDF75FFC002020700120DFE700BF0021FD
:107DC0002846FFF7A0FFFDF754FC0020207001209B
:107DD000D4E7FDF74EFC872020700020CEE7FDF7AA
:107DE00048FC8D2020700020C8E72DE9F0410546B1
:107DF0000F4690461C462878642813D089202070AE
:107E00000020BDE8F08100001C0500200E050020C8
:107E10000C050020DD0400203F000000C0AE002063
:107E2000100500207848007818B18B2020700020C1
:107E3000E7E7FDF7D9FB95F82500002832D00128A7
:107E40002AD0022827D0032832D12846FFF748FE3F
:107E500000202070B7B1032F02D0042F13D108E007
:107E60006E681EB12846A968B04701E08F202070D7
:107E70000CE06E681EB141462846B04701E08F20F5
:107E8000207003E002E08420207000BF00BFFDF7F7
:107E9000F0FB0120B5E700BFFDF7EBFB8E20207063
:107EA0000120AEE7FDF7E5FB872020700020A8E762
:107EB000FDF7DFFB8D2020700020A2E710B55348AE
:107EC0000068FFF771F80446204610BD08B500BFF2
:107ED00000BF6A4600214D480068FEF7B6FFFDF777
:107EE00083FB4B480068401C4949086008460078FD
:107EF00000F00708474800EBC8073C681AE0E6684E
:107F0000434960690968884213D12046FFF7E8FDBC
:107F100094F82400022804D101212046FFF7F3FE43
:107F200002E0022084F82500656815B12046A168AA
:107F3000A8473446002CE2D1FDF79BFBC9E700B50A
:107F400087B0032000218022334BCDE90132CDE9F7
:107F500003104FF6FD700B46304A00903048FFF793
:107F600090F906AA2FA10020FFF7F4FA07B000BD90
:107F70002DE9F0414FF420712E48FDF73BFA4021E6
:107F80002448FDF737FA002515E0681C86B205EB9A
:107F90008500284901EBC00406EB860001EBC00711
:107FA00064202070002084F82500E760AFF298106C
:107FB0002062681C85B20F2DE7D305EB85001D49B3
:107FC00001EBC00464202070002084F82500E060EC
:107FD000AFF2BC10206200200D49086016490880ED
:107FE0001020164908801348154908600120FEF743
:107FF000A6FE144908600020FEF7A1FE03490860B0
:10800000FFF79DFFBDE8F081DD040020180500208A
:1080100010050020C0AE0020C0AC0020BCAE002087
:10802000CD7E000875432F4F532D494920546D7262
:108030000000000040AA00200E0500200C050020D2
:108040001C05002014050020EFF3108072B6704765
:1080500080F310887047264C4FF6FF7525604FF06F
:10806000000484F30988234C4FF001052570224C4D
:108070004FF08055256062B6FEE730B41E4C4FF0DD
:108080008055256030BC704730B41B4C4FF0805594
:10809000256030BC704700BF72B6EFF3098050B165
:1080A0001EF0100F08BF20ED108A203880E8F00F76
:1080B00012490968086000B5114880475DF804EB73
:1080C000104811490A7802700C4810490A68026089
:1080D000106890E8F00F20301EF0100F08BFB0ECD1
:1080E000108A80F309884EF0040E62B6704700BF14
:1080F00022ED00E0EA04002004ED00E0F00400209E
:10810000CD820008DF040020E0040020F8040020F5
:108110000020774908807047704770477047704764
:10812000704770B5044610460026051F28462E608D
:108130004FF48056051F28462E601526051F284639
:108140002E601426051F28462E601326051F28467C
:108150002E601226051F28462E601126051F284670
:108160002E601026051F28462E600926051F28466A
:108170002E600826051F28462E600726051F284664
:108180002E600626051F28462E600526051F284658
:108190002E600426051F28462E600326051F28464C
:1081A0002E600226051F28462E600126051F284640
:1081B0002E600026051F28462E604FF08075056052
:1081C000051F28462C604B4E051F28462E604FF099
:1081D0001236051F28462E604FF00336051F28462D
:1081E0002E604FF00236051F28462E607610051FC0
:1081F00028462E60051F284629603126051F28467F
:108200002E603026051F28462E602926051F284689
:108210002E602826051F28462E602726051F284683
:108220002E602626051F28462E602526051F284677
:108230002E602426051F28462E602326051F28466B
:108240002E602226051F28462E602126051F28465F
:108250002E602026051F28462E601926051F284659
:108260002E601826051F28462E601726051F284653
:108270002E601626051F28462E604FF01136051F6A
:1082800028462E604FF01036051F28462E604FF00E
:108290000936051F28462E604FF00836051F284670
:1082A0002E604FF00736051F28462E604FF0063629
:1082B000051F28462E604FF00536051F28462E6004
:1082C0004FF00436051F28462E6070BD704770477A
:1082D00010B507480088401C0549088008460088FA
:1082E000022803D300200880FFF7E8FD10BD704787
:1082F0002405002039780008014600BF00BF00BFF8
:1083000000BF00BF00BF00BF00BF00BFFA48007839
:1083100038B90F2000BF021EA0F10103D8B2FAD174
:1083200000BF70471CB501210846FAF7A9FDC0201F
:10833000009001208DF8040000208DF80600032035
:108340008DF8050001208DF807006946EB48FAF723
:10835000F9FA0120EA490860EA49C1F898021CBD0F
:1083600000B5E648006820F44050E449086008463B
:10837000006840F4805008600120E149091F08604E
:10838000E049C1F89C020420FFF7B6FF0020DC4959
:10839000091F08600420FFF7AFFF0020D949C1F88A
:1083A0009C0200BD00B5D548006820F44050D34978
:1083B00008600846006840F4805008600020D049FA
:1083C0000860D049C1F898020420FFF795FF01200A
:1083D000CB490860CB49C1F898020420FFF78CFF15
:1083E00000BD10B50024C548006820F44050C349C2
:1083F00008600846006808600120C149091F08603C
:10840000FFF77AFF0120BF49C1F89C02FFF774FF14
:108410000AE0601CC4B2322C03DDFFF7C3FF012069
:1084200010BD0120FFF768FFB548843800680028B8
:10843000EFD1B349086000BFF2E700B50020B049B2
:108440000860AE48006820F44050AC490860084617
:10845000006840F4805008600020AA49C1F89802E2
:108460000220FFF749FF0120A54908600220FFF71D
:1084700043FF0020A349C1F89C0200BD00B50020C5
:108480009F4908609D48006820F440509B4908605F
:108490000846006840F48050086001209949C1F8FE
:1084A00098020220FFF728FF01209549086002206A
:1084B000FFF722FF00209349C1F89C0200BD30B5B0
:1084C00004468E48006820F440508C4908600846F5
:1084D000006840F480500860002089490860002549
:1084E00017E0E0098649091F08606006040E0220B3
:1084F000FFF702FF01208349C1F89C020220FFF729
:10850000FBFE00207E4908600220FFF7F5FE681C94
:10851000C5B2082DE5DB30BD70B5054600247748AF
:10852000006820F4405075490860084600680860FB
:10853000002616E00020724908600220FFF7DCFEEA
:1085400001207049C1F89C026006040E6C48843812
:10855000006808B1601CC4B20220FFF7CDFE701C99
:10856000C6B2082EE6DB15B1FFF767FF01E0FFF7A3
:1085700085FF204670BD70B505460E460024FFF706
:10858000EFFE2846FFF79BFF641CFFF72AFF3046EB
:10859000FFF795FF641CFFF724FFFFF7E1FE691C5E
:1085A000C8B2FFF78CFF641CFFF71BFF0020FFF72A
:1085B000B3FF0446FFF7F6FE204670BD2DE9F041FB
:1085C0000746884615461E460024FFF7C9FE384672
:1085D000FFF775FFFFF705FF4046FFF770FFFFF756
:1085E00000FFFFF7BDFE791CC8B2FFF768FFFFF779
:1085F000F8FE00BF0DE0681EA04204D00120FFF786
:108600008BFF305503E00020FFF786FF3055601CDC
:10861000C4B2AC42EFDBFFF7C5FE2046BDE8F081F7
:108620002DE9F04180460D4616461F460024FFF70F
:1086300097FE4046FFF743FFFFF7D3FE2846FFF7BC
:108640003EFFFFF7CEFE00BF06E0385DFFF737FFC5
:10865000FFF7C7FE601CC4B2B442F6DBFFF7A2FE10
:108660000120BDE8F08170B505460E46144631463E
:108670002846FFF780FF2070012070BD37B5044603
:108680000D4602AB012229462046FFF7C9FF3EBD39
:108690002DE9F8430746884614461D46089E6A465B
:1086A00041463846FFF7DFFF28B3601CFF2101FA7F
:1086B00000F0C4F108012944491EFF220A41104379
:1086C00000F0FF09C5F1080006FA00F0C6B2C4F1D7
:1086D000070006419DF8000000EA090000909DF89F
:1086E0000000304300909DF8002041463846FFF7D7
:1086F000C5FFBDE8F88307E0D8070020000402406A
:108700009C824042008040420020F2E7F8B50646D5
:108710000F4614461D466A4639463046FFF7A3FF0A
:108720002DB10120A0409DF80010084305E0012074
:10873000A0409DF8001021EA0000C0B200909DF812
:10874000002039463046FFF799FFF8BD70B5054661
:108750000C467DB1012D02D0022D21D115E024B9A6
:108760000421F348FAF76CF903E00421F048FAF722
:1087700065F915E024B90821ED48FAF761F903E03D
:108780000821EB48FAF75AF90AE024B91021E84821
:10879000FAF756F903E01021E548FAF74FF900BF60
:1087A00000BF70BD10B50446062C52D2DFE804F0BD
:1087B00003101D44372A01210020FFF7C7FF0021C5
:1087C0000120FFF7C3FF00210220FFF7BFFF40E0B9
:1087D00000210846FFF7BAFF01210846FFF7B6FF60
:1087E00000210220FFF7B2FF33E000210846FFF727
:1087F000ADFF00210120FFF7A9FF01210220FFF7B3
:10880000A5FF26E001210020FFF7A0FF0121084677
:10881000FFF79CFF01210220FFF798FF19E00021DC
:108820000846FFF793FF00210120FFF78FFF00218B
:108830000220FFF78BFF0CE001210020FFF786FFED
:1088400000210120FFF782FF01210220FFF77EFFB8
:1088500000BF00BF10BD1CB501210420FAF710FBBA
:1088600001208DF8040000208DF8060001208DF80D
:1088700005001C2000906946AD48FAF763F8012016
:10888000FFF790FF4FF4FA7001F065FE0020FFF74C
:1088900089FF4FF4FA7001F05EFE0220FFF782FFBD
:1088A0004FF4FA7001F057FE01210420FAF7E8FABC
:1088B00001208DF8040000208DF8060001208DF8BD
:1088C00005002020009069469948FAF73BF80121FD
:1088D0000846FAF7D5FA01208DF8040000208DF83B
:1088E000060001208DF8050002200090694691489D
:1088F000FAF728F81CBD10B58F4890F832408F4821
:10890000807810B98D48407840B100208C490870BB
:1089100001208C4908708C4908700FE0874890F856
:10892000500140B100208649087002208549087036
:108930008549087002E0002082490870804800786C
:10894000152815D2DFE800F00B152E40597A9BADA3
:10895000BFE0F2F1F0EFEEEDECEBEAE9E800794888
:10896000007828B9012076490870002077490880EE
:1089700019E27248007818B10220FFF713FF02E0F5
:108980000020FFF70FFF714801880088401C6F4AE4
:108990001080062905DD0220694908700020114673
:1089A000088000E20420FFF7FDFE68480188008887
:1089B000401C664A1080032905DD032060490870C9
:1089C000002011460880EEE15C48007818B10220D2
:1089D000FFF7E8FE02E00020FFF7E4FE5B480188B5
:1089E0000088401C594A1080032905DD04205449A1
:1089F0000870002011460880D5E15548807802288B
:108A000003D10520FFF7CEFE09E051488078012808
:108A100002D1FFF7C7FE02E00020FFF7C3FE4B487C
:108A200001880088401C494A1080032905DD052083
:108A300043490870002011460880B4E1444880781A
:108A4000022803D10520FFF7ADFE09E040488078F9
:108A5000012802D1FFF7A6FE02E00020FFF7A2FEE8
:108A60003A4801880088401C384A1080032905DDF7
:108A700006203349087000201146088093E1042045
:108A8000FFF790FE314801880088401C2F4A108073
:108A9000032905DD07202A490870002011460880B7
:108AA00081E10420FFF77EFE284801880088401CF1
:108AB000264A1080032905DD08202149087000207E
:108AC000114608806FE12248C078022803D10520B2
:108AD000FFF768FE09E01E48C078012802D1FFF7C1
:108AE00061FE02E00020FFF75DFE18480188008863
:108AF000401C164A1080032905DD09201049087022
:108B00000020114608804EE11148C078022821D18A
:108B10000520FFF747FE27E034E117E1F8E0D9E050
:108B2000BAE0A8E095E073E051E03EE02BE0000001
:108B300000080240000002407CC60020C0DF002088
:108B40002905002026050020270500202C050020EF
:108B5000609C0020AB48C078012802D1FFF722FEBC
:108B600002E00020FFF71EFEA74801880088401C95
:108B7000A54A1080032905DD0A20A44908700020B9
:108B8000114608800FE10420FFF70CFE9E48018883
:108B90000088401C9C4A1080032905DD0B209B495E
:108BA0000870002011460880FDE00420FFF7FAFD60
:108BB000954801880088401C934A1080032905DDF0
:108BC0000C2092490870002011460880EBE08D4887
:108BD0000079022803D10520FFF7E4FD09E0894868
:108BE0000079012802D1FFF7DDFD02E00020FFF748
:108BF000D9FD854801880088401C834A10800329DC
:108C000005DD0D2081490870002011460880CAE06A
:108C10007C480079022803D10520FFF7C3FD09E055
:108C200078480079012802D1FFF7BCFD02E000205E
:108C3000FFF7B8FD744801880088401C724A108014
:108C4000032905DD0E2071490870002011460880B7
:108C5000A9E00420FFF7A6FD6B4801880088401CAE
:108C6000694A1080032905DD0F206849087000203B
:108C70001146088097E00420FFF794FD62480188C0
:108C80000088401C604A1080032904DD00205F49F1
:108C900008701146088086E05D4890F8250028B1EC
:108CA000012807D10320FFF77DFD03E00120FFF736
:108CB00079FD00BF00BF544801880088401C524A1B
:108CC0001080032905DD112050490870002011464D
:108CD000088068E04E4890F8250028B1012807D1A7
:108CE0000320FFF75FFD03E00120FFF75BFD00BFFE
:108CF00000BF454801880088401C434A1080032972
:108D000005DD1220414908700020114608804AE024
:108D10003F4890F8250028B1012807D10420FFF72B
:108D200041FD03E00420FFF73DFD00BF00BF3648D2
:108D300001880088401C344A1080032905DD132077
:108D4000324908700020114608802CE014B1012C33
:108D500008D103E00420FFF725FD03E00420FFF71E
:108D600021FD00BF00BF284801880088401C264A1A
:108D70001080032905DD14202449087000201146C5
:108D8000088010E00420FFF70DFD1F4801880088CF
:108D9000401C1D4A1080142904DD00201B49087066
:108DA0001146088000BF00BF1A480078012804D08F
:108DB000022808D0032823D10CE0032016490870AC
:108DC000FFF7F0FC1CE00320134908700120FFF7B7
:108DD000E9FC15E0114801880088401C0F4A10800A
:108DE0000A290CDD0020114608800B480078012874
:108DF00002D10849087002E002200649087000BF4D
:108E000000BF10BD609C00202C050020290500201B
:108E1000F0C3002026050020270500202A05002099
:108E20000146086870470146FE48814201D2002091
:108E30007047FD48814201D20820F9E7FB48814292
:108E400001D21020F4E7FA48814201D21820EFE75E
:108E5000F848814201D22020EAE7F748814201D256
:108E60002820E5E7F548814201D23020E0E7F448C8
:108E7000814201D23820DBE7F248814201D2402012
:108E8000D6E7F148814201D24820D1E7EF4881423C
:108E900001D25020CCE75820CAE72DE9F04704461C
:108EA0000E4617464FF009080025A946B4F1006F99
:108EB00002D304F0030008B1BDE8F087FBF738FAED
:108EC0000020FBF718FA254604EB8709E0488542A5
:108ED00015D211E02846FFF7A3FF401C58B12846E1
:108EE000FFF7A1FF82460221FBF776FA8046B8F130
:108EF000090F01D002E02D1D4D45EBD300BFB8F1A5
:108F0000090F0CD108E020463168FBF77EFB0928E9
:108F100000D003E0241D361D4C45F4D300BF0120D2
:108F2000FBF7E9F9FBF711FA00BFC5E730B50346D7
:108F30000C461546002206E01846FFF771FF44F87C
:108F400022001B1D521CAA42F6D330BD10B52DEDD8
:108F5000048B0124BF480068A0F164016422BE486C
:108F600001F070F9BC480078BB49497840EA01201B
:108F700000B200EE100AB8EEC00AB84880ED100A40
:108F8000B5488078B449C97840EA012000B200EEC3
:108F9000100AB8EEC00AB14880ED110AAE48007957
:108FA000AD49497940EA012000B200EE100AB8EE5E
:108FB000C00AAA4880ED120AA7488079A649C97953
:108FC00040EA012000B200EE100AB8EEC00AA34841
:108FD00080ED0D0AA048007A9F49497A40EA0120B5
:108FE00000B200EE100AB8EEC00A9C4880ED0E0AEE
:108FF0009948807A9849C97A40EA012000B200EE87
:10900000100AB8EEC00A954880ED0F0A9248007B1E
:109010009149497B40EA012000B200EE100AB8EE07
:10902000C00A8F4880ED020A8B48807B8A49C97B41
:1090300040EA012000B200EE100AB8EEC00A8848EB
:1090400080ED030A8448007C8349497C40EA012082
:1090500000B200EE100AB8EEC00A814880ED040AA2
:109060007D48807C7C4AD27C40EA022000B200EE3F
:10907000100AB8EEC00A10EE101A08461FF02CFABB
:1090800041EC190B9FED770B53EC102B1EF004FDF8
:1090900041EC180B1EF012FC714948616E48007DCE
:1090A0006D4A527D40EA022000B200EE100AB8EE8E
:1090B000C00A10EE101A08461FF00EFA41EC190B08
:1090C0009FED680B53EC102B1EF0E6FC41EC180BE7
:1090D0001EF0F4FB624988615F48807D5E4AD27D64
:1090E00040EA022000B200EE100AB8EEC00A10EE0C
:1090F000101A08461FF0F0F941EC190B9FED590BBF
:1091000053EC102B1EF0C8FC41EC180B1EF0D6FBE4
:109110005349C8615048007E4F49497E40EA0120CA
:1091200000B200EE100AB8EEC00A504880ED190AED
:109130004948807E4849C97E40EA012000B200EEDD
:10914000100AB8EEC00A494880ED1A0A4248007F6A
:109150004149497F40EA012000B200EE100AB8EE12
:10916000C00A424880ED1B0A3B48807F3A49C97FCC
:1091700040EA012000B200EE100AB8EEC00A3B48F7
:1091800080ED160A344890F82000334991F82110F8
:1091900040EA012000B200EE100AB8EEC00A3348DF
:1091A00080ED170A2C4890F822002B4991F82310E3
:1091B00040EA012000B200EE100AB8EEC00A2B48C7
:1091C00080ED180A244890F82400234991F82510CE
:1091D00040EA012000B200EE100AB8EEC00A2348AF
:1091E00080ED300A1C4890F826001B4991F82710A2
:1091F00040EA012000B200EE100AB8EEC00A1B4897
:1092000080ED310A144890F82800134991F829108C
:1092100040EA012000B200EE100AB8EEC00A13487E
:1092200026E00000004000080080000800C00008A0
:109230000000010800000208000004080000060801
:109240000000080800000A0800000C0800000E08D2
:109250000000FF1F3005002000AF002044E900207F
:10926000100C00200000000000005940C0DF00206A
:1092700080ED320AFE4890F82A00FD4A92F82B2031
:1092800040EA022000B200EE100AB8EEC00A10EE6A
:10929000101A08461FF020F941EC190B1FED0F0BB7
:1092A00053EC102B1EF0F8FB41EC180B1EF006FBE4
:1092B000F049C1F8F000EE4890F82C00EC4A92F822
:1092C0002D2040EA022000B200EE100AB8EEC00ADB
:1092D00010EE101A08461FF0FFF841EC190B1FEDB5
:1092E0001F0B53EC102B1EF0D7FB41EC180B1EF09C
:1092F000E5FAE049C1F8F400DD4890F82E00DC4AB8
:1093000092F82F2040EA022000B200EE100AB8EED8
:10931000C00A10EE101A08461FF0DEF841EC190BD7
:109320001FED300B53EC102B1EF0B6FB41EC180B6D
:109330001EF0C4FACF49C1F8F800CD4890F83000CB
:10934000CB4991F8311040EA012000B200EE100A3A
:10935000B8EEC00AC74880ED200AC54890F8320030
:10936000C34991F8331040EA012000B200EE100A20
:10937000B8EEC00ABF4880ED210ABD4890F834001D
:10938000BB4991F8351040EA012000B200EE100A06
:10939000B8EEC00AB74880ED220AB54890F836000A
:1093A000B34A92F8372040EA022000B200EE100AD9
:1093B000B8EEC00A10EE101A08461FF08DF841EC06
:1093C000190B9FEDAD0B53EC102B1EF065FB41EC20
:1093D000180B1EF073FAA7494867A54890F83800A3
:1093E000A34A92F8392040EA022000B200EE100AA7
:1093F000B8EEC00A10EE101A08461FF06DF841ECE6
:10940000190B9FED9D0B53EC102B1EF045FB41EC0F
:10941000180B1EF053FA97498867954890F83A0060
:10942000934A92F83B2040EA022000B200EE100A74
:10943000B8EEC00A10EE101A08461FF04DF841ECC5
:10944000190B9FED8D0B53EC102B1EF025FB41ECFF
:10945000180B1EF033FA8749C867854890F83C001E
:10946000834991F83D1040EA012000B200EE100A55
:10947000B8EEC00A7F4880ED330A7D4890F83E0080
:109480007B4991F83F1040EA012000B200EE100A3B
:10949000B8EEC00A774880ED340A754890F840006D
:1094A000734991F8411040EA012000B200EE100A21
:1094B000B8EEC00A6F4880ED350A6D4890F842005A
:1094C0006B4A92F8432040EA022000B200EE100AF4
:1094D000B8EEC00A10EE101A08461EF0FDFF41EC6F
:1094E000190B1FEDA00B53EC102B1EF0D5FA41EC1D
:1094F000180B1EF0E3F95F49C1F8FC005C4890F8D6
:1095000044005B4A92F8452040EA022000B200EE97
:10951000100AB8EEC00A10EE101A08461EF0DCFF62
:1095200041EC190B1FEDB10B53EC102B1EF0B4FAEC
:1095300041EC180B1EF0C2F94E49C1F800014C482D
:1095400090F846004A4A92F8472040EA022000B2CA
:1095500000EE100AB8EEC00A10EE101A08461EF00F
:10956000BBFF41EC190B1FEDC10B53EC102B1EF090
:1095700093FA41EC180B1EF0A1F93E49C1F8040121
:10958000084690ED200A10EE101A08461EF0A4FFBF
:1095900041EC190BB0EE490AF0EE690A1CF0E8FB49
:1095A000B0EE408AF0EE608A9FED350B53EC102B45
:1095B00051EC180B1EF05EFC3DD22E4890ED210AB6
:1095C00010EE101A08461EF087FF41EC190BB0EEA2
:1095D000490AF0EE690A1CF0CBFBB0EE408AF0EECF
:1095E000608A9FED270B53EC102B51EC180B1EF0EB
:1095F00041FC20D21F4890ED220A10EE101A0846B6
:109600001EF06AFF41EC190BB0EE490AF0EE690A50
:109610001CF0AEFBB0EE408AF0EE608A9FED180BB6
:1096200053EC102B51EC180B1EF024FC03D202203B
:109630001549887002E00120134988700D4890EDAB
:10964000190A10EE101A08461EF046FF41EC190BDD
:10965000B0EE490AF0EE690A1CF08AFBB0EE408ACF
:10966000F0EE608A9FED090B53EC102B12E0000026
:1096700000AF0020C0DF00200000000000408F404D
:109680000000000000007940609C00200000000005
:109690000000694051EC180B1EF0ECFB3DD2FE4877
:1096A00090ED1A0A10EE101A08461EF015FF41EC54
:1096B000190BB0EE490AF0EE690A1CF059FBB0EE46
:1096C000408AF0EE608A1FED0F0B53EC102B51EC2B
:1096D000180B1EF0CFFB20D2EF4890ED1B0A10EEC6
:1096E000101A08461EF0F8FE41EC190BB0EE490ABC
:1096F000F0EE690A1CF03CFBB0EE408AF0EE608AA6
:109700001FED1E0B53EC102B51EC180B1EF0B2FB8F
:1097100003D20220E149C87002E00120DF49C8708D
:10972000DD4890ED200A10EE101A08461EF0D4FE17
:1097300041EC190BB0EE490AF0EE690A1CF018FB77
:10974000B0EE408AF0EE608A9FEDD50B53EC102B03
:1097500051EC180B1EF0C8FC39D3CF4890ED210A0C
:1097600010EE101A08461EF0B7FE41EC190BB0EED1
:10977000490AF0EE690A1CF0FBFAB0EE408AF0EEFE
:10978000608A9FEDC70B53EC102B51EC180B1EF0A9
:10979000ABFC1CD3C04890ED220A10EE101A08460C
:1097A0001EF09AFE41EC190BB0EE490AF0EE690A80
:1097B0001CF0DEFAB0EE408AF0EE608A9FEDB80B46
:1097C00053EC102B51EC180B1EF08EFC59D2B24802
:1097D00090ED200A10EE101A08461EF07DFE41ECB6
:1097E000190BB0EE490AF0EE690A1CF0C1FAB0EEAE
:1097F000408AF0EE608A9FEDAC0B53EC102B51ECDD
:10980000180B1EF037FB3CD2A34890ED210A10EE56
:10981000101A08461EF060FE41EC190BB0EE490A22
:10982000F0EE690A1CF0A4FAB0EE408AF0EE608A0D
:109830009FED9D0B53EC102B51EC180B1EF01AFBF7
:109840001FD2954890ED220A10EE101A08461EF01D
:1098500043FE41EC190BB0EE490AF0EE690A1CF028
:1098600087FAB0EE408AF0EE608A9FED8F0B53ECE2
:10987000102B51EC180B1EF0FDFA02D20120864984
:109880000870BDEC048B10BD38B50024884890EDFD
:10989000100ABDEEC00A10EE100A00B200909DF84A
:1098A00000202146641C834842549DF80120214633
:1098B000641C42547E4890ED110ABDEEC00A10EEC1
:1098C000100A00B200909DF800202146641C7948DF
:1098D00042549DF801202146641C4254744890ED86
:1098E000120ABDEEC00A10EE100A00B200909DF8F8
:1098F00000202146641C6F4842549DF801202146F7
:10990000641C42546A4890ED0D0ABDEEC00A10EE88
:10991000100A00B200909DF800202146641C6548A2
:1099200042549DF801202046611CCCB261490A5482
:109930005F4890ED0E0ABDEEC00A10EE100A00B2AC
:1099400000909DF800202046611CCCB259490A5471
:109950009DF801202046611CCCB256490A54544857
:1099600090ED0F0ABDEEC00A10EE100A00B2009092
:109970009DF800202046611CCCB24E490A549DF847
:1099800001202046611CCCB24A490A544A4890ED55
:10999000020ABDEEC00A10EE100A00B200909DF857
:1099A00000202046611CCCB242490A549DF8012097
:1099B0002046611CCCB23F490A543F4890ED030A4F
:1099C000BDEEC00A10EE100A00B200909DF8002013
:1099D0002046611CCCB237490A549DF8012020462C
:1099E000611CCCB233490A54334890ED040ABDEEF1
:1099F000C00A10EE100A00B200909DF80020204628
:109A0000611CCCB22B490A549DF801202046611CF0
:109A1000CCB228490A54284890ED050ADFED270A00
:109A200020EE200ABDEEC00A10EE100A00B200902F
:109A30009DF800202046611CCCB21E490A549DF8B6
:109A400001202046611CCCB21A490A541A4890EDF4
:109A5000060ADFED1A0A20EE200ABDEEC00A10EE5B
:109A6000100A00B200909DF800202046611CCCB284
:109A700010490A549DF801202046611CCCB20D49C2
:109A80000A540D4890ED070ADFED0C0A20EE200A7B
:109A9000BDEEC00A14E00000C0DF0020609C002082
:109AA00000000000000024400000000000C08240D0
:109AB00044E9002064AF0020100C00200000C842E0
:109AC00010EE100A00B200909DF800202046611CA4
:109AD000CCB2FE490A549DF801202046611CCCB24C
:109AE000FA490A54FA4890ED190ABDEEC00A10EE80
:109AF000100A00B200909DF800202046611CCCB2F4
:109B0000F2490A549DF801202046611CCCB2EF496D
:109B10000A54EF4890ED1A0ABDEEC00A10EE100A82
:109B200000B200909DF800202046611CCCB2E749AD
:109B30000A549DF801202046611CCCB2E3490A5426
:109B4000E34890ED1B0ABDEEC00A10EE100A00B209
:109B500000909DF800202046611CCCB2DB490A54DD
:109B60009DF801202046611CCCB2D8490A54D8483F
:109B700090ED160ABDEEC00A10EE100A00B2009079
:109B80009DF800202046611CCCB2D0490A549DF8B3
:109B900001202046611CCCB2CC490A54CC4890ED3F
:109BA000170ABDEEC00A10EE100A00B200909DF830
:109BB00000202046611CCCB2C4490A549DF8012003
:109BC0002046611CCCB2C1490A54C14890ED180A24
:109BD000BDEEC00A10EE100A00B200909DF8002001
:109BE0002046611CCCB2B9490A549DF80120204698
:109BF000611CCCB2B5490A54B54890ED300ABDEEAF
:109C0000C00A10EE100A00B200909DF80020204615
:109C1000611CCCB2AD490A549DF801202046611C5C
:109C2000CCB2AA490A54AA4890ED310ABDEEC00A46
:109C300010EE100A00B200909DF800202046611C32
:109C4000CCB2A2490A549DF801202046611CCCB236
:109C50009E490A549E4890ED320ABDEEC00A10EEAD
:109C6000100A00B200909DF800202046611CCCB282
:109C700096490A549DF801202046611CCCB29349B4
:109C80000A54934890ED3C0A5FED740A20EE200AD6
:109C9000BDEEC00A10EE100A00B200909DF8002040
:109CA0002046611CCCB289490A549DF80120204607
:109CB000611CCCB285490A54854890ED3D0A5FEDA0
:109CC000810A20EE200ABDEEC00A10EE100A00B292
:109CD00000909DF800202046611CCCB27B490A54BC
:109CE0009DF801202046611CCCB278490A5478487E
:109CF00090ED3E0A5FED8F0A20EE200ABDEEC00A0D
:109D000010EE100A00B200909DF800202046611C61
:109D1000CCB26E490A549DF801202046611CCCB299
:109D20006A490A546A4890ED200ABDEEC00A10EE56
:109D3000100A00B200909DF800202046611CCCB2B1
:109D400062490A549DF801202046611CCCB25F494B
:109D50000A545F4890ED210ABDEEC00A10EE100AC9
:109D600000B200909DF800202046611CCCB25749FB
:109D70000A549DF801202046611CCCB253490A5474
:109D8000534890ED220ABDEEC00A10EE100A00B250
:109D900000909DF800202046611CCCB24B490A542B
:109DA0009DF801202046611CCCB248490A5448481D
:109DB00090ED1D0ADFED470A20EE200ABDEEC00A35
:109DC00010EE100A00B200909DF800202046611CA1
:109DD000CCB23E490A549DF801202046611CCCB209
:109DE0003A490A543A4890ED1E0ADFED3A0A20EE4D
:109DF000200ABDEEC00A10EE100A00B200909DF8D5
:109E000000202046611CCCB230490A549DF8012044
:109E10002046611CCCB22D490A542D4890ED1F0AF2
:109E2000DFED2C0A20EE200ABDEEC00A10EE100A6B
:109E300000B200909DF800202046611CCCB223495E
:109E40000A549DF801202046611CCCB21F490A54D7
:109E50001F4890ED330ABDEEC00A10EE100A00B2A2
:109E600000909DF800202046611CCCB217490A548E
:109E70009DF801202046611CCCB214490A541448B4
:109E800090ED340ABDEEC00A10EE100A00B2009048
:109E90009DF800202046611CCCB20C490A549DF864
:109EA00001202046611CCCB208490A54084890EDB4
:109EB000350ABDEEC00A10EE100A00B200909DF8FF
:109EC00000202046611CCCB2004905E064AF0020B0
:109ED000C0DF002000007A440A549DF8012020468B
:109EE000611CCCB22D490A542D4890ED3F0ADFED9C
:109EF0002D0A20EE200ABDEEC00A10EE100A00B2B4
:109F000000909DF800202046611CCCB223490A54E1
:109F10009DF801202046611CCCB220490A542048FB
:109F200090ED400ADFED1F0A20EE200ABDEEC00AC8
:109F300010EE100A00B200909DF800202046611C2F
:109F4000CCB216490A549DF801202046611CCCB2BF
:109F500012490A54124890ED410ADFED120A20EE30
:109F6000200ABDEEC00A10EE100A00B200909DF863
:109F700000202046611CCCB208490A549DF80120FB
:109F80002046611CCCB205490A5407480068A0F17C
:109F900064016422014800F0F2F938BD64AF00208A
:109FA000C0DF00200000C8423005002010B5044684
:109FB00000BF0221FA48FAF75FFF0028F9D02146D6
:109FC000F748FAF710FF00BF0121F548FAF754FFF0
:109FD0000028F9D0F248FAF703FFC0B210BD10B55F
:109FE00000240020EF4908609020FFF7DFFF0020E9
:109FF000FFF7DCFF0020FFF7D9FF0020FFF7D6FFB7
:10A00000FF20FFF7D3FF44EA0024FF20FFF7CEFF35
:10A0100004430120E449C1F8B002204610BD00B558
:10A0200087B001210220F8F72BFF01218803F8F700
:10A0300070FF4FF46040059002208DF8180000205A
:10A040008DF81A0003208DF8190001208DF81B00EF
:10A0500005A9D648F8F776FC05220D21D348F8F774
:10A06000FCFC05220E21D148F8F7F7FC05220F2150
:10A07000CE48F8F7F2FC01218803F8F79FFF002192
:10A080004FF48040F8F79AFF0020ADF800004FF43D
:10A090008270ADF802000020ADF80400ADF80600B3
:10A0A000ADF808004FF40070ADF80A002820ADF8B4
:10A0B0000C000020ADF80E000720ADF81000694636
:10A0C000B748FAF715FD0121B548FAF70BFEFF2056
:10A0D000FFF76CFF07B000BD70B505460C464FF4A6
:10A0E0008051B248F8F7AAFC4FF40071AF48F8F776
:10A0F000A5FC4FF48071AD48F8F7A0FC0A20F8F7F2
:10A10000D5FA25B1012D12D0022D30D11FE02CB18E
:10A110004FF48051A548F8F791FC04E04FF48051CA
:10A12000A248F8F78DFC0A20F8F7C0FA1FE02CB11E
:10A130004FF400719D48F8F781FC04E04FF4007182
:10A140009A48F8F77DFC0A20F8F7B0FA0FE02CB136
:10A150004FF480719548F8F771FC04E04FF480717A
:10A160009248F8F76DFC0A20F8F7A0FA00BF00BF8C
:10A1700070BD1CB501210220F8F782FE4FF4985003
:10A18000009001208DF8040000208DF806000320C7
:10A190008DF8050069468548F8F7D4FB0120814910
:10A1A000086001210020FFF797FF01210846FFF713
:10A1B00093FF01210220FFF78FFFFFF730FFFFF72A
:10A1C0000EFF7B4908801CBD10B500240021084605
:10A1D000FFF782FF0520FFF7E9FEFF20FFF7E6FE0D
:10A1E000044601210020FFF777FF204610BD10B57F
:10A1F000044600210846FFF76FFF0120FFF7D6FE57
:10A200002046FFF7D3FE01210020FFF765FF10BDB8
:10A2100010B500210846FFF75FFF0620FFF7C6FED6
:10A2200001210020FFF758FF10BD10B5002108469E
:10A23000FFF752FF0420FFF7B9FE01210020FFF7CE
:10A240004BFF10BD2DE9F04106460C461746002194
:10A250000846FFF741FF0320FFF7A8FEC4F30740BD
:10A26000FFF7A4FEC4F30720FFF7A0FEE0B2FFF75C
:10A270009DFE002505E0FF20FFF798FE7055681C45
:10A2800085B2BD42F7DB01210020FFF725FFBDE8C5
:10A29000F08110B500BFFFF797FF00F00100002824
:10A2A000F9D110BD2DE9F04106460C461746FFF7DF
:10A2B000AFFF00210846FFF70FFF0220FFF776FEF1
:10A2C000C4F30740FFF772FEC4F30720FFF76EFEEA
:10A2D000E0B2FFF76BFE002504E0705DFFF766FE5D
:10A2E000681C85B2BD42F8DB01210020FFF7F4FEB7
:10A2F000FFF7CFFFBDE8F0812DE9F04107460E469C
:10A300001446F0B2C0F58075AC4200DC254612E080
:10A310002A4631463846FFF7C5FFAC4200D10BE074
:10A320002F442E44601B84B2B4F5807F02DD4FF4CD
:10A33000807500E02546EBE700BFBDE8F08110B571
:10A3400004462403FFF764FFFFF7A3FF002108463C
:10A35000FFF7C2FE2020FFF729FEC4F30740FFF7F6
:10A3600025FEC4F30720FFF721FEE0B2FFF71EFE33
:10A3700001210020FFF7B0FEFFF78BFF10BD2DE994
:10A38000F05F81460F461646DFF828B04FEA1738CF
:10A39000C7F30B0ACAF58054A64200DC344650E0ED
:10A3A00000380040B0824042008040420004024039
:10A3B00034050020C8AF00204FEA08314FF4805226
:10A3C0005846FFF73FFF002508E00AEB05001BF8A1
:10A3D0000000FF2800D003E0681C85B2A542F4DB32
:10A3E00000BFA54216DA4046FFF7A9FF002507E0A7
:10A3F00019F8050005EB0A010BF80100681C85B28D
:10A40000A542F5DB4FEA08314FF480525846FFF77A
:10A4100073FF04E0224639464846FFF76DFFA64227
:10A4200000D10FE008F101084FF0000AA1442744D1
:10A43000301B86B2B6F5805F02DD4FF4805400E039
:10A440003446B9E700BFBDE8F09F10B5FFF7E0FE66
:10A45000FFF71FFF00210846FFF73EFEC720FFF76A
:10A46000A5FD01210020FFF737FEFFF712FF10BD09
:10A4700010B500210846FFF72FFEB920FFF796FD23
:10A4800001210020FFF728FE0320F8F70FF910BD87
:10A4900010B500210846FFF71FFEAB20FFF786FD31
:10A4A00001210020FFF718FE0320F8F7FFF810BD88
:10A4B00010B50446074800884FF6C77108400549A3
:10A4C0000880084600882043088001210148FAF7E7
:10A4D00009FC10BD003800407FB56846F8F7FFFB67
:10A4E0004FF47A710198B0FBF1F4E4082146481E5C
:10A4F000B0F1807F00D31BE0481E4FF0E022506196
:10A5000050170F22002807DA13071E0E834B00F0A6
:10A510000F052D1F5E5503E013071D0E804B1D54C4
:10A5200000BF00204FF0E02290610720106100BFC3
:10A530006FF00400F8F762F97FBD002079490868E0
:10A54000704700B5FFF7F9FF00BD10B504460120C4
:10A55000F8F7ACF810BD10B5044603E04FF47A707C
:10A56000FFF7F3FF201EA4F10104F7D110BD00B5E1
:10A57000024602EB42006C4901EB800090ED000ABC
:10A5800002EB420001EB800080ED010AFFF7D5FFEE
:10A5900000EE100AB8EE400ADFED640A80EE201AE1
:10A5A00002EB4200604901EB800080ED001A02EBF3
:10A5B000420001EB800090ED000A02EB420001EB4B
:10A5C0008000D0ED010A30EE600A02EB420001EBA0
:10A5D000800080ED020A02EB420001EB800090ED6A
:10A5E000020A00BD00B5002304E01846FFF7BFFFD4
:10A5F000581CC3B21E2BF8DB00BD4D48006840F06C
:10A6000008004B4908608020464924390880002012
:10A61000091D088043490860401E4249083108600E
:10A620005320091F088001203E49103908803D4809
:10A630002438008840F001003A49243908807047E6
:10A640007FB505460C4601210220F8F762FC029511
:10A65000ADF804400020ADF80600ADF80C0001A9EB
:10A660003448F9F782F8012211463248F9F71EFD05
:10A6700001213048F9F702F91D208DF80000022071
:10A680008DF8010003208DF8020001208DF80300F1
:10A690006846F8F766F87FBD10B501212648F9F73E
:10A6A0001CFD68B12548008840F40040234908801B
:10A6B00001212148F9F722FD00211F48F9F7DEF8B2
:10A6C00010BD7FB505460C4601212020F8F721FC7E
:10A6D0000195ADF800400020ADF80800ADF802008B
:10A6E00069461548F9F741F8012211461248F9F771
:10A6F000DDFC01211048F9F7C1F837208DF80C0076
:10A7000003208DF80D0000208DF80E0001208DF83B
:10A710000F0003A8F8F725F87FBD000018ED00E052
:10A7200000E400E0240C0040C8BF0020002474496D
:10A73000403802400004004000140040BE050020E4
:10A740002DE9F0438FB004460D4616461F46DDE95D
:10A7500016893448844204D901218805F8F790FB12
:10A7600003E001214805F8F78BFB2046FAF7B4FB1C
:10A7700000BF2046FAF7D9FC0028FAD100950196CF
:10A78000029740200390CDF81080002005904FF4F0
:10A79000806006900020079008900990B9F1000FA2
:10A7A00009D0B9F1010F09D0B9F1020F0AD0B9F1FE
:10A7B000030F0FD10AE000200A900BE04FF4803025
:10A7C0000A9007E04FF400300A9003E04FF4403065
:10A7D0000A9000BF00BF4FF480300A9000200B9019
:10A7E00003200C9000200D900E9069462046FAF749
:10A7F00015FC0FB0BDE8F08370B504460D4600218E
:10A800002046FAF745FC00BF2046FAF78EFC0028E8
:10A81000FAD129462046FAF75CFC01212046FAF7D6
:10A8200037FC70BD0064024070B505460C4645F229
:10A830005550FAF725FD2846FAF725FD2046FAF788
:10A8400025FDFAF726FDFAF729FD70BD10B5FAF7D8
:10A8500020FD10BD0246134610E010782A2805D0CE
:10A860001078202802DB10787A2801DDFF2070475D
:10A8700010782C2801D1481EC1B2521C0029ECD1FD
:10A88000D01AC0B2F3E710B50246012000E05043F1
:10A890000B1EA1F10104E1B2F9D110BD2DE9F34F76
:10A8A00081B007463C460020009083468146002642
:10A8B000804628E020782D2802D148F00208641C48
:10A8C00020782C2802D020782A2800D11CE020787B
:10A8D0002E2803D148F00108641C09E020783928AB
:10A8E00002DC2078302803DA4FF0000900260BE064
:10A8F00008F0010010B1701CC6B203E009F10100BC
:10A9000000F0FF09641CD5E700BF08F0020000B1A9
:10A910007F1C00250EE0A9F10100401BC1B20A20F6
:10A92000FFF7B1FF795D3039009A00FB01200090FC
:10A93000681CC5B24D45EEDB052E00DD05260298EC
:10A94000067000250EE0701E401BC1B20A20FFF702
:10A950009AFF09F101012944795C303900FB01BB00
:10A96000681CC5B2B542EEDB31460A20FFF78BFF0B
:10A97000009901FB00BA08F0020008B1CAF1000A10
:10A980005046BDE8FE8F2DE9F34F07463C464FF099
:10A99000000AD346D1460026B04628E020782D286C
:10A9A00002D148F00208641C20782C2802D02078BC
:10A9B0002A2800D11CE020782E2803D148F0010875
:10A9C000641C09E02078392802DC2078302803DA7A
:10A9D0004FF0000900260BE008F0010010B1701CD8
:10A9E000C6B203E009F1010000F0FF09641CD5E7DD
:10A9F00000BF08F0020000B17F1C00250DE0A9F1A6
:10AA00000100401BC1B20A20FFF73DFF0146785DFF
:10AA1000303801FB00AA681CC5B24D45EFDB052E9E
:10AA200000DD05260198067000250EE0701E401B13
:10AA3000C1B20A20FFF727FF09F101012944795C1F
:10AA4000303900FB01BB681CC5B2B542EEDB3146B4
:10AA50000A20FFF718FF00EE900AF8EE601A00EEE9
:10AA600090BAF8EE600A80EEA11A00EE90AAF8EE15
:10AA7000600A31EE200A08F0020018B1F1EE400A37
:10AA8000B0EE600ABDE8FC8F2DE9FC5F07468A4600
:10AA90004FF00008CDF804A0FEA1019819F0F8FFCE
:10AAA0000646F079303800F0FF0B03213046FFF7FF
:10AAB000D1FE0546FF2D04D070196946FFF7EEFE62
:10AAC00078704FF000096CE0F2A1019819F0E0FFF6
:10AAD000064600245CE0042000EB8400C1B230464E
:10AAE000FFF7B8FE0546FF2D09D070196946FFF73C
:10AAF000D5FEC1B208EB8802B81C815400E049E0E1
:10AB0000052000EB8400C1B23046FFF7A3FE0546E6
:10AB1000FF2D0AD070196946FFF7C0FEC1B208EBDD
:10AB20008802B81C1044417000E033E0062000EBBE
:10AB30008400C1B23046FFF78DFE0546FF2D0AD0D6
:10AB400070196946FFF7AAFE81B208EB8802B81CAB
:10AB50001044418000E01DE0072000EB8400C1B2FA
:10AB60003046FFF777FE0546FF2D0AD0701969467B
:10AB7000FFF794FEC1B208EB8802B81C10440171C3
:10AB800000E007E008F1010000F0FF08601CC4B21B
:10AB9000042CA0DB00BF701C019009F1010000F043
:10ABA000FF09D94590DBBDE8FC9FF8B505460F4687
:10ABB000BAA1384619F06CFF064606213046FFF769
:10ABC00049FE0446FF2C05D030196946FFF766FEA2
:10ABD00085F8570007213046FFF73CFE0446FF2C5E
:10ABE00005D030196946FFF759FE85F8580009214C
:10ABF0003046FFF72FFE0446FF2C04D0301969467B
:10AC0000FFF74CFEE866F8BD2DE9F8430546884697
:10AC1000A4A1404619F03CFF064602213046FFF74A
:10AC200019FE0446FF2C05D030196946FFF736FEA1
:10AC300085F86500002713E0F81CC1B23046FFF725
:10AC400009FE0446FF2C08D030196946FFF726FE9E
:10AC5000C1B205F15900C15500E003E0781CC7B24C
:10AC60000C2FE9DB00BF0F213046FFF7F3FD044650
:10AC7000FF2C05D030196946FFF710FEA5F86600D5
:10AC800010213046FFF7E6FD0446FF2C05D03019B1
:10AC90006946FFF703FEA5F8680011213046FFF76B
:10ACA000D9FD0446FF2C05D030196946FFF7F6FDA3
:10ACB000A5F86A00BDE8F8832DE9F04F2DED0C8B67
:10ACC00081B00546894679A1484619F0E1FE06465D
:10ACD00001213046FFF7BEFD0446FF2C23D030197A
:10ACE0006946FFF7DBFD82469DF800100A20FFF75A
:10ACF000CAFDBAFBF0F742F21070B7FBF0F0C1B238
:10AD0000422041556420B7FBF0F06421B0FBF1F222
:10AD100001FB1201432041556420B7FBF0F100FB19
:10AD200011714420415503213046FFF793FD04463D
:10AD3000FF2C5DD00C20FFF71AFC5E4880ED000A66
:10AD400030196946FFF7AAFD07469DF80000801CF0
:10AD5000C1B20A20FFF797FDB7FBF0F89DF800009D
:10AD6000801CC1B20A20FFF78EFDB7FBF0F100FB9B
:10AD7000117000EE100AB8EE408A4F4801780A20A0
:10AD8000FFF781FD00FB08F000EE100AF8EE400A24
:10AD9000494800789DF80020801AC1B20A20FFF7C8
:10ADA00072FD00EE100AB8EE400A20EE080A9FED90
:10ADB000431AC0EE011A30EEA10ABCEEC00A10EE32
:10ADC000108A3D4801780A20FFF75DFD82461DF09C
:10ADD0003DF841EC190B40461DF038F841EC1A0BD8
:10ADE00053EC192B1CF058FEC5F84500C5F8491066
:10ADF00004213046FFF72EFD0446FF2C02D0305DC3
:10AE000085F84D0005213046FFF724FD0446FF2C50
:10AE100071D030196946FFF741FD07469DF80000E3
:10AE2000801CC1B20A20FFF72EFDB7FBF0F89DF899
:10AE30000000801CC1B20A20FFF725FDB7FBF0F12E
:10AE400000FB117000EE100AB8EE400AB0EE408A26
:10AE5000194801780A20FFF716FD00FB08F000EE04
:10AE6000100AF8EE400A144800789DF80020801A75
:10AE7000C1B20A20FFF707FD00EE100AB8EE400A43
:10AE800020EE080A9FED0D1AC0EE011A30EEA10A5D
:10AE900016E00000244750475356000047504747EC
:10AEA0004100000024474E47534100004750524D97
:10AEB000430000003C0500203805002000007042DF
:10AEC000BCEEC00A10EE108AFE4801780A20FFF797
:10AED000DAFC82461CF0BAFF41EC190B40461CF02C
:10AEE000B5FF41EC1A0B53EC192B1CF0D5FDC5F83E
:10AEF0004E00C5F8521006213046FFF7ABFC044661
:10AF0000FF2C02D0305D85F8560009213046FFF74E
:10AF1000A1FC0446FF2C1DD030196946FFF7BEFC8A
:10AF2000074642F21070B7FBF0F0C1B24120415524
:10AF30006420B7FBF0F06421B0FBF1F201FB1201D9
:10AF4000402041556420B7FBF0F100FB117000F583
:10AF5000FA60E88707213046FFF77CFC0446FF2CA7
:10AF60002DD030196946FFF70EFD10EE10AA50469D
:10AF70001DF0B2FA41EC1D0B9FEDD30B53EC102BDF
:10AF80001CF0B4FF41EC1C0B9FEDD10B53EC102BCC
:10AF90001CF0ACFF41EC1B0B1CF090FC83461DF039
:10AFA0009BFA41EC1A0B9FEDCC0B53EC102B1CF0D1
:10AFB00073FD41EC190B1CF081FCC5F876000821EB
:10AFC0003046FFF747FC0446FF2C07D0301969468E
:10AFD000FFF7D9FC10EE100AC5F87A0002213046BE
:10AFE000FFF738FC0446FF2C01D0305D28700A21A1
:10AFF0003046FFF72FFC0446FF2C07D03019694676
:10B00000FFF7C1FC10EE100AC5F87E000B21304698
:10B01000FFF720FC0446FF2C02D0305D85F882004B
:10B0200001B0BDEC0C8BBDE8F08F2DE9F843044670
:10B030000F46ABA1384619F02BFD064601213046DC
:10B04000FFF708FC0546A6A1384619F021FD064683
:10B0500001213046FFF7FEFB05464FF0000807E0F0
:10B0600007F80850681CC5B208F1010000F0FF089D
:10B07000B8F1320FF4DBFF2D05D070196946FFF7E8
:10B080000DFCA4F8720003213046FFF7E3FB0546F0
:10B09000FF2D05D070196946FFF700FCA4F8740075
:10B0A00007213046FFF7D6FB0546FF2D28D0701943
:10B0B0006946FFF7F3FBA4F870009DF80000032831
:10B0C0000DDA9DF80000C0F10300C1B20A20FFF7BD
:10B0D000DAFBB4F870104843A4F8700010E09DF853
:10B0E000000003280CDD9DF80000C01EC1B20A203C
:10B0F000FFF7C9FBB4F87010B1FBF0F0A4F87000D2
:10B10000BDE8F88370B504460D4629462046FFF792
:10B11000BBFC29462046FFF748FD29462046FFF79D
:10B1200073FD29462046FFF7C7FD29462046FFF755
:10B130007CFF70BD30B501460023002408794D79AD
:10B1400000EB0520684D288028460088642801DD32
:10B15000002030BD022206E0885C1844C3B2E0182B
:10B16000C4B2501C82B260480088801D8242F3DB6A
:10B170005D480088801D085C984207D15A480088C5
:10B18000C01D085CA04201D10120E2E70020E0E7F9
:10B190002DE9F04105460E46174600241FE0012F19
:10B1A00002D0062F18D10BE000BF40214F48F8F71E
:10B1B000CFF90028F9D0295D4C48F8F719F90BE0D0
:10B1C00000BF40214A48F8F7C3F90028F9D0295DAB
:10B1D0004748F8F70DF900BF00BF601CC4B2B44285
:10B1E000DDDBBDE8F08110B50446C820FFF7B3F9F8
:10B1F00022461C213F48FFF7CBFF224609213E484B
:10B20000FFF7C6FF6420FFF7A6F910BD10B504468E
:10B210006420FFF7A0F922465A213848FFF7B8FF0B
:10B220006420FFF798F922460E213548FFF7B0FF5A
:10B230006420FFF790F9224609212F48FFF7A8FF65
:10B240006420FFF788F910BD10B588B001240121F2
:10B250001020F7F76FFE01210846F7F711FE00BF37
:10B2600025208DF80C0001208DF80D008DF80E00C2
:10B270008DF80F0003A8F7F774FA07220921214877
:10B28000F7F7EBFB07220A211E48F7F7E6FB6002FF
:10B29000019002208DF808008DF8090000208DF83B
:10B2A0000A0001208DF80B0001A91648F7F74AFBA8
:10B2B000A002019002208DF808008DF809000120FD
:10B2C00022E00000380500206F1283C0CAA1FD3FB4
:10B2D0000000000000408F40000000000020AC4053
:10B2E00024474E56544700004005002000100140FE
:10B2F00000140140BE87020844880208DA87020869
:10B3000034880208000002408DF80A0000208DF801
:10B310000B0001A9FE48F7F715FB0020FD49087056
:10B32000BAE0FD48F7F74AFF04A8F8F714F84FF41D
:10B33000165004900020ADF81400ADF81600ADF8DA
:10B3400018000C20ADF81A000020ADF81C0004A96C
:10B35000F148F7F79AFF0121EF48F8F71EF8204669
:10B36000FFF741FFC820FFF7F6F82046FFF74EFF32
:10B370000021E948F8F711F84FF416400490002036
:10B38000ADF81400ADF81600ADF818000C20ADF8BB
:10B390001A000020ADF81C0004A9DF48F7F775FF7C
:10B3A0000121DD48F7F7F9FF2046FFF71CFFC82011
:10B3B000FFF7D1F82046FFF729FF0021D648F7F71D
:10B3C000ECFF4FF4964004900020ADF81400ADF867
:10B3D0001600ADF818000C20ADF81A000020ADF8EA
:10B3E0001C0004A9CC48F7F750FF0121CA48F7F721
:10B3F000D4FF2046FFF7F7FEC820FFF7ACF8204641
:10B40000FFF704FF0021C448F7F7C7FF4FF461407E
:10B4100004900020ADF81400ADF81600ADF8180047
:10B420000C20ADF81A000020ADF81C0004A9BA48A1
:10B43000F7F72BFF0121B848F7F7AFFF2046FFF7DA
:10B44000D2FEC820FFF787F82046FFF7DFFE4FF453
:10B45000E13004900020ADF81400ADF81600ADF80E
:10B460001800ADF81C000C20ADF81A0004A9AA4879
:10B47000F7F70BFF0121A848F7F78FFF2046FFF7EA
:10B48000C5FE012240F22551A348F8F73CF8A14837
:10B490000078401C9F4908709E4800780528FFF6F8
:10B4A00040AF08B010BD70B52DED048B04460D46BD
:10B4B0000120207000206080012168200155672054
:10B4C00001556620015584F8651094ED0A0AB8EE1E
:10B4D000C00A84ED0D0A94ED0B0AB8EEC00A84EDA3
:10B4E0000E0A94ED0C0AB8EEC00A84ED0F0AA87E8D
:10B4F0006071687F2071A97F15F81F2F01EB022171
:10B500006A7801EB0241AA7801EB02601CF087FC2B
:10B51000C4E9060194ED061BB0EE410AF0EE610AA3
:10B520009FED7E1B53EC112B51EC100B1CF0B4FA69
:10B53000C4E90601E97815F8042F01EB02216A78C5
:10B5400001EB0241AA780B3501EB02601CF067FCAD
:10B55000C4E9020194ED021BB0EE410AF0EE610A6B
:10B560009FED6E1B53EC112B51EC100B1CF094FA59
:10B57000C4E90201287A697A00EB0120A97A00EB7C
:10B580000140E97A00EB0160A062287B697B00EB57
:10B590000120A97B00EB0140E97B00EB0160E06248
:10B5A0000A21A06A90FBF1F0A062E06A90FBF1F042
:10B5B000E062E87C0006A97C40EA0140697C40EA40
:10B5C0000120297C084300EE100AB8EEC00AB1EE53
:10B5D000400ABDEEC00A84ED0C0A0A21206B90FBE4
:10B5E000F1F02063E87D0006AA7D40EA02406A7D12
:10B5F00040EA02202A7D104300EE100AB8EEC00A8D
:10B6000010EE101A08461CF067FF41EC190B1FEDF5
:10B61000D00B53EC102B1CF03FFA41EC180B1CF034
:10B620004DF9C4F8A800E8780006A97840EA01407E
:10B63000697840EA012029780843A4F8BC00E87939
:10B640000006A97940EA0140697940EA0120297998
:10B650000843A4F8BE00E87F0006A97F40EA014045
:10B66000697F40EA0120297F0843A4F8C00095F8CB
:10B670002310090695F8222041EA024195F821207D
:10B6800041EA022195F820202E3D41EA02001CF0FB
:10B69000DDFB41EC190B9FED230B53EC102B1CF041
:10B6A00025FC41EC180B1CF009F9C4F8B80020790E
:10B6B000062815DB94F8980090B9012084F89800CA
:10B6C00094ED060B84ED1E0B94ED020B84ED1C0B28
:10B6D0009FED160A84ED220A9FED140A84ED230AD9
:10B6E00094F89800E8B394ED1C2BB0EE420AF0EE0B
:10B6F000620A94ED022BB0EE421AF0EE621A53EC9D
:10B70000102B51EC110B1CF0FDFD41EC180B0FE060
:10B71000000002404E050020001001400000000023
:10B72000D0126341F168E388B5F8E43E0000000000
:10B730001CF046FBC4F8800094ED1E2BB0EE420ACC
:10B74000F0EE620A94ED062BB0EE421AF0EE621AA9
:10B7500053EC102B51EC110B1CF0D4FD41EC180BE9
:10B7600000E003E01CF02CFBC4F8840094F86400B3
:10B77000401C84F86400BDEC048B70BD10B5044619
:10B78000FE48007848B9B52C30D1FD48FB4909780E
:10B7900044540120F949087028E0F848007801284D
:10B7A0000DD1622C07D1F648F4490978445402209F
:10B7B000F24908701AE00020F049087016E0F048DD
:10B7C000EE4909784454ED480078401CEB49087074
:10B7D00008460078642809DB00200870E848FFF775
:10B7E000A9FC18B1E649E748FFF75DFE10BD10B5AA
:10B7F0002DED048B0446E34890F86400E249097893
:10B80000884234D0DF4890F86400DF490870DD4892
:10B8100090ED0A0AB8EEC00AD0ED0D0A30EE600ACB
:10B82000F2EE040A80EE201AD84880ED001AD548BE
:10B8300090ED0B0AB8EEC00AD0ED0E0A30EE600AA9
:10B84000F2EE040A80EE201AD14880ED001ACD48AD
:10B8500090ED0C0AB8EEC00AD0ED0F0A30EE600A87
:10B86000F2EE040A80EE201ACA4880ED001AC5489C
:10B8700090ED0D0AC548D0ED000A30EE200AC1480F
:10B8800080ED0D0A90ED0E0AC148D0ED000A30EEB1
:10B89000200ABC4880ED0E0A90ED0F0ABD48D0ED9D
:10B8A000000A30EE200AB74880ED0F0A007905281B
:10B8B00042DDB44890ED0E0A10EE101A08461CF056
:10B8C0000BFE41EC190B9FEDB40B53EC102B1CF04D
:10B8D000E3F841EC180B1BF0F1FFAA494864084655
:10B8E00090ED0D0A10EE101A08461CF0F5FD41EC23
:10B8F000190B9FEDA90B53EC102B1CF0CDF841EC6C
:10B90000180B1BF0DBFF9F490864084690ED0F0AF7
:10B9100010EE101A08461CF0DFFD41EC190B9FEDEC
:10B920009E0B53EC102B1CF0B7F841EC180B1BF0DE
:10B93000C5FF9449886408E01FED840A914880EDB2
:10B94000120A80ED100A80ED110ABDEC048B10BDC7
:10B9500010B52DED048B0446914890F86400914990
:10B960000978884234D08E4890F864008D49087078
:10B970008B4890ED0A0AB8EEC00AD0ED0D0A30EE01
:10B98000600AF2EE040A80EE201A874880ED001A61
:10B99000834890ED0B0AB8EEC00AD0ED0E0A30EEE7
:10B9A000600AF2EE040A80EE201A804880ED001A48
:10B9B0007B4890ED0C0AB8EEC00AD0ED0F0A30EECD
:10B9C000600AF2EE040A80EE201A794880ED001A2F
:10B9D000734890ED0D0A7448D0ED000A30EE200A4D
:10B9E0006F4880ED0D0A90ED0E0A7048D0ED000A08
:10B9F00030EE200A6A4880ED0E0A90ED0F0A6C487E
:10BA0000D0ED000A30EE200A654880ED0F0A00797B
:10BA1000052842DD624890ED0E0A10EE101A084625
:10BA20001CF05AFD41EC190B9FED5B0B53EC102BF6
:10BA30001CF032F841EC180B1BF040FF58494864E9
:10BA4000084690ED0D0A10EE101A08461CF044FD51
:10BA500041EC190B9FED500B53EC102B1CF01CF814
:10BA600041EC180B1BF02AFF4D490864084690ED85
:10BA70000F0A10EE101A08461CF02EFD41EC190BAF
:10BA80009FED450B53EC102B1CF006F841EC180B06
:10BA90001BF014FF4249886408E01FEDDC0A4048AF
:10BAA00080ED120A80ED100A80ED110ABDEC048BC6
:10BAB00010BD10B504463F48007848B9B52C30D1C8
:10BAC0003D483C490978445401203A49087028E02F
:10BAD0003848007801280DD1622C07D13648354905
:10BAE000097844540220334908701AE00020314993
:10BAF000087016E030482149097844542D480078F0
:10BB0000401C2C49087008460078642809DB002096
:10BB100008702948FFF70EFB18B127492048FFF7A6
:10BB2000C2FC10BD00B587B001212020F7F702FA52
:10BB300001210420F7F7A4F947208DF8080001201F
:10BB40008DF8090004208DF80A0001208DF80B0003
:10BB500002A8F6F706FE082206211848F6F77DFF30
:10BB6000082207211548F6F778FF402000900220B0
:10BB70008DF804008DF80500002021E04C05002020
:10BB80000CC3002068C100205C0500205005002087
:10BB90005405002058050020000000000000594016
:10BBA00030C200206C0500206005002064050020E4
:10BBB000680500204D05002070C3002000080240E9
:10BBC0008DF8060001208DF807006946FE48F6F75B
:10BBD000B9FE8020009002208DF804008DF8050049
:10BBE00001208DF8060000208DF807006946F64810
:10BBF000F6F7A8FE0020F5490870BAE0F448F7F718
:10BC0000DDFA03A8F7F7A7FB4FF4165003900020C6
:10BC1000ADF81000ADF81200ADF814000C20ADF82E
:10BC200016000020ADF8180003A9E948F7F72DFB2E
:10BC30000121E748F7F7B1FB0620FFF7D4FAC82047
:10BC4000FEF789FC0620FFF7E1FA0021E048F7F74C
:10BC5000A4FB4FF4164003900020ADF81000ADF89F
:10BC60001200ADF814000C20ADF816000020ADF85D
:10BC7000180003A9D648F7F708FB0121D448F7F7C5
:10BC80008CFB0620FFF7AFFAC820FEF764FC062005
:10BC9000FFF7BCFA0021CE48F7F77FFB4FF4964040
:10BCA00003900020ADF81000ADF81200ADF81400BC
:10BCB0000C20ADF816000020ADF8180003A9C44808
:10BCC000F7F7E3FA0121C248F7F767FB0620FFF711
:10BCD0008AFAC820FEF73FFC0620FFF797FA0021FA
:10BCE000BB48F7F75AFB4FF4614003900020ADF8D2
:10BCF0001000ADF81200ADF814000C20ADF81600DD
:10BD00000020ADF8180003A9B148F7F7BEFA0121E9
:10BD1000AF48F7F742FB0620FFF765FAC820FEF7A9
:10BD20001AFC0620FFF772FA4FF4E130039000206E
:10BD3000ADF81000ADF81200ADF81400ADF8180021
:10BD40000C20ADF8160003A9A148F7F79EFA0121CF
:10BD50009F48F7F722FB0620FFF758FA012240F22E
:10BD600025519B48F7F7CFFB98480078401C97492E
:10BD70000870964800780528FFF640AF07B000BD70
:10BD80002DE9F84F02460024062A01DD222A30DB85
:10BD9000222A02DBA2F11B00C2B202EBC20000EBBE
:10BDA0008210DFF830924844445C4FEAE17901EBBD
:10BDB00059794FEAE90902EB820ADFF81CB20BEB72
:10BDC0004A0A1AF809804FEAE17901EB59794FEAFA
:10BDD000E909A1EBC90A4FF0800949FA0AF909EA11
:10BDE0000809B9F1000F01D0604204B22046BDE855
:10BDF000F88F072A01DBD01FC2B211B97748805CE7
:10BE0000F5E70027002500267448845C002306E03F
:10BE100072482530C05C304486B2581C83B29342CD
:10BE2000F6DB334623E06E48C05C00909DF80000CE
:10BE300000F00F079DF80000C0F3001008B1784231
:10BE400000E0384607B24FF0000C07E0E01904B2FA
:10BE5000681CC5B20CF1010000F0FF0C9DF8000059
:10BE6000BCEB501F01DC8D42F0DD581C83B25B48F7
:10BE70002530805C3044984201DD8D42D3DD204680
:10BE8000B5E72DE9F04F2DED0A8B81B0F0EE408A39
:10BE9000B0EE608A9FED530AF4EEC08AF1EE10FA1C
:10BEA00002D29FED500A0BE09FED4F0AF4EEC08ADC
:10BEB000F1EE10FA02DD9FED4C0A01E0B0EE680AE7
:10BEC000F0EE408A9FED490AB4EEC08AF1EE10FA16
:10BED00002D29FED460A0BE09FED450AB4EEC08A00
:10BEE000F1EE10FA02DD9FED420A01E0B0EE480AE1
:10BEF000B0EE408AB1EE040AC8EE800ACDED000A29
:10BF000000981CF0E9FA41EC1C0BB0EE4C0AF0EE84
:10BF10006C0A19F039FFB0EE40BAF0EE60BA9FED4E
:10BF2000350B53EC102B51EC1B0B1BF0DFFF41ECDE
:10BF30001A0B1BF045FF07B2B1EE040AC8EE000A67
:10BF4000CDED000A00981CF0C7FA41EC1C0BB0EED6
:10BF50004C0AF0EE6C0A19F017FFB0EE40BAF0EEA2
:10BF600060BA9FED240B53EC102B51EC1B0B1BF014
:10BF7000BDFF41EC1A0B1BF023FF04B207F15A007E
:10BF8000052190FBF1F000F0FF0804F1B40090FBF4
:10BF9000F1F000F0FF0949464046FFF7F1FE064682
:10BFA00009F10100C1B24046FFF7EAFE824609F1FD
:10BFB0000102D1B208F10102D0B2FFF7E1FE8346DF
:10BFC00008F10101C8B219E0000802406D05002027
:10BFD000001401404D880208278B02088B8B020851
:10BFE000D58B02080000B4C20000B442000034C384
:10BFF0000000344300000000000014404946FFF7F1
:10C00000BFFE054600EE104AB8EEC00A38EE400A00
:10C01000B1EE041AC0EE010AAAEB060000EE100A07
:10C02000B8EEC01A00EE106AB8EEC00AB0EE409A40
:10C0300000EE819A00EE104AB8EEC00A38EE400ACF
:10C04000B1EE041AC0EE010AABEB050000EE100AD7
:10C05000B8EEC01A00EE105AB8EEC00AF0EE409AE0
:10C0600040EE819A00EE107AB8EEC00A38EEC00AAF
:10C07000B1EE041AC0EE010A39EEC91AB0EE490A4F
:10C0800000EE810A01B0BDEC0A8BBDE8F08F000024
:10C0900010B588B0044601214804F6F73AFF0121A3
:10C0A0000846F6F7EDFE26208DF80C0001208DF8ED
:10C0B0000D0000208DF80E0001208DF80F0003A860
:10C0C000F6F74FFB07220221FE48F6F7C6FC0722CF
:10C0D0000321FC48F6F7C1FC0420019002208DF8F2
:10C0E00008008DF8090000208DF80A0001208DF865
:10C0F0000B0001A9F348F6F725FC08200190022067
:10C100008DF808008DF8090001208DF80A00002044
:10C110008DF80B0001A9EB48F6F714FC04940020FD
:10C12000ADF81400ADF81600ADF81800ADF81C001D
:10C130000C20ADF81A0004A9E348F7F7A6F801218E
:10C14000E148F7F72AF94021DF48F7F70EFA012214
:10C1500040F22551DC48F7F7D6F90121DA48F7F724
:10C160001CF908B010BD2DE9F0412DED048B0446FB
:10C170000D460027002604E0A05D3844C7B2701CBD
:10C18000C6B2681EB042F7DC601910F8010CB84264
:10C1900003D0BDEC048BBDE8F0812078AA2802D141
:10C1A0006078AF2800D0F4E7A07881287ED1012004
:10C1B000C64908700020C64908800120C54948705A
:10C1C0000F20FEF7D4F9C44880ED000AA07A28B900
:10C1D000C248007810B9C248007820B1C148007840
:10C1E00008B1012000E00020BF49087014F80A0FD0
:10C1F000BE4908706078000200B2A178084300EEE2
:10C20000100AB8EEC00ABA4880ED000AE0780002D1
:10C2100000B22179084300EE100AB8EEC00AB44813
:10C2200080ED010A6079000200B2A179084300EEB6
:10C23000100AB8EEC00AAE4880ED020AE0790002AA
:10C2400000B2A179084300EE100AB8EEC00AA8486F
:10C2500080ED030A607A000200B2A17A084300EE82
:10C26000100AB8EEC00AA24880ED040AE07A000283
:10C2700000B2217B084300EE100AB8EEC00A9C48C9
:10C2800080ED050A607B000200B2A17B08434042BA
:10C290000A2190FBF1F000EE100AB8EEC00A9548B2
:10C2A000D0ED000A20EE200A914800E04CE180ED3C
:10C2B000060AE07B000200B2217C084340420A21CA
:10C2C00090FBF1F000EE100AB8EEC00A8948D0EDFC
:10C2D000000A20EE200A864880ED070A607C0002F2
:10C2E00000B2A27C104300EE100AB8EEC00A10EEB5
:10C2F000101A08461CF0F0F841EC190B9FED7E0B6C
:10C3000053EC102B1BF0C8FB41EC180B1BF0D6FABA
:10C3100077498862E07C81F82600207D81F824003E
:10C32000607D81F82500A07D000200B2E27D10430F
:10C3300000EE100AB8EEC00A10EE101A08461CF003
:10C34000CBF841EC190B9FED6E0B53EC102B1BF04F
:10C35000A3FB41EC180B1BF0B1FA6B490860207E7F
:10C36000000200B2617E084300EE100AB8EEC00A77
:10C37000664880ED000AA07E65490870E07E654948
:10C3800081F83000207F000200B2627F104300EE8F
:10C39000100AB8EEC00A10EE101A08461CF09CF8FD
:10C3A00041EC190B9FED5C0B53EC102B1BF074FB55
:10C3B00041EC180B1BF082FA56494863A07F00023B
:10C3C00000B2E27F104300EE100AB8EEC00A10EE91
:10C3D000101A08461CF080F841EC190B9FED4E0B2B
:10C3E00053EC102B1BF058FB41EC180B1BF066FABA
:10C3F0004849886394F82000000200B294F8212094
:10C40000104300EE100AB8EEC00A10EE101A0846EB
:10C410001CF062F841EC190B9FED3F0B53EC102B15
:10C420001BF03AFB41EC180B1BF048FA3949C86382
:10C4300094F82200000200B294F82320104300EE8A
:10C44000100AB8EEC00A10EE101A08461CF044F8A4
:10C4500041EC190B9FED300B53EC102B1BF01CFB28
:10C4600041EC180B1BF02AFA2A49886194F8240041
:10C47000000200B294F82520104300EE100AB8EE36
:10C48000C00A10EE101A08461CF026F841EC190BF1
:10C490009FED210B53EC102B1BF0FEFA41EC180B17
:10C4A0001BF00CFA1B49C86194F82600000200B288
:10C4B00094F827200A3C104300EE100AB8EEC00A98
:10C4C0002EE000000000024000440040A2050020D1
:10C4D000A4050020609C002098050020880500200D
:10C4E0008A070020A605002000000020010000208F
:10C4F000F0C300208C050020000000000000244054
:10C500000000000000408F409005002094050020AE
:10C51000A005002024D300200000000000005940A6
:10C5200010EE101A08461BF0D7FF41EC190B1FED57
:10C53000060B53EC102B1BF0AFFA41EC180B1BF061
:10C54000BDF9FE490862A7E1A07814281BD1FC4878
:10C55000407820B9A07D012801D1F9494870F848F8
:10C56000807820B9E07D012801D1F5498870F5482F
:10C5700090F82C000028E6D1207E0128E3D1F14973
:10C5800081F82C0088E1A07882287DD120790002F2
:10C5900000B261790843EC490860A079000200B25A
:10C5A000E1790843E8494860207A000200B2617AE4
:10C5B0000843E5498860A07A000200B2E17A0843A6
:10C5C000E149C860207B000200B2617B0843DE497C
:10C5D0000861A07B000200B2E17B0843DA494861B0
:10C5E000207C000200B2617C0843D7498861A07CAE
:10C5F000000200B2E17C0843D349C861207D0002FB
:10C6000000B2617D0843D0490862A07D000200B2FB
:10C61000E17D0843CC494862207E000200B2617E81
:10C620000843C9498862A07E000200B2E17E084347
:10C63000C549C862C548407820B9607F012801D14A
:10C64000C2494870C148807820B9A07F012801D133
:10C65000BE498870BD4890F8500158B9E07F012864
:10C6600008D1BB48007828B90120B84981F85001A9
:10C67000B7490870B54890F85001002806D1E07F0E
:10C680000028FBD1B24900E001E0087004E1A07885
:10C69000832877D12079000200B26279104300EE3E
:10C6A000100AB8EEC00A10EE101A08461BF014FF6C
:10C6B00041EC190B1FED6E0B53EC102B1BF0ECF93A
:10C6C00041EC180B1BF0FAF8A2490860A0790002AF
:10C6D00000B2E279104300EE100AB8EEC00A10EE84
:10C6E000101A08461BF0F8FE41EC190B1FED7C0BED
:10C6F00053EC102B1BF0D0F941EC180B1BF0DEF8BB
:10C7000095490860207A000200B2627A104300EE78
:10C71000100AB8EEC00A10EE101A08461BF0DCFE34
:10C7200041EC190B1FED8A0B53EC102B1BF0B4F9E5
:10C7300041EC180B1BF0C2F888490860A07A00028F
:10C7400000B2E27A104300EE100AB8EEC00A10EE12
:10C75000101A08461BF0C0FE41EC190B1FED9A0B96
:10C7600053EC102B1BF098F941EC180B1BF0A6F8BA
:10C770007B490860207B7B490870607B7A490870A0
:10C780008AE0FFE7A07804287DD100207749A1F84E
:10C790006200012081F860007549087072490870D4
:10C7A00000207449088001207349487020796F493E
:10C7B00081F864006079000200B2A279104300EEB3
:10C7C000100AB8EEC00A10EE101A08461BF084FEDC
:10C7D00041EC190B1FEDB60B53EC102B1BF05CF961
:10C7E00041EC180B1BF06AF860498866E07900029A
:10C7F00000B2227A104300EE100AB8EEC00A10EE22
:10C80000101A08461BF068FE41EC190B1FEDC40B13
:10C8100053EC102B1BF040F941EC180B1BF04EF8B9
:10C820005249C866607A000200B2A27A104300EE54
:10C83000100AB8EEC00A10EE101A08461BF04CFEA3
:10C8400041EC190B1FEDD20B53EC102B1BF024F90C
:10C8500041EC180B1BF032F844490867E07A0002FB
:10C8600000B2227B104300EE100AB8EEC00A10EEB0
:10C87000101A08461BF030FE41EC190B1FEDDA0BC5
:10C8800053EC102B00E007E01BF006F941EC180B0D
:10C890001BF014F83549486700BF7AE42DE9F041F0
:10C8A0002DED0A8B04460D460027002604E0A05D0E
:10C8B0003844C7B2701CC6B2681EB042F7DC6019BB
:10C8C00010F8010CB84204D00026BDEC0A8BBDE87C
:10C8D000F0812078AA2802D16078AF2801D0002604
:10C8E000F3E7A07801287DD1214908701E4908701E
:10C8F00000202249A1F84A00012081F848001020B8
:10C90000FDF735FE1D4880ED140A1D48007808B972
:10C91000012000E000201A4908702079000200B2CE
:10C920006279104300EE100AB8EEC00A10EE101A39
:10C9300008461BF0D1FD41EC1B0B23E024D3002063
:10C9400044E90020100C0020DCC60020C0DF0020DD
:10C950008C070020600C0020540C0020500C00209C
:10C960009C0500207F070020A1050020A8D60020FC
:10C97000A2050020A4050020609C002020D70020F4
:10C98000A80700209FEDFE0B53EC102B1BF084F842
:10C9900041EC1A0B1AF092FFFB490860A0790002E3
:10C9A00000B2E279104300EE100AB8EEC00A10EEB1
:10C9B000101A08461BF090FD41EC1B0B9FEDF00B8D
:10C9C00053EC102B1BF068F841EC1A0B1AF076FFB1
:10C9D000ED494860207A000200B2627A104300EE0E
:10C9E000100A00E0F3E1B8EEC00AF7EE000A20EE0C
:10C9F000200A10EE101A08461BF06EFD41EC1C0BCD
:10CA00009FEDDF0B53EC102B1BF046F841EC1B0B9A
:10CA10001AF054FF0AEE100AB0EE4A0A10F032FC87
:10CA2000D94880ED020AA07A000200B2E27A1043EF
:10CA300000EE100AB8EEC00A10EE101A08461BF0FD
:10CA40004BFD41EC1B0B9FEDD10B53EC102B1BF05E
:10CA500023F841EC1A0B1AF031FFCB490862CD489C
:10CA600090ED080ACC48D0ED000AB4EE600AF1EE71
:10CA700010FA20D1C94890ED000A0846D0ED000A0E
:10CA8000B4EE600AF1EE10FA15D1C44890ED010A37
:10CA90000846D0ED010AB4EE600AF1EE10FA0AD1B0
:10CAA000BE4890ED020A0846D0ED020AB4EE600AD4
:10CAB000F1EE10FA06D00020B349A1F84C00012095
:10CAC00081F84900B04890ED080AB34880ED000AAB
:10CAD000AD4890ED000AB14880ED000AAA4890EDFB
:10CAE000010AAE4880ED010AA74890ED020AAB4862
:10CAF00080ED020A14F80C0F000200B262781043B5
:10CB000000EE100AB8EEC00A10EE101A08461BF02C
:10CB1000E3FC41EC1B0B9FED9D0B53EC102B1AF02B
:10CB2000BBFF41EC1A0B1AF0C9FE97494862E17845
:10CB3000A27841EA02201BF072F941EC180B21792E
:10CB40000906627941EA0241A27941EA0221E279C9
:10CB500041EA02001BF07AF941EC1A0B9FED900BB1
:10CB600053EC102B1AF098FF41EC190B53EC192BD6
:10CB700051EC180B1AF0D4FE834AC2E90401617A21
:10CB8000227A41EA02201BF04AF941EC180BA17A03
:10CB90000906E27A41EA0241227B41EA0221627BF4
:10CBA00041EA02001BF052F941EC1A0B9FED7C0B9D
:10CBB00053EC102B1AF070FF41EC190B53EC192BAE
:10CBC00051EC180B1AF0ACFE6F4AC2E90601A07BCB
:10CBD000000200B2E17B084300EE100AB8EEC00A82
:10CBE000104680ED0B0A207C000200B2617C0843F5
:10CBF00000EE100AB8EEC00ABDEEC00A104680ED85
:10CC00000D0AA07C000200B2E17C084300EE100A8D
:10CC1000B8EEC00ABDEEC00A104680ED0E0A207DB7
:10CC2000000200B2617D084300EE100AB8EEC00AAF
:10CC3000BDEEC00A104680ED110AA07D000200B2D0
:10CC4000E17D084300EE100AB8EEC00ABDEEC00A4E
:10CC5000104680ED100A207E000200B2617E08437B
:10CC600000EE100AB8EEC00ABDEEC00A104680ED14
:10CC70000F0AA07E000200B2E17E084300EE100A17
:10CC8000B8EEC00ABDEEC00A104680ED0C0A207F47
:10CC90000C3C114681F82900084690ED041BB0EECB
:10CCA000410AF0EE610A9FED401B53EC112B51EC51
:10CCB000100B1BF049F814D0334890ED061BB0EE72
:10CCC000410AF0EE610A9FED381B53EC112B51EC39
:10CCD000100B1BF039F804D003202B4981F82800F1
:10CCE00004E094F82900284981F8280014F82A0F54
:10CCF000000200B26278104300EE100AB8EEC00ADB
:10CD000010EE101A08461BF0E7FB41EC1B0B9FEDE1
:10CD10001F0B53EC102B1AF0BFFE41EC1A0B1AF04C
:10CD2000CDFD19494865A078000200B2E2781043B1
:10CD300000EE100AB8EEC00A10EE101A08461BF0FA
:10CD4000CBFB41EC1B0B9FED110B53EC102B1AF09E
:10CD5000A3FE41EC1A0B1AF0B1FD0B49886520794E
:10CD6000000200B262792A3C104300EE100AB8EECD
:10CD7000C00A10EE101A08461BF0AEFB18E00000C7
:10CD8000000000000000244020D700200000000028
:10CD900000408F40A8D60020B0070020F0DE002021
:10CDA0000000000065CDCD41000000000000000043
:10CDB00041EC1B0B1FED0B0B53EC102B1AF06CFE10
:10CDC00041EC1A0B1AF07AFDFD49C865D1E0A07854
:10CDD000212873D10120FB4981F826000020A1F809
:10CDE0004400207981F824006079000200B2A17922
:10CDF000084300EE100AB8EEC00AF24880ED000ABF
:10CE0000E079000200B2217A084300EE100AB8EE81
:10CE1000C00AEC4880ED010A607A000200B2A17AF3
:10CE2000084300EE100AB8EEC00AE64880ED020A98
:10CE3000E07A000200B2217B084300EE100AB8EE4F
:10CE4000C00AE04880ED030A607B000200B2A17BCB
:10CE5000084300EE100AB8EEC00ADA4880ED040A72
:10CE6000E07B000200B2217C084300EE100AB8EE1D
:10CE7000C00AD44880ED050A90F8240058B3617CBC
:10CE8000090209B2A27C41EA0200002801DD014644
:10CE900000E04142B1F57A7F06DA00EE100AB8EE02
:10CEA000C00AC84981ED0B0AE17C090209B2227D62
:10CEB00041EA0200002802DD014601E026E041428D
:10CEC000B1F57A7F06DA00EE100AB8EEC00ABD4965
:10CED00081ED0C0A00BF607E000200B2A17E084313
:10CEE000404200EE100AB8EEC00AB64880ED0D0AC6
:10CEF000E07E000200B2217F0843404200EE100AAB
:10CF0000B8EEC00AAF4880ED0E0A32E0A07867287C
:10CF10002FD12079000200B26179084300EE100A97
:10CF2000B8EEC00AA84880ED000AA079000200B25D
:10CF3000E179084300EE100AB8EEC00AA24880ED7D
:10CF4000010A207A000200B2617A084300EE100A5A
:10CF5000B8EEC00A9C4880ED020AA07A000200B236
:10CF6000E17A084300EE100AB8EEC00A964880ED58
:10CF7000030A00BFA9E410B5F8F7E3FA9348008864
:10CF800000F0080018B19148001D0088C4B240F2BA
:10CF900025518E48F6F7F2FA00287AD040F2255152
:10CFA0008A48F6F726FB8948001D0088C4B28848E5
:10CFB000007838B9AA2C05D1012085490870854828
:10CFC000047066E082480078012807D1AF2C05D1B3
:10CFD00002207F4908707F4844705AE07C480078FE
:10CFE000022809D1002C07DDF12C05DA032078494D
:10CFF0000870784884704CE07548007803280CD19C
:10D000003C2C0ADA0420724908707248C4707248D5
:10D0100004700020714908703BE06D4800780428D6
:10D0200019D16D480078002815DD6B480078401E46
:10D03000694908706948007868490978491C674A55
:10D040001170001D63490C546348007808BB05202B
:10D050005F4908701DE05E480078052816D1002061
:10D060005B4908705D480078001D5A490C545B48C4
:10D070000078401DC1B25748FFF775F8574800784F
:10D08000401DC1B25348FFF709FC02E0002050499F
:10D090000870F8F771FA10BD10B5044600BF802182
:10D0A0004A48F6F755FA0028F9D021464748F6F7DE
:10D0B0009FF910BD70B505460E46002404E0285DBA
:10D0C000FFF7EAFF601C84B2B442F8DB70BD70B5B4
:10D0D0002DED028B90B000260024AA222146641C6C
:10D0E00003A84254AF222146641C42541222214616
:10D0F000641C425400222146641C4254384890ED7E
:10D10000030ABDEEC00A10EE100A00B202909DF8AC
:10D1100008202146641C03A84254324890ED020ABC
:10D12000DFED310A20EE200ABDEEC00A10EE100A33
:10D1300000B202909DF809202146641C03A84254C5
:10D140009DF808202146641C4254264890ED030AAD
:10D15000DFED250A20EE200ABDEEC00A10EE100A0F
:10D1600000B202909DF809202046611CCCB203A9B0
:10D170000A549DF808202046611CCCB203A90A5429
:10D180001A4890ED000ADFED180A20EE200ABDEEE5
:10D19000C00A10EE100A00B202909DF80920204645
:10D1A000611CCCB203A90A549DF808202046611CDA
:10D1B000CCB203A90A540D4890ED010A18E0000012
:10D1C00020D70020F0C30020CCD90020004400402C
:10D1D000A70500200CC70020AC050020AD050020ED
:10D1E00008DD002014C6002000007A44B495002019
:10D1F0005FED030A20EE200ABDEEC00A10EE100A11
:10D2000000B202909DF809202046611CCCB203A90F
:10D210000A549DF808202046611CCCB203A90A5488
:10D22000FE48406890ED000ADFEDFD0A20EE200A7E
:10D23000BDEEC00A10EE100A00B202909DF809205F
:10D240002046611CCCB203A90A549DF80820204650
:10D25000611CCCB203A90A54F248406890ED000A60
:10D26000DFEDEF0A20EE200ABDEEC00A10EE100A34
:10D2700000B202909DF809202046611CCCB203A99F
:10D280000A549DF808202046611CCCB203A90A5418
:10D29000E548406890ED010A5FED2D0A20EE200A76
:10D2A000BDEEC00A10EE100A00B202909DF80920EF
:10D2B0002046611CCCB203A90A549DF808202146DF
:10D2C000601CC4B203A84254D84890ED000A5FED38
:10D2D0003A0A20EE200ABDEEC00A10EE100A00B293
:10D2E00002909DF809202046611CCCB203A90A5483
:10D2F0009DF808202046611CCCB203A90A54CC48F2
:10D30000406890ED010A5FED480A20EE200ABDEE6C
:10D31000C00A10EE100A00B202909DF809202046C3
:10D32000611CCCB203A90A549DF808202046611C58
:10D33000CCB203A90A54BE48406890ED000A5FEDE4
:10D34000560A20EE200ABDEEC00A8DED010A9DF8B6
:10D3500007202046611CCCB203A90A549DF8062080
:10D360002046611CCCB203A90A549DF80520204632
:10D37000611CCCB203A90A549DF804202046611C0C
:10D38000CCB203A90A54AB48D0F8180490ED050AB2
:10D390005FED6B0A20EE200ABDEEC00A10EE100A07
:10D3A00000B202909DF809202046611CCCB203A96E
:10D3B0000A549DF808202046611CCCB203A90A54E7
:10D3C0009C48D0F8180490ED020A5FED790A20EE2F
:10D3D000200ABDEEC00A8DED010A9DF80720204607
:10D3E000611CCCB203A90A549DF806202046611C9A
:10D3F000CCB203A90A549DF805202046611CCCB28A
:10D4000003A90A549DF804202046611CCCB203A94C
:10D410000A54894890ED000A5FED8D0A20EE200A3B
:10D42000BDEEC00A10EE100A00B202909DF809206D
:10D430002046611CCCB203A90A549DF8082020465E
:10D44000611CCCB203A90A547B4890ED010A5FED40
:10D450009A0A20EE200ABDEEC00A10EE100A00B2B1
:10D4600002909DF809202046611CCCB203A90A5401
:10D470009DF808202046611CCCB203A90A546F48CD
:10D4800090ED021BB0EE410AF0EE610A9FED6C1BBD
:10D4900053EC112B51EC100B1AF028FD41EC180B3A
:10D4A0001AF08EFC00B202909DF809202046611C03
:10D4B000CCB203A90A549DF808202046611CCCB2C6
:10D4C00003A90A545D4890ED081BB0EE410AF0EE46
:10D4D000610A9FED5B1B53EC112B51EC100B1AF002
:10D4E00005FD41EC180B1AF06BFC00B202909DF8A0
:10D4F00009202046611CCCB203A90A549DF80820DB
:10D500002046611CCCB203A90A544F4890ED061B7B
:10D51000B0EE410AF0EE610A9FED491B53EC112B6E
:10D5200051EC100B1AF0E2FC41EC180B1AF048FC1D
:10D5300000B202909DF809202046611CCCB203A9DC
:10D540000A549DF808202046611CCCB203A90A5455
:10D550003D4890ED081BB0EE410AF0EE610A9FEDE8
:10D56000381B53EC112B51EC100B1AF0BFFC41ECA3
:10D57000180B1AF025FC00B202909DF809202046F5
:10D58000611CCCB203A90A549DF808202046611CF6
:10D59000CCB203A90A542D4890ED0E0ABDEEC00A84
:10D5A00010EE100A00B202909DF809202046611C7E
:10D5B000CCB203A90A549DF808202046611CCCB2C5
:10D5C00003A90A54214890ED0F0ABDEEC00A10EEDF
:10D5D000100A00B202909DF809202046611CCCB2CE
:10D5E00003A90A549DF808202046611CCCB203A967
:10D5F0000A54164890ED100ABDEEC00A10EE100A4B
:10D6000000B202909DF809202046611CCCB203A90B
:10D610000A549DF808202046611C19E008140020D7
:10D620000000C84210140020F813002070140020DD
:10D6300000140020B0FD00203812002090FC0020D3
:10D640000000000000408F4010FD0020E8D70020BF
:10D65000CCB203A90A54201FC0B28DF80F000025D8
:10D6600005E003A8405D3044C6B2681CC5B2A542BF
:10D67000F7DB2046611CCCB203A90E54214603A857
:10D68000FFF718FD10B0BDEC028B70BD70B58EB009
:10D6900000260024AA222146641C01A84254AF227D
:10D6A0002146641C425402222146641C425400223A
:10D6B0002146641C4254FE4890ED0D0ABDEEC00A9E
:10D6C00010EE100A00B200909DF801202146641C63
:10D6D00001A842549DF800202146641C4254F4489D
:10D6E00090ED0E0ABDEEC00A10EE100A00B20090D6
:10D6F0009DF801202146641C01A842549DF8002099
:10D700002046611CCCB201A90A54E94890ED0F0AE9
:10D71000BDEEC00A10EE100A00B200909DF8012084
:10D720002046611CCCB201A90A549DF80020204675
:10D73000611CCCB201A90A54DD4890ED100ABDEE7F
:10D74000C00A10EE100A00B200909DF80120204699
:10D75000611CCCB201A90A549DF800202046611C2E
:10D76000CCB201A90A54D24890ED110ABDEEC00A0C
:10D7700010EE100A00B200909DF801202046611CB6
:10D78000CCB201A90A549DF800202046611CCCB2FD
:10D7900001A90A54C64890ED120ABDEEC00A10EE67
:10D7A000100A00B200909DF801202046611CCCB206
:10D7B00001A90A549DF800202046611CCCB201A9A1
:10D7C0000A54BC4890ED020ABDEEC00A10EE100AE1
:10D7D00000B200909DF801202046611CCCB201A946
:10D7E0000A549DF800202046611CCCB201A90A54BD
:10D7F000B04890ED030ABDEEC00A10EE100A00B268
:10D8000000909DF801202046611CCCB201A90A5469
:10D810009DF800202046611CCCB201A90A54A548FD
:10D8200090ED040ABDEEC00A10EE100A00B200909E
:10D830009DF801202046611CCCB201A90A549DF834
:10D8400000202046611CCCB201A90A54994890EDF1
:10D85000050ADFED990A20EE200ABDEEC00A10EE9F
:10D86000100A00B200909DF801202046611CCCB245
:10D8700001A90A549DF800202046611CCCB201A9E0
:10D880000A548C4890ED060ADFED8B0A20EE200A40
:10D89000BDEEC00A10EE100A00B200909DF8012003
:10D8A0002046611CCCB201A90A549DF800202046F4
:10D8B000611CCCB201A90A547E4890ED070ADFED45
:10D8C0007E0A20EE200ABDEEC00A10EE100A00B259
:10D8D00000909DF801202046611CCCB201A90A5499
:10D8E0009DF800202046611CCCB201A90A540020FA
:10D8F00000909DF801202046611CCCB201A90A5479
:10D900009DF800202046611CCCB201A90A54201FBA
:10D91000C0B28DF80700002505E001A8405D304445
:10D92000C6B2681CC5B2A542F7DB2046611CCCB26A
:10D9300001A90E54214601A8FFF7BCFB0EB070BD33
:10D9400070B590B000260024AA222146641C03A8CA
:10D950004254AF222146641C425410222146641CCA
:10D96000425400222146641C4254544890ED040A5B
:10D97000BDEEC00A10EE100A00B202909DF8092018
:10D980002146641C03A842549DF808202146641CCB
:10D9900042544A4890ED050ABDEEC00A10EE100A46
:10D9A00000B202909DF809202146641C03A842544D
:10D9B0009DF808202046611CCCB203A90A543F48B8
:10D9C00090ED060ABDEEC00A10EE100A00B20290F9
:10D9D0009DF809202046611CCCB203A90A549DF889
:10D9E00008202046611CCCB203A90A54334890EDAC
:10D9F000070ABDEEC00A10EE100A00B202909DF8B0
:10DA000009202046611CCCB203A90A549DF80820C5
:10DA10002046611CCCB203A90A54284890ED080A9C
:10DA2000BDEEC00A10EE100A00B202909DF8092067
:10DA30002046611CCCB203A90A549DF80820204658
:10DA4000611CCCB203A90A541C4890ED090ABDEE32
:10DA5000C00A10EE100A00B202909DF8092020467C
:10DA6000611CCCB203A90A549DF808202046611C11
:10DA7000CCB203A90A54114890ED240ABDEEC00AA5
:10DA800010EE100A00B202909DF809202046611C99
:10DA9000CCB203A90A549DF808202046611CCCB2E0
:10DAA00003A90A54054890ED250ABDEEC00A07E017
:10DAB00044E90020100C002000007A44BCEA002059
:10DAC00010EE100A00B202909DF809202046611C59
:10DAD000CCB203A90A549DF808202046611CCCB2A0
:10DAE00003A90A54FE4890ED260ABDEEC00A10EEC6
:10DAF000100A00B202909DF809202046611CCCB2A9
:10DB000003A90A549DF808202046611CCCB203A941
:10DB10000A54F448008800B202909DF8092020467B
:10DB2000611CCCB203A90A549DF808202046611C50
:10DB3000CCB203A90A54EC48006801909DF8072074
:10DB40002046611CCCB203A90A549DF80620204649
:10DB5000611CCCB203A90A549DF805202046611C23
:10DB6000CCB203A90A549DF804202046611CCCB213
:10DB700003A90A54DD4890ED000A5FED310A20EE5A
:10DB8000200ABDEEC00A10EE100A00B202909DF805
:10DB900009202046611CCCB203A90A549DF8082034
:10DBA0002046611CCCB203A90A54D04890ED010A6A
:10DBB0005FED3F0A20EE200ABDEEC00A10EE100A0B
:10DBC00000B202909DF809202046611CCCB203A946
:10DBD0000A549DF808202046611CCCB203A90A54BF
:10DBE000C24890ED020A5FED4C0A20EE200ABDEE1D
:10DBF000C00A10EE100A00B202909DF809202046DB
:10DC0000611CCCB203A90A549DF808202046611C6F
:10DC1000CCB203A90A54B54890ED030A5FED5A0A45
:10DC200020EE200ABDEEC00A10EE100A00B20290EB
:10DC30009DF809202046611CCCB203A90A549DF826
:10DC400008202046611CCCB203A90A54A84890EDD4
:10DC5000010A5FED670A20EE200ABDEEC00A10EE51
:10DC6000100A00B202909DF809202046611CCCB237
:10DC700003A90A549DF808202046611CCCB203A9D0
:10DC80000A54201FC0B28DF80F00002505E003A83C
:10DC9000405D3044C6B2681CC5B2A542F7DB2046E1
:10DCA000611CCCB203A90E54214603A8FFF702FA67
:10DCB00010B070BD70B58EB000260024AA22214697
:10DCC000641C01A84254AF222146641C4254112214
:10DCD0002146641C425400222146641C425485485B
:10DCE00090ED000AF2EE040A20EE200ABDEEC00A12
:10DCF00010EE100A00B200909DF801202146641C2D
:10DD000001A842549DF800202146641C42547A48E0
:10DD100090ED000AF2EE040A20EE200ABDEEC00AE1
:10DD200010EE100A00B200909DF801202146641CFC
:10DD300001A842549DF800202046611CCCB201A9E4
:10DD40000A546E4890ED000AF2EE040A20EE200A12
:10DD5000BDEEC00A10EE100A00B200909DF801203E
:10DD60002046611CCCB201A90A549DF8002020462F
:10DD7000611CCCB201A90A54614890ED000A5FED24
:10DD8000B20A20EE200ABDEEC00A10EE100A00B260
:10DD900000909DF801202046611CCCB201A90A54D4
:10DDA0009DF800202046611CCCB201A90A545448B9
:10DDB00090ED010A5FEDC00A20EE200ABDEEC00A18
:10DDC00010EE100A00B200909DF801202046611C60
:10DDD000CCB201A90A549DF800202046611CCCB2A7
:10DDE00001A90A54464890ED020A5FEDCD0A20EEE3
:10DDF000200ABDEEC00A10EE100A00B200909DF895
:10DE000001202046611CCCB201A90A549DF80020D3
:10DE10002046611CCCB201A90A54394890ED030A8E
:10DE20005FEDDB0A20EE200ABDEEC00A10EE100AFC
:10DE300000B200909DF801202046611CCCB201A9DF
:10DE40000A549DF800202046611CCCB201A90A5456
:10DE50002C4890ED000AF2EE040A20EE200ABDEEF6
:10DE6000C00A10EE100A00B200909DF80120204672
:10DE7000611CCCB201A90A549DF800202046611C07
:10DE8000CCB201A90A54204890ED000AF2EE040A2F
:10DE900020EE200ABDEEC00A10EE100A00B200907B
:10DEA0009DF801202046611CCCB201A90A549DF8BE
:10DEB00000202046611CCCB201A90A54134890ED01
:10DEC000000AF2EE040A20EE200ABDEEC00A10EEAF
:10DED000100A00B200909DF801202046611C17E056
:10DEE000BCEA0020E40B0020DC070020C4950020E1
:10DEF000F8030020C8100020C4100020CC1000201F
:10DF0000DC100020D4100020D0100020D8100020F9
:10DF1000CCB201A90A549DF800202046611CCCB265
:10DF200001A90A54FE4890ED000ADFEDFE0A20EE3A
:10DF3000200ABDEEC00A10EE100A00B200909DF853
:10DF400001202046611CCCB201A90A549DF8002092
:10DF50002046611CCCB201A90A54F14890ED010A97
:10DF6000DFEDF00A20EE200ABDEEC00A10EE100A26
:10DF700000B200909DF801202046611CCCB201A99E
:10DF80000A549DF800202046611CCCB201A90A5415
:10DF9000E34890ED020ADFEDE30A20EE200ABDEE31
:10DFA000C00A10EE100A00B200909DF80120204631
:10DFB000611CCCB201A90A549DF800202046611CC6
:10DFC000CCB201A90A54D64890ED030ADFEDD50A78
:10DFD00020EE200ABDEEC00A10EE100A00B200903A
:10DFE0009DF801202046611CCCB201A90A549DF87D
:10DFF00000202146601CC4B201A84254201FC0B2B8
:10E000008DF80700002505E001A8405D3044C6B248
:10E01000681CC5B2A542F7DB2046611CCCB201A941
:10E020000E54214601A8FFF745F80EB070BD2DE94A
:10E03000F04F8EB004460D46DDE919C8DDE91767DB
:10E040004FF0000900204FF0AA0B8646401C0DF14E
:10E05000040A0AF80EB04FF0AF0B8646401C0AF8CF
:10E060000EB04FF0010B8646401C0AF80EB04FF080
:10E07000000B8646401C0AF80EB0DFF8ACA2DAF8B6
:10E0800000A0BAF1000F04D04FF0010ACDF800A0B3
:10E0900005E0DFF898A29AF800A0CDF800A09DF85E
:10E0A00000B0824600F1010E0EF0FF000DF1040EEB
:10E0B0000EF80AB0DFF870A2DAF800A0BAF1000F8B
:10E0C00008D0DFF864A2BAF804A00FFA8AFACDF8F3
:10E0D00000A004E00094DFF858A2AAF800409DF8E0
:10E0E00001B0824600F1010E0EF0FF000DF1040EAA
:10E0F0000EF80AB09DF800B0824600F1010E0EF055
:10E10000FF000DF1040E0EF80AB0DFF81CA2DAF8D9
:10E1100000A0BAF1000F08D0DFF80CA2BAF808A0EE
:10E120000FFA8AFACDF800A004E00095DFF800A20B
:10E13000AAF802509DF801B0824600F1010E0EF0DF
:10E14000FF000DF1040E0EF80AB09DF800B08246F3
:10E1500000F1010E0EF0FF000DF1040E0EF80AB0F2
:10E16000DFF8C4A1DAF800A0BAF1000F08D0DFF898
:10E17000B8A1BAF80CA00FFA8AFACDF800A004E012
:10E180000092DFF8ACA1AAF804209DF801B0824605
:10E1900000F1010E0EF0FF000DF1040E0EF80AB0B2
:10E1A0009DF800B0824600F1010E0EF0FF000DF167
:10E1B000040E0EF80AB0DFF870A1DAF800A0BAF188
:10E1C000000F08D0DFF860A1BAF810A00FFA8AFAA1
:10E1D000CDF800A004E00093DFF854A1AAF80630BF
:10E1E0009DF801B0824600F1010E0EF0FF000DF126
:10E1F000040E0EF80AB09DF800B0824600F1010E40
:10E200000EF0FF000DF1040E0EF80AB0DFF818A1B1
:10E21000DAF800A0BAF1000F08D0DFF80CA1BAF8C4
:10E2200014A00FFA8AFACDF800A004E00096DFF8F7
:10E2300000A1AAF808609DF801B0824600F1010E25
:10E240000EF0FF000DF1040E0EF80AB09DF800B0BC
:10E25000824600F1010E0EF0FF000DF1040E0EF8E3
:10E260000AB0DFF8C4A0DAF800A0BAF1000F08D0B5
:10E27000DFF8B4A0BAF818A00FFA8AFACDF800A017
:10E2800004E00097DFF8A8A0AAF80A709DF801B092
:10E29000824600F1010E0EF0FF000DF1040E0EF8A3
:10E2A0000AB09DF800B0824600F1010E0EF0FF00AA
:10E2B0000DF1040E0EF80AB0DFF86CA0DAF800A039
:10E2C000BAF1000F08D0DFF860A0BAF81CA00FFA6E
:10E2D0008AFACDF800A005E0CDF800C0DFF850A024
:10E2E000AAF80CC09DF801B0824600F1010E0EF0B4
:10E2F000FF000DF1040E0EF80AB09DF800B0824642
:10E3000000F1010E0EF0FF000DF1040E0EF80AB040
:10E31000DFF814A0DAF800A0BAF1000F13D009E07A
:10E32000B811002000007A4498D700208A07002006
:10E3300048C70020DFF8B8A6BAF820A00FFA8AFA7A
:10E34000CDF800A005E0CDF80080DFF8A8A6AAF877
:10E350000E809DF801B0824600F1010E0EF0FF0024
:10E360000DF1040E0EF80AB09DF800B0824600F1DF
:10E37000010E0EF0FF000DF1040E0EF80AB0DFF8EA
:10E3800070A6DAF800A0BAF1000F08D0DFF860A696
:10E39000BAF824A00FFA8AFACDF800A007E0DDF859
:10E3A0006CA0CDF800A0DFF84CB6ABF810A09DF83B
:10E3B00001B0824600F1010E0EF0FF000DF1040ED7
:10E3C0000EF80AB09DF800B0824600F1010E0EF082
:10E3D000FF000DF1040E0EF80AB0DFF81CA69AED4E
:10E3E0000E0ABDEEC00A10EE10AA0FFA8AFACDF896
:10E3F00000A09DF801B0824600F1010E0EF0FF0072
:10E400000DF1040E0EF80AB09DF800B0824600F13E
:10E41000010E0EF0FF000DF1040E0EF80AB0DFF849
:10E42000D8A59AED0F0ABDEEC00A10EE10AA0FFA99
:10E430008AFACDF800A09DF801B0824600F1010EE5
:10E440000EF0FF000DF1040E0EF80AB09DF800B0BA
:10E45000824600F1010E0EF0FF000DF1040E0EF8E1
:10E460000AB0DFF894A59AED100ABDEEC00A10EECE
:10E4700010AA0FFA8AFACDF800A09DF801B08246E2
:10E4800000F1010E0EF0FF000DF1040E0EF80AB0BF
:10E490009DF800B0824600F1010E0EF0FF000DF174
:10E4A000040E0EF80AB0DFF854A59AF807B08246B9
:10E4B00000F1010E0EF0FF000DF1040E0EF80AB08F
:10E4C000DFF838A59AF806B0824600F1010E0EF08A
:10E4D000FF000DF1040E0EF80AB0DFF820A59AF83F
:10E4E00008A0BAF1000F06D1DFF810A59AF809A02C
:10E4F000BAF1000F02D04FF0010B01E04FF0000B1A
:10E50000824600F1010E0EF0FF000DF1040E0EF830
:10E510000AB0DFF8E8A49AF80AB0824600F1010ECA
:10E520000EF0FF000DF1040E0EF80AB0DFF8CCA4D7
:10E530009AF800B0824600F1010E0EF0FF000DF1D6
:10E54000040E0EF80AB0DFF8B4A49AF802B08246BE
:10E5500000F1010E0EF0FF000DF1040E0EF80AB0EE
:10E56000DFF898A49AF803B0824600F1010E0EF08D
:10E57000FF000DF1040E0EF80AB0DFF880A49AF83F
:10E5800004B0824600F1010E0EF0FF000DF1040E02
:10E590000EF80AB0A0F1040A0AF0FF0A8DF807A0ED
:10E5A00000210AE00DF1040A1AF801A0CA440AF099
:10E5B000FF0901F1010A0AF0FF018142F2DB824604
:10E5C00000F1010B0BF0FF000DF1040B0BF80A90AA
:10E5D0000EB0BDE8F08F70B52DED028B90B0002627
:10E5E0000024AA222146641C03A84254AF222146DB
:10E5F000641C425414222146641C425400222146C9
:10E60000641C4254FE49086849689FEDFE1B53ECA8
:10E61000112B19F06BFC19F0D3FB01909DF807202A
:10E620002146641C03A842549DF806202146641C20
:10E6300042549DF805202146641C42549DF8042054
:10E640002046611CCCB203A90A54ED490939086877
:10E6500049689FEDEC1B53EC112B19F047FC19F0A6
:10E66000AFFB01909DF807202046611CCCB203A9A6
:10E670000A549DF806202046611CCCB203A90A5416
:10E680009DF805202046611CCCB203A90A549DF8D0
:10E6900004202046611CCCB203A90A54D8484E3845
:10E6A000D0F8760000EE100ADFEDD80A20EE200A3E
:10E6B000BDEEC00A10EE100A00B202909DF80920CB
:10E6C0002046611CCCB203A90A549DF808202046BC
:10E6D000611CCCB203A90A54C9484E38D0F87A005C
:10E6E00000EE100AF2EE040A20EE200ABDEEC00A87
:10E6F00010EE100A00B202909DF809202046611C1D
:10E70000CCB203A90A549DF808202046611CCCB263
:10E7100003A90A54BA484E3890F8570002909DF861
:10E7200008202046611CCCB203A90A54B4484E38D4
:10E7300090F8580002909DF808202046611CCCB249
:10E7400003A90A54AE484E38407802909DF808203C
:10E750002046611CCCB203A90A54201FC0B28DF818
:10E760000F00002505E003A8405D3044C6B2681CD8
:10E77000C5B2A542F7DB2046611CCCB203A90E54FA
:10E78000214603A8FEF796FC10B0BDEC028B70BDCD
:10E79000F0B52DED068B8FB000260024AA2221466D
:10E7A000641C02A84254AF222146641C4254042235
:10E7B0002146641C425400222146641C4254944861
:10E7C00090ED000AF2EE040A20EE200ABDEEC00A27
:10E7D00010EE100A00B201909DF805202146641C3D
:10E7E00002A842549DF804202146641C42548848E3
:10E7F00090ED010AF2EE040A20EE200ABDEEC00AF6
:10E8000010EE100A00B201909DF805202146641C0C
:10E8100002A842549DF804202046611CCCB202A9F3
:10E820000A547B4890ED020AF2EE040A20EE200A18
:10E83000BDEEC00A10EE100A00B201909DF805204E
:10E840002046611CCCB202A90A549DF8042020463F
:10E85000611CCCB202A90A546D4890ED080ADFEDA4
:10E860006D0A20EE200ABDEEC00A10EE100A00B2BA
:10E8700001909DF805202046611CCCB202A90A54E3
:10E880009DF804202046611CCCB202A90A546248BB
:10E8900090ED010AF2EE040A20EE200ABDEEC00A55
:10E8A00010EE100A00B201909DF805202046611C70
:10E8B000CCB202A90A549DF804202046611CCCB2B7
:10E8C00002A90A54524890ED041BB0EE410AF0EE42
:10E8D000610A51EC100B19F073FA00B201909DF827
:10E8E00005202046611CCCB202A90A549DF80420E0
:10E8F0002046611CCCB202A90A54454890ED041B85
:10E90000B0EE410AF0EE610A51EC100B19F058FA22
:10E91000074619F084FA41EC1A0B3D4890ED041BB0
:10E92000B0EE410AF0EE610A53EC102B51EC1A0BD9
:10E9300019F010FC41EC190B9FED380B53EC102B28
:10E9400019F0D4FA41EC180B19F03AFA00909DF83E
:10E9500003202046611CCCB202A90A549DF8022073
:10E960002046611CCCB202A90A549DF80120204621
:10E97000611CCCB202A90A549DF800202046611CFB
:10E98000CCB202A90A54224890ED061BB0EE410A0F
:10E99000F0EE610A51EC100B19F012FA00B201907E
:10E9A0009DF805202046611CCCB202A90A549DF8AE
:10E9B00004202046611CCCB202A90A54144890EDF0
:10E9C000061BB0EE410AF0EE610A51EC100B19F093
:10E9D000F7F9074619F023FA41EC1A0B0C4890EDB1
:10E9E000061BB0EE410AF0EE610A53EC102B19E061
:10E9F00098D7002048C70020E8D70020609C00205E
:10EA00000ED2002000000000D01263410000C84276
:10EA1000A8D6002000007A44C00B012000000000AE
:10EA200065CDCD4151EC1A0B19F094FB41EC190B5B
:10EA30001FED060B53EC102B19F058FA41EC180B94
:10EA400019F0BEF900909DF803202046611CCCB25D
:10EA500002A90A549DF802202046611CCCB202A9EA
:10EA60000A549DF801202046611CCCB202A90A5428
:10EA70009DF800202046611CCCB202A90A54FE4831
:10EA800090ED0B0ABDEEC00A10EE100A00B2019024
:10EA90009DF805202046611CCCB202A90A549DF8BD
:10EAA00004202046611CCCB202A90A54F248008E10
:10EAB00000B201909DF805202046611CCCB202A94D
:10EAC0000A549DF804202046611CCCB202A90A54C5
:10EAD000E948808E00B201909DF805202046611C17
:10EAE000CCB202A90A549DF804202046611CCCB285
:10EAF00002A90A54E048008F00B201909DF8052059
:10EB00002046611CCCB202A90A549DF8042020467C
:10EB1000611CCCB202A90A54D748808F00B2019080
:10EB20009DF805202046611CCCB202A90A549DF82C
:10EB300004202046611CCCB202A90A54CE48B0F889
:10EB4000400000B201909DF805202046611CCCB227
:10EB500002A90A549DF804202046611CCCB202A9E7
:10EB60000A54C548B0F8440000B201909DF8052051
:10EB70002046611CCCB202A90A549DF8042020460C
:10EB8000611CCCB202A90A54BB4890F8290048B1D4
:10EB9000B94890F8490028B1B74890F8480008B142
:10EBA000012000E0002001909DF804202146601C17
:10EBB000C4B202A84254B04890F8280001909DF8D1
:10EBC00004202046611CCCB202A90A54AA4890ED48
:10EBD000150A5FED700A20EE200ABDEEC00A10EEA5
:10EBE000100A00B201909DF805202046611CCCB2AD
:10EBF00002A90A549DF804202046611CCCB202A947
:10EC00000A549D4890ED160A5FED7E0A20EE200A18
:10EC1000BDEEC00A10EE100A00B201909DF805206A
:10EC20002046611CCCB202A90A549DF8042020465B
:10EC3000611CCCB202A90A548F4890ED170A5FED0F
:10EC40008B0A20EE200ABDEEC00A10EE100A00B2B8
:10EC500001909DF805202046611CCCB202A90A54FF
:10EC60009DF804202046611CCCB202A90A54201F42
:10EC7000C0B28DF80B00002505E002A8405D3044CD
:10EC8000C6B2681CC5B2A542F7DB2046611CCCB2F7
:10EC900002A90E54214602A8FEF70CFA0FB0BDECF3
:10ECA000068BF0BD10B5FFF773FD10BD10B52DED4F
:10ECB000028B00247148007800287DD1704890EDC7
:10ECC000000A5FEDAE0A20EE200ABDEEC00A10EE8B
:10ECD000100A2146621CD4B26A4A42F821006A48EE
:10ECE00090ED000A5FEDB70A20EE200ABDEEC00AE3
:10ECF00010EE100A2146621CD4B2624A42F821008A
:10ED0000624890ED000A5FEDBF0A20EE200ABDEEDA
:10ED1000C00A10EE100A2146621CD4B2594A42F8C9
:10ED200021005B4890ED000A5FEDC80A20EE200A42
:10ED3000BDEEC00A10EE100A2146621CD4B2514A40
:10ED400042F8210000222046611CCCB24D4941F816
:10ED50002020504890ED2A1BB0EE410AF0EE610AE7
:10ED60009FED4D1B53EC112B51EC100B19F0BEF81D
:10ED700041EC180B19F024F82146621CD4B2414A28
:10ED800042F82100434890ED2C1BB0EE410AF0EE12
:10ED9000610A9FED411B53EC112B51EC100B19F044
:10EDA000A5F841EC180B19F00BF82146621CD4B2FF
:10EDB000344A42F8210000E0DAE0394890ED021BC5
:10EDC000B0EE410AF0EE610A9FED331B53EC112BBC
:10EDD00051EC100B19F08AF841EC180B18F0F0FF09
:10EDE0002146621CD4B2274A42F821002C4890EDFB
:10EDF000081BB0EE410AF0EE610A9FED271B53ECB1
:10EE0000112B51EC100B19F071F841EC180B18F0A4
:10EE1000D7FF2146621CD4B21A4A42F82100214889
:10EE200090ED010ADFED200A20EE200ABDEEC00AB7
:10EE300010EE100A2146621CD4B2124A42F8210098
:10EE4000184890ED000ADFED180A20EE200ABDEE0A
:10EE5000C00A10EE100A2146621CD4B2094A42F8D8
:10EE6000210000222046611CCCB2064941F8202036
:10EE70000E4890F82E001BE0A8D60020AE0500201A
:10EE8000180000205CC700201400002010000020A3
:10EE90001C000020980D01200000000000005940D7
:10EEA000D0FC0020381200200000C842E8D7002023
:10EEB00028B1FE4890F8300008B1012200E000229D
:10EEC0002046611CCCB2FA4941F82020F94890ED67
:10EED0000E1BB0EE410AF0EE610A1FED111B53EC60
:10EEE000112B51EC100B19F001F841EC180B18F034
:10EEF00067FF2146621CD4B2ED4A42F82100ED487A
:10EF000090ED0C1BB0EE410AF0EE610A1FED1E1BE6
:10EF100053EC112B51EC100B18F0E8FF41EC180BDF
:10EF200018F04EFF2146621CD4B2E14A42F821009B
:10EF300000222046611CCCB2DD4941F82020204649
:10EF4000611CCCB2DA4941F820202046611CCCB2C9
:10EF5000D74941F820202046611CCCB2D44941F861
:10EF600020202046611CCCB2D14941F8202000BFAE
:10EF700000BFBDEC028B10BD2DE9F0432DED0C8BD5
:10EF800083B007460026B1460E2F82F0F186DFE8F7
:10EF900017F0EF165504CD07EF16EF16D214EF1643
:10EFA0000E004902120A5B0FB80FE0121014C2489B
:10EFB0000588AA2102880088401CBF4B1880BF48E2
:10EFC0008154AF21184602880088401C1880BB4835
:10EFD00081541021184602880088401C1880B748C8
:10EFE00081540021184602880088401C1880B348CC
:10EFF0008154B34890ED040ABDEEC00A10EE100A29
:10F0000001B202919DF80910184602880088401C40
:10F010001880AA4881549DF8082018460188008865
:10F02000401C1880A5484254A54890ED050ABDEE45
:10F03000C00A10EE100A01B202919DF8091018469C
:10F0400002880088401C18809C4881549DF8082044
:10F05000184601880088401C1880984842549848F7
:10F0600090ED060ABDEEC00A10EE100A01B2029140
:10F070009DF80910184602880088401C18808F48A7
:10F0800081549DF80820184601880088401C18808B
:10F090008A4842548A4890ED070ABDEEC00A10EE35
:10F0A000100A01B202919DF80910184602880088E2
:10F0B000401C1880814881549DF80820184601881A
:10F0C0000088401C18807D4842547D4890ED080A15
:10F0D000BDEEC00A10EE100A01B202919DF80910AF
:10F0E000184602880088401C1880744881549DF896
:10F0F0000810184602880088401C18806F48815408
:10F100006F4890ED090ABDEEC00A10EE100A01B278
:10F1100002919DF80910184602880088401C18804A
:10F12000664881549DF80810184602880088401CE3
:10F13000188062488154624890ED240ABDEEC00AEE
:10F1400010EE100A01B202919DF8091018460288CB
:10F150000088401C1880594881549DF808101846B2
:10F1600002880088401C188054488154544890ED0F
:10F17000250ABDEEC00A10EE100A01B202919DF8F8
:10F180000920184601880088401C18804B484254CA
:10F190009DF80820184601880088401C18804748C0
:10F1A0004254474890ED260ABDEEC00A10EE100A00
:10F1B00001B202919DF80920184601880088401C80
:10F1C00018803E4842549DF808201846018800885F
:10F1D000401C1880394842543A48008801B20291D4
:10F1E0009DF80910184602880088401C1880334892
:10F1F00081549DF80810184602880088401C188029
:10F200002E4881543048016801919DF80710184636
:10F2100002880088401C1880284881549DF80610F8
:10F22000184602880088401C1880244881549DF8A4
:10F230000520184601880088401C18801F48425449
:10F240009DF80410184602880088401C18801B484E
:10F2500081541E4890ED000ADFED1D0A20EE200AC1
:10F26000BDEEC00A10EE100A01B202919DF809200D
:10F27000184601880088401C1880104842549DF8A8
:10F280000810184602880088401C18800B488154DA
:10F290000E4890ED010ADFED0E0A20EE200ABDEEC9
:10F2A000C00A10EE100A01B2029113E0E8D7002064
:10F2B0005CC70020980D0120B005002025DB002050
:10F2C000BCEA0020E40B0020DC070020C4950020ED
:10F2D00000007A449DF80920184601880088401CE7
:10F2E0001880FE4842549DF808101846028800888D
:10F2F000401C1880F9488154F94890ED020A5FEDEE
:10F300000C0A20EE200ABDEEC00A10EE100A01B26F
:10F3100002919DF80910184602880088401C188048
:10F32000EE4881549DF80820184601880088401C4A
:10F330001880EA484254EA4890ED030A5FED1C0A3F
:10F3400020EE200ABDEEC00A10EE100A01B20291B2
:10F350009DF80910184602880088401C1880DF4874
:10F3600081549DF80820184601880088401C1880A8
:10F37000DA484254DB4890ED010A5FED2B0A20EE9B
:10F38000200ABDEEC00A10EE100A01B202919DF8EB
:10F390000910184602880088401C1880CF48815404
:10F3A0009DF80820184601880088401C1880CB482A
:10F3B0004254CD4890F8480050B1CB4890F84900ED
:10F3C00030B1C94890F82800032801DB012100E092
:10F3D000002102919DF80810C44802880088401C52
:10F3E000C24B1880BD48815418460178481B001F45
:10F3F000C1B2BA4AE81C1154ECB205E0B748005D4E
:10F400003044C6B2601CC4B2B84800888442F5DB00
:10F41000B64801880088401CB44A1080AF48465462
:10F4200002F0A7BCB1480588AA2102880088401CC8
:10F43000AE4B1880A9488154AF2118460288008835
:10F44000401C1880A5488154112218460188008864
:10F45000401C1880A14842540022184601880088A8
:10F46000401C18809D484254A14890ED000AF2EEDD
:10F47000040A20EE200ABDEEC00A10EE100A01B206
:10F4800002919DF80920184601880088401C1880C8
:10F49000924842549DF80820184601880088401C74
:10F4A00018808E484254934890ED000AF2EE040A08
:10F4B00020EE200ABDEEC00A10EE100A01B2029141
:10F4C0009DF80910184602880088401C188083485F
:10F4D00081549DF80820184601880088401C188037
:10F4E0007E484254844890ED000AF2EE040A20EE71
:10F4F000200ABDEEC00A10EE100A01B202919DF87A
:10F500000910184602880088401C188073488154EE
:10F510009DF80810184602880088401C18806F4823
:10F520008154764890ED000A5FED970A20EE200A9C
:10F53000BDEEC00A10EE100A01B202919DF809104A
:10F54000184602880088401C1880644881549DF841
:10F550000810184602880088401C18805F488154B3
:10F56000664890ED010A5FEDA60A20EE200ABDEE86
:10F57000C00A10EE100A01B202919DF80910184657
:10F5800002880088401C1880544881549DF8082047
:10F59000184601880088401C18805048425457483B
:10F5A00090ED020A5FEDB60A20EE200ABDEEC00A19
:10F5B00010EE100A01B202919DF809201846018848
:10F5C0000088401C1880454842549DF80810184691
:10F5D00002880088401C188040488154474890EDBC
:10F5E000030A5FEDC50A20EE200ABDEEC00A10EE48
:10F5F000100A01B202919DF809101846028800888D
:10F60000401C1880354881549DF80810184602881F
:10F610000088401C188031488154394890ED000A18
:10F62000F2EE040A20EE200ABDEEC00A10EE100A27
:10F6300001B202919DF80920184601880088401CFB
:10F640001880264842549DF80820184601880088F2
:10F65000401C1880214842542A4890ED000AF2EEDE
:10F66000040A20EE200ABDEEC00A10EE100A01B214
:10F6700002919DF80910184602880088401C1880E5
:10F68000164881549DF80810184602880088401CCE
:10F690001880124881541C4890ED000AF2EE040ACA
:10F6A00020EE200ABDEEC00A10EE100A01B202914F
:10F6B0009DF80910184602880088401C18800748E9
:10F6C00081549DF80820184601880088401C188045
:10F6D000024842540D4890ED000A19E025DB002055
:10F6E000C4950020F8030020A8D60020B005002013
:10F6F000C8100020C4100020CC100020DC10002016
:10F70000D4100020D0100020D8100020B811002004
:10F71000DFEDFE0A20EE200ABDEEC00A10EE100A50
:10F7200001B202919DF80910184602880088401C19
:10F730001880F74881549DF8081018460288008800
:10F74000401C1880F2488154F24890ED010ADFED28
:10F75000EF0A20EE200ABDEEC00A10EE100A01B238
:10F7600002919DF80910184602880088401C1880F4
:10F77000E74881549DF80820184601880088401CFD
:10F780001880E3484254E34890ED020ADFEDDF0AB7
:10F7900020EE200ABDEEC00A10EE100A01B202915E
:10F7A0009DF80910184602880088401C1880D84827
:10F7B00081549DF80810184602880088401C188063
:10F7C000D3488154D34890ED030ADFEDD00A20EEF0
:10F7D000200ABDEEC00A10EE100A01B202919DF897
:10F7E0000910184602880088401C1880C8488154B7
:10F7F0009DF80810184602880088401C1880C448EC
:10F80000815418460178481B001FC1B2C04AE81C49
:10F810001154ECB205E0BE48005D3044C6B2601C35
:10F82000C4B2BD4800888442F5DBBB48018800882B
:10F83000401CB94A1080B6484654F1E5B6480588E0
:10F84000AA2201880088401CB34B1880B04842545B
:10F85000AF21184602880088401C1880AC488154AB
:10F860001221184602880088401C1880A84881543C
:10F870000022184601880088401C1880A448425481
:10F88000A64890ED030ABDEEC00A10EE100A01B2C0
:10F8900002919DF80810184602880088401C1880C4
:10F8A0009B4881549E4890ED020ADFED980A20EEB5
:10F8B000200ABDEEC00A10EE100A01B202919DF8B6
:10F8C0000910184602880088401C1880904881540E
:10F8D0009DF80820184601880088401C18808C4834
:10F8E00042548F4890ED030ADFED880A20EE200A8B
:10F8F000BDEEC00A10EE100A01B202919DF8091087
:10F90000184602880088401C1880814881549DF860
:10F910000810184602880088401C18807C488154D2
:10F92000804890ED000ADFED790A20EE200ABDEE56
:10F93000C00A10EE100A01B202919DF80910184693
:10F9400002880088401C1880714881549DF8081076
:10F95000184602880088401C18806D488154714800
:10F9600090ED010ADFED690A20EE200ABDEEC00A23
:10F9700010EE100A01B202919DF809101846028893
:10F980000088401C1880624881549DF80820184661
:10F9900001880088401C18805D48425462484068D5
:10F9A00090ED000ADFED610A20EE200ABDEEC00AEC
:10F9B00010EE100A01B202919DF809201846018844
:10F9C0000088401C1880524842549DF80810184680
:10F9D00002880088401C18804D4881545448406873
:10F9E00090ED000ADFED510A20EE200ABDEEC00ABC
:10F9F00010EE100A01B202919DF809101846028813
:10FA00000088401C1880424881549DF80810184610
:10FA100002880088401C18803D488154454890F871
:10FA2000310080B14448C07968B9424890ED090A74
:10FA3000DFED360A20EE200ABDEEC00A10EE100AF5
:10FA400000B202900DE03D48406890ED010ADFED04
:10FA50002F0A20EE200ABDEEC00A10EE100A00B2F6
:10FA600002909DF809102C4802880088401C2A4BFF
:10FA70001880274881549DF808101846028800888D
:10FA8000401C1880224881542D48807968B12D4847
:10FA900090ED000ADFED1D0A20EE200ABDEEC00A3F
:10FAA00010EE100A00B2029002E042F228300290FA
:10FAB0009DF80920184801880088401C164B1880C2
:10FAC000134842549DF80810184602880088401CCC
:10FAD00018800F4881541C4890ED010ADFED0B0A95
:10FAE00020EE200ABDEEC00A10EE100A01B202910B
:10FAF0009DF80910184602880088401C18800448A8
:10FB000081549DF80810184602881FE000007A44CE
:10FB100025DB0020B8110020B005002008DD002002
:10FB200014C60020B4950020081400200000C8422C
:10FB300010140020E8D70020609C0020F81300205B
:10FB40006404002074140020581500200088401C14
:10FB50001880FE488154FE4890ED000A5FED150ABA
:10FB600020EE200ABDEEC00A8DED010A9DF80710B7
:10FB7000184602880088401C1880F44881549DF87B
:10FB80000620184601880088401C1880EF4842541F
:10FB90009DF80510184602880088401C1880EB4824
:10FBA00081549DF80410184602880088401C188073
:10FBB000E6488154E748D0F81804D0ED020AF1EE87
:10FBC000600AB0EE600A00210A2009F003FD5FED33
:10FBD000310A20EE200ABDEEC00A10EE100A01B272
:10FBE00002919DF80910DC4802880088401CDA4B1D
:10FBF0001880D64881549DF808101846028800885D
:10FC0000401C1880D1488154D248D0F8180490ED97
:10FC1000050A5FED420A20EE200ABDEEC00A8DED16
:10FC2000010A9DF80710184602880088401C1880B9
:10FC3000C64881549DF80610184602880088401C6A
:10FC40001880C24881549DF8051018460288008823
:10FC5000401C1880BD4881549DF804101846028845
:10FC60000088401C1880B9488154BC4890F8310085
:10FC7000A0B1BB4890F88B0080B9BA48007A68B947
:10FC8000B64890ED000A5FED5F0A20EE200ABDEE57
:10FC9000C00A10EE100A00B202900CE0B24890EDDB
:10FCA000000A5FED660A20EE200ABDEEC00A10EEE3
:10FCB000100A00B202909DF80910A7480288008837
:10FCC000401CA54B1880A14881549DF80810184687
:10FCD00002880088401C18809C4881549F4890F8F6
:10FCE0003100A0B19E4890F88B0080B99D48007A01
:10FCF00068B99A4890ED010A5FED7C0A20EE200A6F
:10FD0000BDEEC00A10EE100A00B202900CE0964858
:10FD100090ED010A5FED830A20EE200ABDEEC00AD5
:10FD200010EE100A00B202909DF809108A4802886D
:10FD30000088401C884B1880844881549DF8081026
:10FD4000184602880088401C1880804881548348E7
:10FD500090F83100A0B1824890F88B0080B98148BA
:10FD6000007A68B97D4890ED070A5FED980A20EEA9
:10FD7000200ABDEEC00A10EE100A00B2029014E094
:10FD80007A4890ED021BB0EE410AF0EE610A9FED59
:10FD9000781B53EC112B51EC100B18F0A7F841EC29
:10FDA000190B18F00DF800B202909DF809206A486E
:10FDB00001880088401C684B1880644842549DF8B4
:10FDC0000810184602880088401C18805F4881543B
:10FDD000624890F83100A0B1614890F88B0080B97A
:10FDE0006048007A68B95D4890ED080A5FEDB90A8D
:10FDF00020EE200ABDEEC00A10EE100A00B20290FA
:10FE000014E05A4890ED081BB0EE410AF0EE610A8A
:10FE10009FED571B53EC112B51EC100B18F066F8AB
:10FE200041EC190B17F0CCFF00B202909DF80920AD
:10FE3000494801880088401C474B18804348425479
:10FE40009DF80810184602880088401C18803F481A
:10FE50008154494890ED061BB0EE410AF0EE610A6C
:10FE60009FED431B53EC112B51EC100B18F03EF897
:10FE700041EC190B17F0A4FF00B202909DF8091095
:10FE8000354802880088401C334B18802F48815425
:10FE90009DF80820184601880088401C18802B48CF
:10FEA0004254354890ED081BB0EE410AF0EE610A6D
:10FEB0009FED2F1B53EC112B51EC100B18F016F883
:10FEC00041EC190B17F07CFF00B202909DF809106D
:10FED000214802880088401C1F4B18801B48815411
:10FEE0009DF80810184602880088401C18801748A2
:10FEF000815418460078401B001FC1B2134BE81C08
:10FF00001954ECB205E01148005D3044C6B2601CE3
:10FF1000C4B2114800888442F5DB0F48018800888C
:10FF2000401C0D4A10800948465486E40A4805885A
:10FF3000AA2102880088401C074B1880034881547E
:10FF4000AF21184602880088401C17E025DB0020FE
:10FF500058150020B0FD0020B0050020E8D7002093
:10FF6000C0D10020609C00203812002090FC0020AE
:10FF70000000000000408F4010FD00201880F8486D
:10FF800081541421184602880088401C1880F448C7
:10FF900081540021184602880088401C1880F048CF
:10FFA0008154F04890ED000B51EC100B17F008FF56
:10FFB00001B202919DF80910EB4802880088401CAC
:10FFC000E94B1880E64881549DF8082018460188BE
:10FFD0000088401C1880E2484254E24890ED000B33
:10FFE00051EC100B17F0ECFE804617F018FF41ECB7
:10FFF0001B0BDC4890ED000B53EC102B51EC1B0B52
:020000040801F1
:1000000018F0A8F89FEDD90B53EC102B17F06EFFEA
:1000100017F0D6FE01909DF80710D348028800889B
:10002000401CD14B1880CE4881549DF806101846CC
:1000300002880088401C1880C94881549DF805102A
:10004000184602880088401C1880C54881549DF8D5
:100050000410184602880088401C1880C04881544B
:10006000C44890ED000B51EC100B17F0A9FE00B244
:1000700002909DF80910BC4802880088401CBA4BC9
:100080001880B74881549DF80820184601880088D8
:10009000401C1880B2484254B64890ED000B51EC19
:1000A000100B17F08DFE804617F0B9FE41EC1B0BCC
:1000B000B04890ED000B53EC102B51EC1B0B18F0DB
:1000C00049F89FEDAA0B53EC102B17F00FFF17F018
:1000D00077FE01909DF80710A34802880088401C15
:1000E000A14B18809E4881549DF80610184602883E
:1000F0000088401C18809A4881549DF805101846C5
:1001000002880088401C1880954881549DF804207E
:10011000184601880088401C18809148425496482F
:1001200090ED000ABDEEC00A8DED010A9DF80710A2
:10013000184602880088401C1880894881549DF820
:100140000610184602880088401C18808448815494
:100150009DF80520184601880088401C18808048BA
:1001600042549DF80410184602880088401C1880EC
:100170007B488154814890ED000ABDEEC00A8DEDA8
:10018000010A9DF80710184602880088401C188054
:10019000734881549DF80610184602880088401C58
:1001A00018806F4881549DF8051018460288008811
:1001B000401C18806A4881549DF804101846028833
:1001C0000088401C1880664881546D4890F88B0068
:1001D00002909DF80810184602880088401C18807C
:1001E0005F488154664890F88C0002909DF8081092
:1001F000184602880088401C18805948815460497C
:100200008D31086849689FED5F1B53EC112B17F087
:100210006DFE17F0D5FD01909DF80720524801882A
:100220000088401C504B18804D4842549DF80610E1
:10023000184602880088401C1880494881549DF85F
:100240000520184601880088401C18804448425404
:100250009DF80410184602880088401C1880404809
:10026000815447499531086849689FED461B53EC16
:10027000112B17F03BFE17F0A3FD01909DF807101E
:10028000394802880088401C374B18803448815414
:100290009DF80610184602880088401C18803048D7
:1002A00081549DF80510184602880088401C18806B
:1002B0002B4881549DF80420184601880088401C72
:1002C0001880274842542E48D0F8AD0000EE100A9E
:1002D000DFED2E0A20EE200ABDEEC00A10EE100A55
:1002E00000B202909DF80910184602880088401C50
:1002F00018801B4881549DF8082018460188008802
:10030000401C1880164842541D48D0F87A0000EE70
:10031000100AF2EE040A20EE200ABDEEC00A10EE2A
:10032000100A00B202909DF8092018460188008842
:10033000401C18800A4842549DF80810184602884C
:100340000088401C18800648815418460078401BDD
:10035000001FC1B2024BE81C1954ECB21EE00000B1
:1003600025DB002058120020B0050020000000000E
:1003700065CDCD41501200204012002044120020D3
:10038000C0D1002000000000D01263410000C8422C
:10039000FA48005D3044C6B2601CC4B2F848008818
:1003A0008442F5DBF64801880088401CF44A10803E
:1003B000F2484654B9E5F2480588AA220188008827
:1003C000401CEF4B1880ED484254AF21184602887C
:1003D0000088401C1880E94881548822184601880A
:1003E0000088401C1880E5484254002118460288C5
:1003F0000088401C1880E1488154E24890ED000AD2
:10040000F2EE040A20EE200ABDEEC00A10EE100A39
:1004100001B202919DF80910184602880088401C1C
:100420001880D64881549DF8081018460288008824
:10043000401C1880D1488154D34890ED000AF2EE58
:10044000040A20EE200ABDEEC00A10EE100A01B226
:1004500002919DF80920184601880088401C1880E8
:10046000C64842549DF80820184601880088401C60
:100470001880C2484254C54890ED000AF2EE040AC2
:1004800020EE200ABDEEC00A10EE100A01B2029161
:100490009DF80910184602880088401C1880B7484B
:1004A00081549DF80810184602880088401C188066
:1004B000B2488154B64890ED180ADFEDB60A20EE36
:1004C000200ABDEEC00A10EE100A01B202919DF89A
:1004D0000910184602880088401C1880A7488154DB
:1004E0009DF80820184601880088401C1880A34801
:1004F0004254A948807968B1A84890ED000ADFED20
:10050000A50A20EE200ABDEEC00A10EE100A00B2C5
:10051000029002E042F2283002909DF809109848BB
:1005200002880088401C964B1880944881549DF89E
:100530000820184601880088401C18808F484254C3
:10054000974890ED021BB0EE410AF0EE610A9FED74
:10055000951B53EC112B51EC100B17F0C7FC41EC21
:10056000190B17F02DFC00B202909DF80920844869
:1005700001880088401C824B1880804842549DF8B6
:100580000820184601880088401C18807B48425487
:10059000834890ED001BB0EE410AF0EE610A9FED3A
:1005A000811B53EC112B51EC100B17F09FFC41EC0D
:1005B000190B17F005FC01909DF807207048018881
:1005C0000088401C6E4B18806C4842549DF8061001
:1005D000184602880088401C1880684881549DF89D
:1005E0000510184602880088401C18806348815412
:1005F0009DF80410184602880088401C18805F4847
:1006000081546A4890ED000ADFED620A20EE200A6C
:10061000BDEEC00A8DED010A9DF80710184602884C
:100620000088401C1880554881549DF806101846D3
:1006300002880088401C1880504881549DF805109D
:10064000184602880088401C18804C4881549DF848
:100650000420184601880088401C188047484254EE
:10066000524890ED010ADFED4B0A20EE200ABDEE64
:10067000C00A8DED010A9DF8072018460188008800
:10068000401C18803D4842549DF8061018460288C8
:100690000088401C1880394881549DF80510184680
:1006A00002880088401C1880344881549DF804203A
:1006B000184601880088401C1880304842543C4845
:1006C00090ED021BB0EE410AF0EE610A9FED351B82
:1006D00053EC112B51EC100B17F008FC41EC190BEB
:1006E00017F06EFB00B202909DF8091024480288B2
:1006F0000088401C224B1880204881549DF8082017
:10070000184601880088401C18801C48425428481C
:1007100090ED081BB0EE410AF0EE610A9FED211B3F
:1007200053EC112B51EC100B17F0E0FB41EC190BC3
:1007300017F046FB00B202909DF80910104802889D
:100740000088401C0E4B18800C4881549DF80810FE
:10075000184602880088401C1880084881549FED84
:10076000150B53EC102B154890ED000B51EC100BB2
:1007700017F0BAFC24D2114803C828E025DB00207A
:10078000B0050020C8100020C4100020CC100020AC
:1007900068C1002000007A44640400207014002026
:1007A000700C01200000000000408F403812002033
:1007B00090FC002000000000000000005812002003
:1007C000FE4890ED000B51EC100B17F06BF841EC6C
:1007D000190B17F0F5FA01B202919DF80910F848CB
:1007E00002880088401CF64B1880F64881549DF81A
:1007F0000820184601880088401C1880F14842549F
:100800001FED140B53EC102BEC4890ED000B51EC4A
:10081000100B17F069FC02D2E84803C806E0E7486D
:1008200090ED000B51EC100B17F03CF841EC1D0B58
:1008300017F0C6FA804617F0F2FA41EC1B0B1FEDD9
:10084000230B53EC102BDD4890ED000B51EC100BFB
:1008500017F04AFC02D2D94803C806E0D74890ED09
:10086000000B51EC100B17F01DF841EC1C0B53EC76
:100870001B2B17F047FD41EC1A0B9FEDD30B53ECEC
:10088000102B17F033FB41EC190B17F099FA01907C
:100890009DF80720CA4801880088401CC84B188072
:1008A000C84842549DF80610184602880088401C2B
:1008B0001880C44881549DF80510184602880088A5
:1008C000401C1880BF4881549DF8041018460288C7
:1008D0000088401C1880BB4881541FED4A0B53EC24
:1008E000102BBB4890ED000B51EC100B17F0FCFBEC
:1008F00002D2B74803C806E0B54890ED000B51ECB2
:10090000100B16F0CFFF41EC190B17F059FA01B29A
:1009100002919DF80910AA4802880088401CA84B43
:100920001880A84881549DF808101846028800884D
:10093000401C1880A34881541FED620B53EC102B10
:10094000A34890ED000B51EC100B17F0CDFB02D239
:100950009F4803C806E09E4890ED000B51EC100B39
:1009600016F0A0FF41EC1D0B17F02AFA804617F095
:1009700056FA41EC1B0B1FED710B53EC102B9448F6
:1009800090ED000B51EC100B17F0AEFB02D290482B
:1009900003C806E08E4890ED000B51EC100B16F0EA
:1009A00081FF41EC1C0B53EC1B2B17F0ABFC41EC13
:1009B0001A0B9FED850B53EC102B17F097FA41ECB7
:1009C000190B17F0FDF901909DF807107C4802887B
:1009D0000088401C7A4B18807A4881549DF8061094
:1009E000184602880088401C1880764881549DF87B
:1009F0000520184601880088401C18807148425420
:100A00009DF80410184602880088401C18806D4824
:100A10008154704890ED000ABDEEC00A8DED010AC8
:100A20009DF80710184602880088401C1880654809
:100A300081549DF80610184602880088401C1880D2
:100A4000604881549DF80510184602880088401CB3
:100A500018805C4881549DF804101846028800886C
:100A6000401C1880574881545B4890ED000ABDEE49
:100A7000C00A8DED010A9DF807101846028800880B
:100A8000401C18804F4881549DF806101846028873
:100A90000088401C18804B4881549DF8051018466A
:100AA00002880088401C1880464881549DF8041034
:100AB000184602880088401C1880424881544748E4
:100AC00090F88C0004280BDD4548007840B144487C
:100AD00090F86A0020B1414890F88B00029001E044
:100AE000632002909DF80810354802880088401C59
:100AF000334B188033488154384890F88C000428D0
:100B000007DD3748007820B1344890F88C00029017
:100B100003E0344890F8680002909DF808102848D7
:100B200002880088401C264B1880264881542E4895
:100B300090ED030ADFED2D0A20EE200ABDEEC00A7B
:100B400010EE100A01B202919DF8091018460288B1
:100B50000088401C18801B4881549DF808101846D6
:100B600002880088401C1880164881541E4890ED69
:100B7000040ADFED1E0A20EE200ABDEEC00A10EEC8
:100B8000100A01B202919DF80910184602880088E7
:100B9000401C18800B4881549DF8081018460288A4
:100BA0000088401C1880074881540F4890ED050AC2
:100BB000DFED0E0A20EE200A1AE000005812002095
:100BC000B005002025DB00200000000065CDCD41F0
:100BD000501200204012002044120020C0D10020FA
:100BE00068C10020ACC7002024D300200000C84208
:100BF000BDEEC00A10EE100A01B202919DF8091074
:100C0000184602880088401C1880FE4881549DF8D0
:100C10000810184602880088401C1880F948815442
:100C2000F94890ED090A5FED0F0A20EE200ABDEEAB
:100C3000C00A10EE100A01B202919DF80910184680
:100C400002880088401C1880EE4881549DF80810E6
:100C5000184602880088401C1880EA488154EA48F7
:100C600090ED0A0A5FED1F0A20EE200ABDEEC00AD1
:100C700010EE100A01B202919DF809101846028880
:100C80000088401C1880DF4881549DF808101846E1
:100C900002880088401C1880DA488154DB4890EDB7
:100CA000000A5FED2E0A60EE200AD948407800EE77
:100CB000100AB8EE400A20EE800ABDEEC00A10EE1F
:100CC000100A01B202919DF80910184602880088A6
:100CD000401C1880CB4881549DF8081018460288A3
:100CE0000088401C1880C7488154C84890ED010A0C
:100CF0005FED420A60EE200AC548407800EE100A17
:100D0000B8EE400A20EE800ABDEEC00A10EE100ACE
:100D100001B202919DF80920184601880088401C04
:100D20001880B84842549DF8081018460288008878
:100D3000401C1880B3488154B64890ED000A5FED1E
:100D4000550A60EE200AB248407800EE100AB8EE6C
:100D5000400A20EE800ABDEEC00A10EE100A01B271
:100D600002919DF80920184601880088401C1880CF
:100D7000A44842549DF80810184602880088401C78
:100D80001880A0488154A448017802919DF8081069
:100D9000184602880088401C18809A4881549FEDAC
:100DA0009F0B53EC102B9F4890ED000B51EC100B58
:100DB00017F09AF903D201208DF8000002E000201C
:100DC0008DF800009FED950B53EC102B964890ED9D
:100DD000000B51EC100B17F087F903D201208DF8AE
:100DE000010002E000208DF801009DF801109DF83F
:100DF000000041EA400102919DF808108B480288EA
:100E00000088401C894B18807E4881541846017820
:100E1000481B001FC1B27B4AE81C1154ECB205E02C
:100E20007848005D3044C6B2601CC4B27F48008878
:100E30008442F5DB7D4801880088401C7B4A108095
:100E40007048465400F095BF78480588AA2102886A
:100E50000088401C754B18806A488154AF211846A1
:100E600002880088401C18806648815499211846E1
:100E700002880088401C188062488154002118466E
:100E800002880088401C18805E488154002419E0C4
:100E9000674931F8240001B202919DF809106348B6
:100EA00002880088401C614B1880564881549DF888
:100EB0000810184602880088401C18805148815448
:100EC000601CC4B2142CE3DB58480078401B001FA0
:100ED000C1B24C4AE81C1154ECB205E04948005D2F
:100EE0003044C6B2601CC4B2504800888442F5DB6E
:100EF0004E4801880088401C4C4A108041484654A6
:100F0000A0E74A480588AA2102880088401C474B70
:100F100018803C488154AF21184602880088401C44
:100F20001880384881540421184602880088401CE3
:100F30001880344881540021184602880088401CDB
:100F40001880304881543B4890ED000AF2EE040AC4
:100F500020EE200ABDEEC00A10EE100A01B2029186
:100F60009DF80920184601880088401C18802548F3
:100F700042549DF80810184602880088401C1880CA
:100F8000204881542B4890ED010AF2EE040A20EE2D
:100F9000200ABDEEC00A10EE100A01B202919DF8BF
:100FA0000920184601880088401C188015484254C2
:100FB0009DF80810184602880088401C18801148C7
:100FC00081541C4890ED020AF2EE040A20EE200A39
:100FD000BDEEC00A10EE100A01B202919DF8091090
:100FE000184602880088401C1880064881549DF8E5
:100FF0000810184602880088401C18800148815457
:101000000C4819E025DB002024D3002094FD0020AB
:10101000DCD90020D0130020700500200000000063
:10102000000000005812002050120020B0050020DF
:101030005CC70020A8D6002090ED080ADFEDFE0A6C
:1010400020EE200ABDEEC00A10EE100A01B2029195
:101050009DF80910184602880088401C1880F7483F
:1010600081549DF80810184602880088401C18809A
:10107000F2488154F24890ED010AF2EE040A20EEA3
:10108000200ABDEEC00A10EE100A01B202919DF8CE
:101090000910184602880088401C1880E7488154CF
:1010A0009DF80810184602880088401C1880E34804
:1010B0008154E44890ED041BB0EE410AF0EE610A61
:1010C00051EC100B16F0FAFB08EE100ABDEEC80A40
:1010D00010EE100A01B202919DF80910DA48028858
:1010E0000088401CD84B1880D44881549DF80810C3
:1010F000184602880088401C1880D0488154BDEEF4
:10110000C80AB8EEC00A38EE400ADFEDD00A20EE79
:10111000200ABDEEC00A8DED010A9DF807101846A1
:1011200002880088401C1880C44881549DF806102D
:10113000184602880088401C1880C04881549DF8D9
:101140000520184601880088401C1880BB4842547E
:101150009DF80410184602880088401C1880B74883
:101160008154B84890ED061BB0EE410AF0EE610ADA
:1011700051EC100B16F0A2FB08EE100ABDEEC80AE7
:1011800010EE100A01B202919DF80920AE480188C4
:101190000088401CAC4B1880A84842549DF80810A9
:1011A000184602880088401C1880A4488154BDEE6F
:1011B000C80AB8EEC00A38EE400ADFEDA40A20EEF5
:1011C000200ABDEEC00A8DED010A9DF807101846F1
:1011D00002880088401C1880984881549DF80610A9
:1011E000184602880088401C1880944881549DF855
:1011F0000520184601880088401C18808F484254FA
:101200009DF80420184601880088401C18808B48EF
:1012100042548C4890ED0B0ABDEEC00A10EE100A45
:1012200001B202919DF80920184601880088401CEF
:101230001880824842549DF808201846018800888A
:10124000401C18807D4842547E48008E01B20291B5
:101250009DF80910184602880088401C18807748BD
:1012600081549DF80810184602880088401C188098
:10127000724881547348808E01B202919DF8091022
:10128000184602880088401C18806C4881549DF8DC
:101290000810184602880088401C1880674881544E
:1012A0006848008F01B202919DF809101846028823
:1012B0000088401C1880614881549DF80810184629
:1012C00002880088401C18805C4881545D48808FEB
:1012D00001B202919DF80910184602880088401C4E
:1012E0001880564881549DF80810184602880088D6
:1012F000401C1880514881545248B0F8400001B257
:1013000002919DF80910184602880088401C188038
:101310004A4881549DF80820184601880088401CDE
:101320001880464842544748B0F8440001B2029140
:101330009DF80910184602880088401C18803F4814
:1013400081549DF80810184602880088401C1880B7
:101350003A4881543B4890F8290048B1394890F800
:10136000490028B1374890F8480008B1012100E051
:10137000002102919DF80810334802880088401C23
:10138000314B18802D4881542E4890F82810029136
:101390009DF80810184602880088401C18802748CD
:1013A0008154284890ED150ADFED230A20EE200A2B
:1013B000BDEEC00A10EE100A01B202919DF809209C
:1013C000184601880088401C18801C4842549DF82B
:1013D0000810184602880088401C1880174881545D
:1013E000184890ED160ADFED140A20EE200ABDEE33
:1013F000C00A10EE100A01B202919DF809101846B9
:1014000002880088401C18800C4881549DF8081000
:10141000184602880088401C1880084881540948F2
:1014200090ED170ADFED040A20EE200ABDEEC00A97
:1014300010EE100A01B20BE000007A4425DB002018
:10144000C00B0120A8D60020B0050020286B6E4EEE
:1014500002919DF80910184602880088401C1880E7
:10146000FE4881549DF80820184601880088401CD9
:101470001880FA484254FA4890ED030ABDEEC00ABB
:1014800010EE100A01B202919DF809101846028868
:101490000088401C1880F14881549DF808101846B7
:1014A00002880088401C1880EC488154EC4890ED7C
:1014B000040ABDEEC00A10EE100A01B202919DF8B6
:1014C0000910184602880088401C1880E34881549F
:1014D0009DF80810184602880088401C1880DF48D4
:1014E0008154DF4890ED050ABDEEC00A10EE100AE7
:1014F00001B202919DF80910184602880088401C2C
:101500001880D64881549DF8081018460288008833
:10151000401C1880D148815418460178481B001F90
:10152000C1B2CE4AE81C1154ECB205E0CB48005DD4
:101530003044C6B2601CC4B2CA4800888442F5DB9D
:10154000C84801880088401CC64A1080C3484654D9
:1015500078E4C4480588AA2201880088401CC14B51
:101560001880BE484254AF21184602880088401CAB
:101570001880BA4881540521184602880088401C0A
:101580001880B64881540021184602880088401C03
:101590001880B2488154B44890F8260040B94221DE
:1015A000184602880088401C1880AC4881540AE024
:1015B000AD4890F82410AB4802880088401CA94B25
:1015C0001880A6488154A84890ED000ABDEEC00AD4
:1015D00010EE100A01B202919DF80910A14802888C
:1015E0000088401C9F4B18809C4881549DF808102F
:1015F000184602880088401C1880984881549A48F0
:1016000090ED010ABDEEC00A10EE100A01B202917F
:101610009DF80920184601880088401C18808F48D2
:1016200042549DF80810184602880088401C188013
:101630008A4881548C4890ED020ABDEEC00A10EE33
:10164000100A01B202919DF809101846028800881C
:10165000401C1880814881549DF808201846018854
:101660000088401C18807D4842547F4890ED0B0A4A
:10167000BDEEC00A10EE100A01B202919DF80910E9
:10168000184602880088401C1880744881549DF8D0
:101690000810184602880088401C18806F48815442
:1016A000714890ED0C0ABDEEC00A10EE100A01B2AE
:1016B00002919DF80920184601880088401C188076
:1016C000664842549DF80820184601880088401C4E
:1016D000188062484254644890ED0D0ABDEEC00A7D
:1016E00010EE100A01B202919DF8092018460188F7
:1016F0000088401C1880594842549DF8081018462C
:1017000002880088401C188054488154564890ED47
:101710000E0ABDEEC00A10EE100A01B202919DF849
:101720000910184602880088401C18804B488154D4
:101730009DF80810184602880088401C1880474809
:101740008154494890ED050ABDEEC00A10EE100A1A
:1017500001B202919DF80910184602880088401CC9
:1017600018803E4881549DF808201846018800885A
:10177000401C18803948425418460178481B001F05
:10178000C1B2364AE81C1154ECB205E03348005DA2
:101790003044C6B2601CC4B2324800888442F5DBD3
:1017A000304801880088401C2E4A10802B4846543F
:1017B000DFE22C480588AA2102880088401C294BBA
:1017C000188026488154AF21184602880088401CA2
:1017D0001880224881549821184602880088401CAD
:1017E00018801E4881540021184602880088401C39
:1017F00018801A4881541D480178184602880088CC
:10180000401C1880154881541848D0F8070000EE95
:10181000100ABDEEC00A10EE100A01B202919DF846
:101820000910184602880088401C18800B48815413
:101830009DF80820184601880088401C1880074839
:1018400042540A48D0F8030000EE100ABDEEC00A68
:1018500010EE100A01B202910AE0000025DB002020
:1018600024D30020B0050020F0C3002096DF002024
:101870009DF80910184602880088401C1880FE4810
:1018800081549DF80820184601880088401C188063
:10189000F9484254F948B0F8170001B202919DF896
:1018A0000910184602880088401C1880F2488154AC
:1018B0009DF80810184602880088401C1880EE48E1
:1018C0008154EE48D0F80B0000EE100ABDEEC00ABD
:1018D00010EE100A01B202919DF809101846028814
:1018E0000088401C1880E44881549DF80820184660
:1018F00001880088401C1880DF484254184601784F
:10190000481B001FC1B2DC4AE81C1154ECB205E0D0
:10191000D948005D3044C6B2601CC4B2D8480088C3
:101920008442F5DBD64801880088401CD44A1080E8
:10193000D14846541DE2D2480588AA220188008871
:10194000401CCF4B1880CC484254AF221846018827
:101950000088401C1880C84842540122184601885B
:101960000088401C1880C448425400221846018850
:101970000088401C1880C0484254C248006810B11A
:101980000120029002E0C048007802909DF8081003
:10199000BB4802880088401CB94B1880B648815467
:1019A000B848006820B1B748808800B2029002E0D1
:1019B000B648008802909DF80910B1480288008856
:1019C000401CAF4B1880AC4881549DF80810184655
:1019D00002880088401C1880A7488154A9480068E4
:1019E00020B1A848008900B2029002E0A7484088D0
:1019F00002909DF80910A24802880088401CA04B64
:101A000018809D4881549DF8081018460288008867
:101A1000401C1880984881549A48006820B1994821
:101A2000808900B2029002E09848808802909DF878
:101A30000910934802880088401C914B18808E48FA
:101A400081549DF80810184602880088401C1880B0
:101A5000894881548B48006820B18A48008A00B2C6
:101A6000029002E08948C08802909DF809108448DD
:101A700002880088401C824B18807F4881549DF862
:101A80000820184601880088401C18807A48425473
:101A90007C48006820B17B48808A00B2029002E056
:101AA0007A48008902909DF80910754802880088DC
:101AB000401C734B1880704881549DF808201846CC
:101AC00001880088401C18806B4842546D480068AB
:101AD00020B16C48008B00B2029002E06B48408954
:101AE00002909DF80910664802880088401C644BEB
:101AF0001880614881549DF80810184602880088B3
:101B0000401C18805C4881545E48006820B15D48E4
:101B1000808B00B2029002E05C48808902909DF8C0
:101B20000910574802880088401C554B18805248BD
:101B300081549DF80810184602880088401C1880BF
:101B40004D4881544F48006820B14E48008C00B287
:101B5000029002E04D48C08902909DF80910484863
:101B600002880088401C464B1880434881549DF8E9
:101B70000810184602880088401C18803E4881548E
:101B80004048006820B13F48808C00B2029002E0DB
:101B90003E48008A02909DF8091039480288008862
:101BA000401C374B1880344881549DF80810184663
:101BB00002880088401C18802F488154344890EDDA
:101BC0000E0ABDEEC00A10EE100A01B202919DF895
:101BD0000910184602880088401C18802648815445
:101BE0009DF80810184602880088401C188022487A
:101BF0008154274890ED0F0ABDEEC00A10EE100A7E
